{"abi":[{"type":"constructor","inputs":[{"name":"treasury_","type":"address","internalType":"address"},{"name":"guardians_","type":"address[]","internalType":"address[]"}],"stateMutability":"nonpayable"},{"type":"function","name":"DIGEST_SEED","inputs":[],"outputs":[{"name":"","type":"bytes","internalType":"bytes"}],"stateMutability":"view"},{"type":"function","name":"guardians","inputs":[{"name":"","type":"address","internalType":"address"}],"outputs":[{"name":"","type":"bool","internalType":"bool"}],"stateMutability":"view"},{"type":"function","name":"hashProposal","inputs":[{"name":"proposal","type":"tuple","internalType":"struct BodyGuard.Proposal","components":[{"name":"expiredAt","type":"uint32","internalType":"uint32"},{"name":"gas","type":"uint24","internalType":"uint24"},{"name":"nonce","type":"uint8","internalType":"uint8"},{"name":"data","type":"bytes","internalType":"bytes"}]}],"outputs":[{"name":"","type":"bytes32","internalType":"bytes32"}],"stateMutability":"view"},{"type":"function","name":"propose","inputs":[{"name":"proposal","type":"tuple","internalType":"struct BodyGuard.Proposal","components":[{"name":"expiredAt","type":"uint32","internalType":"uint32"},{"name":"gas","type":"uint24","internalType":"uint24"},{"name":"nonce","type":"uint8","internalType":"uint8"},{"name":"data","type":"bytes","internalType":"bytes"}]},{"name":"signatures","type":"bytes[]","internalType":"bytes[]"}],"outputs":[],"stateMutability":"nonpayable"},{"type":"function","name":"recoverSigner","inputs":[{"name":"digest","type":"bytes32","internalType":"bytes32"},{"name":"signature","type":"bytes","internalType":"bytes"}],"outputs":[{"name":"","type":"address","internalType":"address"}],"stateMutability":"pure"},{"type":"function","name":"treasury","inputs":[],"outputs":[{"name":"","type":"address","internalType":"address"}],"stateMutability":"view"},{"type":"function","name":"validateSignatures","inputs":[{"name":"digest","type":"bytes32","internalType":"bytes32"},{"name":"signaturesSortedBySigners","type":"bytes[]","internalType":"bytes[]"}],"outputs":[{"name":"","type":"bool","internalType":"bool"}],"stateMutability":"view"}],"bytecode":{"object":"0x60806040526000805461ffff60a01b1916905534801561001e57600080fd5b50604051610d39380380610d3983398101604081905261003d91610168565b6000546001600160a01b03161561009a5760405162461bcd60e51b815260206004820152601360248201527f416c726561647920696e697469616c697a656400000000000000000000000000604482015260640160405180910390fd5b600080546001600160a01b0319166001600160a01b0384161781555b81518110156101105760018060008484815181106100d6576100d661024b565b6020908102919091018101516001600160a01b03168252810191909152604001600020805460ff19169115159190911790556001016100b6565b50516000805460ff909216600160a81b0260ff60a81b1990921691909117905550610261565b80516001600160a01b038116811461014d57600080fd5b919050565b634e487b7160e01b600052604160045260246000fd5b6000806040838503121561017b57600080fd5b61018483610136565b60208401519092506001600160401b038111156101a057600080fd5b8301601f810185136101b157600080fd5b80516001600160401b038111156101ca576101ca610152565b604051600582901b90603f8201601f191681016001600160401b03811182821017156101f8576101f8610152565b60405291825260208184018101929081018884111561021657600080fd5b6020850194505b8385101561023c5761022e85610136565b81526020948501940161021d565b50809450505050509250929050565b634e487b7160e01b600052603260045260246000fd5b610ac9806102706000396000f3fe608060405234801561001057600080fd5b506004361061007d5760003560e01c806361d027b31161005b57806361d027b3146100ee57806397aba7f914610119578063af45cca71461012c578063d85170381461016157600080fd5b80630633b14a1461008257806310347b75146100ba57806314437701146100cd575b600080fd5b6100a56100903660046105a3565b60016020526000908152604090205460ff1681565b60405190151581526020015b60405180910390f35b6100a56100c836600461075b565b610176565b6100e06100db366004610848565b61025b565b6040519081526020016100b1565b600054610101906001600160a01b031681565b6040516001600160a01b0390911681526020016100b1565b610101610127366004610885565b6102c9565b61015460405180604001604052806009815260200168010108072f6ca4030160bf1b81525081565b6040516100b191906108e6565b61017461016f366004610919565b610341565b005b600080805b835181101561024e5760006101a98686848151811061019c5761019c61096c565b60200260200101516102c9565b6001600160a01b03811660009081526001602052604090205490915060ff1661020a5760405162461bcd60e51b815260206004820152600e60248201526d2737ba10309033bab0b93234b0b760911b60448201526064015b60405180910390fd5b600085838151811061021e5761021e61096c565b6020026020010151805190602001209050838111610243576000945050505050610255565b92505060010161017b565b5060019150505b92915050565b8051602080830151606084015160408086015160008054835180850185526009815268010108072f6ca4030160bf1b81890152935191976102ac97909695946001600160a01b039092169201610982565b604051602081830303815290604052805190602001209050919050565b6020818101516040808401516060808601518351600080825296810180865289905290861a9381018490529081018490526080810182905290919060019060a0016020604051602081039080840390855afa15801561032c573d6000803e3d6000fd5b5050604051601f190151979650505050505050565b42826000015163ffffffff16116103845760405162461bcd60e51b8152602060048201526007602482015266115e1c1a5c995960ca1b6044820152606401610201565b600054604083015160ff600160a01b90920482169116116103d75760405162461bcd60e51b815260206004820152600d60248201526c496e76616c6964206e6f6e636560981b6044820152606401610201565b60008054338252600160205260409091205460ff600160a81b909204821691161561040a578061040681610a27565b9150505b81518111156104535760405162461bcd60e51b81526020600482015260156024820152744e6f7420656e6f756768207369676e61747572657360581b6044820152606401610201565b61046561045f8461025b565b83610176565b6104a65760405162461bcd60e51b8152602060048201526012602482015271496e76616c6964207369676e61747572657360701b6044820152606401610201565b60408301516000805460ff909216600160a01b0260ff60a01b19909216919091179055602083015162ffffff16805a10156104df575a90505b600080546001600160a01b0316600a6104f9846009610a3e565b6105039190610a55565b86606001516040516105159190610a77565b60006040518083038160008787f1925050503d8060008114610553576040519150601f19603f3d011682016040523d82523d6000602084013e610558565b606091505b505090508061059c5760405162461bcd60e51b815260206004820152601060248201526f115e1958dd5d1a5bdb8819985a5b195960821b6044820152606401610201565b5050505050565b6000602082840312156105b557600080fd5b81356001600160a01b03811681146105cc57600080fd5b9392505050565b634e487b7160e01b600052604160045260246000fd5b6040516080810167ffffffffffffffff8111828210171561060c5761060c6105d3565b60405290565b604051601f8201601f1916810167ffffffffffffffff8111828210171561063b5761063b6105d3565b604052919050565b600082601f83011261065457600080fd5b813567ffffffffffffffff81111561066e5761066e6105d3565b610681601f8201601f1916602001610612565b81815284602083860101111561069657600080fd5b816020850160208301376000918101602001919091529392505050565b600082601f8301126106c457600080fd5b813567ffffffffffffffff8111156106de576106de6105d3565b8060051b6106ee60208201610612565b9182526020818501810192908101908684111561070a57600080fd5b6020860192505b8383101561075157823567ffffffffffffffff81111561073057600080fd5b61073f886020838a0101610643565b83525060209283019290910190610711565b9695505050505050565b6000806040838503121561076e57600080fd5b82359150602083013567ffffffffffffffff81111561078c57600080fd5b610798858286016106b3565b9150509250929050565b803560ff811681146107b357600080fd5b919050565b6000608082840312156107ca57600080fd5b6107d26105e9565b9050813563ffffffff811681146107e857600080fd5b8152602082013562ffffff8116811461080057600080fd5b6020820152610811604083016107a2565b6040820152606082013567ffffffffffffffff81111561083057600080fd5b61083c84828501610643565b60608301525092915050565b60006020828403121561085a57600080fd5b813567ffffffffffffffff81111561087157600080fd5b61087d848285016107b8565b949350505050565b6000806040838503121561089857600080fd5b82359150602083013567ffffffffffffffff8111156108b657600080fd5b61079885828601610643565b60005b838110156108dd5781810151838201526020016108c5565b50506000910152565b60208152600082518060208401526109058160408501602087016108c2565b601f01601f19169190910160400192915050565b6000806040838503121561092c57600080fd5b823567ffffffffffffffff81111561094357600080fd5b61094f858286016107b8565b925050602083013567ffffffffffffffff81111561078c57600080fd5b634e487b7160e01b600052603260045260246000fd5b60e087901b6001600160e01b031916815260e886901b6001600160e81b031916600482015284516000906109bd816007850160208a016108c2565b60f886901b6001600160f81b031916600791840191820152606085901b6bffffffffffffffffffffffff191660088201528351610a0181601c8401602088016108c2565b01601c0198975050505050505050565b634e487b7160e01b600052601160045260246000fd5b600081610a3657610a36610a11565b506000190190565b808202811582820484141761025557610255610a11565b600082610a7257634e487b7160e01b600052601260045260246000fd5b500490565b60008251610a898184602087016108c2565b919091019291505056fea26469706673582212205a68f88e08c59bb10b47b94c6339282f90673e0e79c79a833ea82280392ed1dc64736f6c634300081a0033","linkReferences":{}},"methodIdentifiers":{"DIGEST_SEED()":"af45cca7","guardians(address)":"0633b14a","hashProposal((uint32,uint24,uint8,bytes))":"14437701","propose((uint32,uint24,uint8,bytes),bytes[])":"d8517038","recoverSigner(bytes32,bytes)":"97aba7f9","treasury()":"61d027b3","validateSignatures(bytes32,bytes[])":"10347b75"},"id":16}