{"abi":[{"type":"receive","stateMutability":"payable"},{"type":"function","name":"MIN_TIME_BETWEEN_SALARY","inputs":[],"outputs":[{"name":"","type":"uint256","internalType":"uint256"}],"stateMutability":"view"},{"type":"function","name":"bodyGuard","inputs":[],"outputs":[{"name":"","type":"address","internalType":"address"}],"stateMutability":"view"},{"type":"function","name":"doom","inputs":[],"outputs":[],"stateMutability":"nonpayable"},{"type":"function","name":"gistCartelDismiss","inputs":[],"outputs":[],"stateMutability":"nonpayable"},{"type":"function","name":"initialize","inputs":[{"name":"bodyGuard_","type":"address","internalType":"address"}],"outputs":[],"stateMutability":"nonpayable"},{"type":"function","name":"lastTimeSalaryPaid","inputs":[{"name":"","type":"address","internalType":"address"}],"outputs":[{"name":"","type":"uint256","internalType":"uint256"}],"stateMutability":"view"},{"type":"function","name":"salary","inputs":[],"outputs":[],"stateMutability":"nonpayable"}],"bytecode":{"object":"0x6080604052348015600f57600080fd5b506103f08061001f6000396000f3fe6080604052600436106100745760003560e01c806326b238d81161004e57806326b238d81461010f5780636635a54614610124578063837cc8cc14610139578063c4d66de81461014e57600080fd5b80630397b652146100805780630e0640ab146100975780631dad82a1146100d457600080fd5b3661007b57005b600080fd5b34801561008c57600080fd5b5061009561016e565b005b3480156100a357600080fd5b506000546100b7906001600160a01b031681565b6040516001600160a01b0390911681526020015b60405180910390f35b3480156100e057600080fd5b506101016100ef366004610363565b60016020526000908152604090205481565b6040519081526020016100cb565b34801561011b57600080fd5b50610095610206565b34801561013057600080fd5b50610101603c81565b34801561014557600080fd5b50610095610289565b34801561015a57600080fd5b50610095610169366004610363565b6102f2565b33600090815260016020526040902054603c9061018b9042610393565b10156101c95760405162461bcd60e51b81526020600482015260086024820152672a37b79039b7b7b760c11b60448201526064015b60405180910390fd5b3360008181526001602052604080822042905551655af3107a40009082818181858883f19350505050158015610203573d6000803e3d6000fd5b50565b6000546001600160a01b0316158061022857506000546001600160a01b031633145b61025d5760405162461bcd60e51b81526004016101c09060208082526004908201526357686f3f60e01b604082015260600190565b60405133904780156108fc02916000818181858888f19350505050158015610203573d6000803e3d6000fd5b6000546001600160a01b031615806102ab57506000546001600160a01b031633145b6102e05760405162461bcd60e51b81526004016101c09060208082526004908201526357686f3f60e01b604082015260600190565b600080546001600160a01b0319169055565b6000546001600160a01b0316156103415760405162461bcd60e51b8152602060048201526013602482015272105b1c9958591e481a5b9a5d1a585b1a5e9959606a1b60448201526064016101c0565b600080546001600160a01b0319166001600160a01b0392909216919091179055565b60006020828403121561037557600080fd5b81356001600160a01b038116811461038c57600080fd5b9392505050565b818103818111156103b457634e487b7160e01b600052601160045260246000fd5b9291505056fea26469706673582212203b410c4206ba3a88e281ffc58a3233e72323f58be0cb3da7853288f4c548a11d64736f6c634300081a0033","linkReferences":{}},"methodIdentifiers":{"MIN_TIME_BETWEEN_SALARY()":"6635a546","bodyGuard()":"0e0640ab","doom()":"26b238d8","gistCartelDismiss()":"837cc8cc","initialize(address)":"c4d66de8","lastTimeSalaryPaid(address)":"1dad82a1","salary()":"0397b652"},"id":16}