{"abi":[{"type":"constructor","inputs":[{"name":"_curvePool","type":"address","internalType":"address"},{"name":"_idx","type":"uint256","internalType":"uint256"},{"name":"anchor","type":"uint256","internalType":"uint256"}],"stateMutability":"nonpayable"},{"type":"function","name":"curvePool","inputs":[],"outputs":[{"name":"","type":"address","internalType":"address"}],"stateMutability":"view"},{"type":"function","name":"getAssetPrice","inputs":[{"name":"_assetId","type":"uint256","internalType":"uint256"}],"outputs":[{"name":"","type":"uint256","internalType":"uint256"}],"stateMutability":"view"},{"type":"function","name":"getSpotPrice","inputs":[],"outputs":[{"name":"","type":"uint256","internalType":"uint256"}],"stateMutability":"view"},{"type":"function","name":"idx","inputs":[],"outputs":[{"name":"","type":"uint256","internalType":"uint256"}],"stateMutability":"view"}],"bytecode":{"object":"0x608060405234801561000f575f80fd5b5060405161049c38038061049c83398101604081905261002e9161020e565b5f80546001600160a01b0319166001600160a01b0385169081178255604051636872765360e01b815260048101859052839190636872765390602401602060405180830381865afa158015610085573d5f803e3d5ffd5b505050506040513d601f19601f820116820180604052508101906100a9919061024d565b111561012a575f54604051636872765360e01b81526004810185905283916001600160a01b031690636872765390602401602060405180830381865afa1580156100f5573d5f803e3d5ffd5b505050506040513d601f19601f82011682018060405250810190610119919061024d565b6101239190610264565b90506101a1565b5f54604051636872765360e01b8152600481018590526001600160a01b0390911690636872765390602401602060405180830381865afa158015610170573d5f803e3d5ffd5b505050506040513d601f19601f82011682018060405250810190610194919061024d565b61019e9083610264565b90505b6305f5e1008111156102055760405162461bcd60e51b8152602060048201526024808201527f5072696365206f7261636c6520686173206265656e206d616e6970756c6174656044820152630c84074560e31b606482015260840160405180910390fd5b50505050610289565b5f805f60608486031215610220575f80fd5b83516001600160a01b0381168114610236575f80fd5b602085015160409095015190969495509392505050565b5f6020828403121561025d575f80fd5b5051919050565b8181038181111561028357634e487b7160e01b5f52601160045260245ffd5b92915050565b610206806102965f395ff3fe608060405234801561000f575f80fd5b506004361061004a575f3560e01c8063218751b21461004e5780635e694cf51461007d578063795dbede1461009e578063dc76fabc146100a7575b5f80fd5b5f54610060906001600160a01b031681565b6040516001600160a01b0390911681526020015b60405180910390f35b61009061008b3660046101a2565b6100af565b604051908152602001610074565b61009060015481565b610090610129565b5f8054600154604051636872765360e01b81526001600160a01b03909216916368727653916100e49160040190815260200190565b602060405180830381865afa1580156100ff573d5f803e3d5ffd5b505050506040513d601f19601f8201168201806040525081019061012391906101b9565b92915050565b5f8054600154604051631c98d5a960e11b81526001600160a01b0390921691633931ab529161015e9160040190815260200190565b602060405180830381865afa158015610179573d5f803e3d5ffd5b505050506040513d601f19601f8201168201806040525081019061019d91906101b9565b905090565b5f602082840312156101b2575f80fd5b5035919050565b5f602082840312156101c9575f80fd5b505191905056fea2646970667358221220a74211c0475138e8bea1b0f1c36b08e2bd67f44d2d7b6fdf0950f5e3599779cf64736f6c634300081a0033","linkReferences":{}},"methodIdentifiers":{"curvePool()":"218751b2","getAssetPrice(uint256)":"5e694cf5","getSpotPrice()":"dc76fabc","idx()":"795dbede"},"id":26}