{"abi":[{"type":"constructor","inputs":[{"name":"name","type":"string","internalType":"string"},{"name":"symbol","type":"string","internalType":"string"},{"name":"_decimals","type":"uint8","internalType":"uint8"}],"stateMutability":"nonpayable"},{"type":"function","name":"allowance","inputs":[{"name":"owner","type":"address","internalType":"address"},{"name":"spender","type":"address","internalType":"address"}],"outputs":[{"name":"","type":"uint256","internalType":"uint256"}],"stateMutability":"view"},{"type":"function","name":"approve","inputs":[{"name":"spender","type":"address","internalType":"address"},{"name":"value","type":"uint256","internalType":"uint256"}],"outputs":[{"name":"","type":"bool","internalType":"bool"}],"stateMutability":"nonpayable"},{"type":"function","name":"balanceOf","inputs":[{"name":"account","type":"address","internalType":"address"}],"outputs":[{"name":"","type":"uint256","internalType":"uint256"}],"stateMutability":"view"},{"type":"function","name":"decimals","inputs":[],"outputs":[{"name":"","type":"uint8","internalType":"uint8"}],"stateMutability":"view"},{"type":"function","name":"decimalsInternal","inputs":[],"outputs":[{"name":"","type":"uint8","internalType":"uint8"}],"stateMutability":"view"},{"type":"function","name":"name","inputs":[],"outputs":[{"name":"","type":"string","internalType":"string"}],"stateMutability":"view"},{"type":"function","name":"symbol","inputs":[],"outputs":[{"name":"","type":"string","internalType":"string"}],"stateMutability":"view"},{"type":"function","name":"totalSupply","inputs":[],"outputs":[{"name":"","type":"uint256","internalType":"uint256"}],"stateMutability":"view"},{"type":"function","name":"transfer","inputs":[{"name":"to","type":"address","internalType":"address"},{"name":"value","type":"uint256","internalType":"uint256"}],"outputs":[{"name":"","type":"bool","internalType":"bool"}],"stateMutability":"nonpayable"},{"type":"function","name":"transferFrom","inputs":[{"name":"from","type":"address","internalType":"address"},{"name":"to","type":"address","internalType":"address"},{"name":"value","type":"uint256","internalType":"uint256"}],"outputs":[{"name":"","type":"bool","internalType":"bool"}],"stateMutability":"nonpayable"},{"type":"event","name":"Approval","inputs":[{"name":"owner","type":"address","indexed":true,"internalType":"address"},{"name":"spender","type":"address","indexed":true,"internalType":"address"},{"name":"value","type":"uint256","indexed":false,"internalType":"uint256"}],"anonymous":false},{"type":"event","name":"Transfer","inputs":[{"name":"from","type":"address","indexed":true,"internalType":"address"},{"name":"to","type":"address","indexed":true,"internalType":"address"},{"name":"value","type":"uint256","indexed":false,"internalType":"uint256"}],"anonymous":false},{"type":"error","name":"ERC20InsufficientAllowance","inputs":[{"name":"spender","type":"address","internalType":"address"},{"name":"allowance","type":"uint256","internalType":"uint256"},{"name":"needed","type":"uint256","internalType":"uint256"}]},{"type":"error","name":"ERC20InsufficientBalance","inputs":[{"name":"sender","type":"address","internalType":"address"},{"name":"balance","type":"uint256","internalType":"uint256"},{"name":"needed","type":"uint256","internalType":"uint256"}]},{"type":"error","name":"ERC20InvalidApprover","inputs":[{"name":"approver","type":"address","internalType":"address"}]},{"type":"error","name":"ERC20InvalidReceiver","inputs":[{"name":"receiver","type":"address","internalType":"address"}]},{"type":"error","name":"ERC20InvalidSender","inputs":[{"name":"sender","type":"address","internalType":"address"}]},{"type":"error","name":"ERC20InvalidSpender","inputs":[{"name":"spender","type":"address","internalType":"address"}]}],"bytecode":{"object":"0x608060405234801561000f575f80fd5b50604051610c90380380610c9083398101604081905261002e9161028b565b8282600361003c838261038c565b506004610049828261038c565b50505061006f3382600a61005d919061053f565b61006a90620f4240610554565b61008b565b6005805460ff191660ff929092169190911790555061057e9050565b6001600160a01b0382166100b95760405163ec442f0560e01b81525f60048201526024015b60405180910390fd5b6100c45f83836100c8565b5050565b6001600160a01b0383166100f2578060025f8282546100e7919061056b565b909155506101629050565b6001600160a01b0383165f90815260208190526040902054818110156101445760405163391434e360e21b81526001600160a01b038516600482015260248101829052604481018390526064016100b0565b6001600160a01b0384165f9081526020819052604090209082900390555b6001600160a01b03821661017e5760028054829003905561019c565b6001600160a01b0382165f9081526020819052604090208054820190555b816001600160a01b0316836001600160a01b03167fddf252ad1be2c89b69c2b068fc378daa952ba7f163c4a11628f55a4df523b3ef836040516101e191815260200190565b60405180910390a3505050565b634e487b7160e01b5f52604160045260245ffd5b5f82601f830112610211575f80fd5b81516001600160401b0381111561022a5761022a6101ee565b604051601f8201601f19908116603f011681016001600160401b0381118282101715610258576102586101ee565b60405281815283820160200185101561026f575f80fd5b8160208501602083015e5f918101602001919091529392505050565b5f805f6060848603121561029d575f80fd5b83516001600160401b038111156102b2575f80fd5b6102be86828701610202565b602086015190945090506001600160401b038111156102db575f80fd5b6102e786828701610202565b925050604084015160ff811681146102fd575f80fd5b809150509250925092565b600181811c9082168061031c57607f821691505b60208210810361033a57634e487b7160e01b5f52602260045260245ffd5b50919050565b601f82111561038757805f5260205f20601f840160051c810160208510156103655750805b601f840160051c820191505b81811015610384575f8155600101610371565b50505b505050565b81516001600160401b038111156103a5576103a56101ee565b6103b9816103b38454610308565b84610340565b6020601f8211600181146103eb575f83156103d45750848201515b5f19600385901b1c1916600184901b178455610384565b5f84815260208120601f198516915b8281101561041a57878501518255602094850194600190920191016103fa565b508482101561043757868401515f19600387901b60f8161c191681555b50505050600190811b01905550565b634e487b7160e01b5f52601160045260245ffd5b6001815b60018411156104955780850481111561047957610479610446565b600184161561048757908102905b60019390931c92800261045e565b935093915050565b5f826104ab57506001610539565b816104b757505f610539565b81600181146104cd57600281146104d7576104f3565b6001915050610539565b60ff8411156104e8576104e8610446565b50506001821b610539565b5060208310610133831016604e8410600b8410161715610516575081810a610539565b6105225f19848461045a565b805f190482111561053557610535610446565b0290505b92915050565b5f61054d60ff84168361049d565b9392505050565b808202811582820484141761053957610539610446565b8082018082111561053957610539610446565b6107058061058b5f395ff3fe608060405234801561000f575f80fd5b506004361061009b575f3560e01c80634511bf6b116100635780634511bf6b1461011e57806370a082311461012b57806395d89b4114610153578063a9059cbb1461015b578063dd62ed3e1461016e575f80fd5b806306fdde031461009f578063095ea7b3146100bd57806318160ddd146100e057806323b872dd146100f2578063313ce56714610105575b5f80fd5b6100a76101a6565b6040516100b49190610575565b60405180910390f35b6100d06100cb3660046105c5565b610236565b60405190151581526020016100b4565b6002545b6040519081526020016100b4565b6100d06101003660046105ed565b61024f565b60055460ff165b60405160ff90911681526020016100b4565b60055461010c9060ff1681565b6100e4610139366004610627565b6001600160a01b03165f9081526020819052604090205490565b6100a7610272565b6100d06101693660046105c5565b610281565b6100e461017c366004610647565b6001600160a01b039182165f90815260016020908152604080832093909416825291909152205490565b6060600380546101b590610678565b80601f01602080910402602001604051908101604052809291908181526020018280546101e190610678565b801561022c5780601f106102035761010080835404028352916020019161022c565b820191905f5260205f20905b81548152906001019060200180831161020f57829003601f168201915b5050505050905090565b5f3361024381858561028e565b60019150505b92915050565b5f3361025c8582856102a0565b610267858585610320565b506001949350505050565b6060600480546101b590610678565b5f33610243818585610320565b61029b838383600161037d565b505050565b6001600160a01b038381165f908152600160209081526040808320938616835292905220545f19811461031a578181101561030c57604051637dc7a0d960e11b81526001600160a01b038416600482015260248101829052604481018390526064015b60405180910390fd5b61031a84848484035f61037d565b50505050565b6001600160a01b03831661034957604051634b637e8f60e11b81525f6004820152602401610303565b6001600160a01b0382166103725760405163ec442f0560e01b81525f6004820152602401610303565b61029b83838361044f565b6001600160a01b0384166103a65760405163e602df0560e01b81525f6004820152602401610303565b6001600160a01b0383166103cf57604051634a1406b160e11b81525f6004820152602401610303565b6001600160a01b038085165f908152600160209081526040808320938716835292905220829055801561031a57826001600160a01b0316846001600160a01b03167f8c5be1e5ebec7d5bd14f71427d1e84f3dd0314c0f7b2291e5b200ac8c7c3b9258460405161044191815260200190565b60405180910390a350505050565b6001600160a01b038316610479578060025f82825461046e91906106b0565b909155506104e99050565b6001600160a01b0383165f90815260208190526040902054818110156104cb5760405163391434e360e21b81526001600160a01b03851660048201526024810182905260448101839052606401610303565b6001600160a01b0384165f9081526020819052604090209082900390555b6001600160a01b03821661050557600280548290039055610523565b6001600160a01b0382165f9081526020819052604090208054820190555b816001600160a01b0316836001600160a01b03167fddf252ad1be2c89b69c2b068fc378daa952ba7f163c4a11628f55a4df523b3ef8360405161056891815260200190565b60405180910390a3505050565b602081525f82518060208401528060208501604085015e5f604082850101526040601f19601f83011684010191505092915050565b80356001600160a01b03811681146105c0575f80fd5b919050565b5f80604083850312156105d6575f80fd5b6105df836105aa565b946020939093013593505050565b5f805f606084860312156105ff575f80fd5b610608846105aa565b9250610616602085016105aa565b929592945050506040919091013590565b5f60208284031215610637575f80fd5b610640826105aa565b9392505050565b5f8060408385031215610658575f80fd5b610661836105aa565b915061066f602084016105aa565b90509250929050565b600181811c9082168061068c57607f821691505b6020821081036106aa57634e487b7160e01b5f52602260045260245ffd5b50919050565b8082018082111561024957634e487b7160e01b5f52601160045260245ffdfea2646970667358221220872c89e79beb3bb5dbc54217b16ace7b40134a6256053042c97c6b7fac1ca96b64736f6c634300081a0033","linkReferences":{}},"methodIdentifiers":{"allowance(address,address)":"dd62ed3e","approve(address,uint256)":"095ea7b3","balanceOf(address)":"70a08231","decimals()":"313ce567","decimalsInternal()":"4511bf6b","name()":"06fdde03","symbol()":"95d89b41","totalSupply()":"18160ddd","transfer(address,uint256)":"a9059cbb","transferFrom(address,address,uint256)":"23b872dd"},"id":26}