{"abi":[{"type":"constructor","inputs":[{"name":"_price","type":"uint256","internalType":"uint256"}],"stateMutability":"nonpayable"},{"type":"function","name":"getAssetPrice","inputs":[{"name":"_assetId","type":"uint256","internalType":"uint256"}],"outputs":[{"name":"","type":"uint256","internalType":"uint256"}],"stateMutability":"view"},{"type":"function","name":"owner","inputs":[],"outputs":[{"name":"","type":"address","internalType":"address"}],"stateMutability":"view"},{"type":"function","name":"price","inputs":[],"outputs":[{"name":"","type":"uint256","internalType":"uint256"}],"stateMutability":"view"},{"type":"function","name":"renounceOwnership","inputs":[],"outputs":[],"stateMutability":"nonpayable"},{"type":"function","name":"setPrice","inputs":[{"name":"_price","type":"uint256","internalType":"uint256"}],"outputs":[],"stateMutability":"nonpayable"},{"type":"function","name":"transferOwnership","inputs":[{"name":"newOwner","type":"address","internalType":"address"}],"outputs":[],"stateMutability":"nonpayable"},{"type":"event","name":"OwnershipTransferred","inputs":[{"name":"previousOwner","type":"address","indexed":true,"internalType":"address"},{"name":"newOwner","type":"address","indexed":true,"internalType":"address"}],"anonymous":false},{"type":"error","name":"OwnableInvalidOwner","inputs":[{"name":"owner","type":"address","internalType":"address"}]},{"type":"error","name":"OwnableUnauthorizedAccount","inputs":[{"name":"account","type":"address","internalType":"address"}]}],"bytecode":{"object":"0x6080604052348015600e575f80fd5b50604051610306380380610306833981016040819052602b9160ad565b3380604f57604051631e4fbdf760e01b81525f600482015260240160405180910390fd5b605681605e565b5060015560c3565b5f80546001600160a01b038381166001600160a01b0319831681178455604051919092169283917f8be0079c531659141344cd1fd0a4f28419497f9722a3daafe3b4186f6b6457e09190a35050565b5f6020828403121560bc575f80fd5b5051919050565b610236806100d05f395ff3fe608060405234801561000f575f80fd5b5060043610610060575f3560e01c80635e694cf514610064578063715018a61461008c5780638da5cb5b1461009657806391b7f5ed146100b0578063a035b1fe146100c3578063f2fde38b146100cc575b5f80fd5b6100796100723660046101bc565b5060015490565b6040519081526020015b60405180910390f35b6100946100df565b005b5f546040516001600160a01b039091168152602001610083565b6100946100be3660046101bc565b6100f2565b61007960015481565b6100946100da3660046101d3565b6100ff565b6100e7610141565b6100f05f61016d565b565b6100fa610141565b600155565b610107610141565b6001600160a01b03811661013557604051631e4fbdf760e01b81525f60048201526024015b60405180910390fd5b61013e8161016d565b50565b5f546001600160a01b031633146100f05760405163118cdaa760e01b815233600482015260240161012c565b5f80546001600160a01b038381166001600160a01b0319831681178455604051919092169283917f8be0079c531659141344cd1fd0a4f28419497f9722a3daafe3b4186f6b6457e09190a35050565b5f602082840312156101cc575f80fd5b5035919050565b5f602082840312156101e3575f80fd5b81356001600160a01b03811681146101f9575f80fd5b939250505056fea26469706673582212203f94f6ce6350e3f19a6587171076c2321362d5e90e10ddbe0646e5a604a4033764736f6c634300081a0033","linkReferences":{}},"methodIdentifiers":{"getAssetPrice(uint256)":"5e694cf5","owner()":"8da5cb5b","price()":"a035b1fe","renounceOwnership()":"715018a6","setPrice(uint256)":"91b7f5ed","transferOwnership(address)":"f2fde38b"},"id":26}