{"abi":[{"type":"constructor","inputs":[],"stateMutability":"nonpayable"},{"type":"function","name":"BAD_DEBT_RATIO","inputs":[],"outputs":[{"name":"","type":"uint256","internalType":"uint256"}],"stateMutability":"view"},{"type":"function","name":"LIQUIDATION_CLOSE_FACTOR","inputs":[],"outputs":[{"name":"","type":"uint256","internalType":"uint256"}],"stateMutability":"view"},{"type":"function","name":"MAX_LOOPS","inputs":[],"outputs":[{"name":"","type":"uint256","internalType":"uint256"}],"stateMutability":"view"},{"type":"function","name":"PRECISION","inputs":[],"outputs":[{"name":"","type":"uint256","internalType":"uint256"}],"stateMutability":"view"},{"type":"function","name":"addAsset","inputs":[{"name":"_token","type":"address","internalType":"address"},{"name":"_baseRate","type":"uint256","internalType":"uint256"}],"outputs":[],"stateMutability":"nonpayable"},{"type":"function","name":"assetCount","inputs":[],"outputs":[{"name":"","type":"uint256","internalType":"uint256"}],"stateMutability":"view"},{"type":"function","name":"assets","inputs":[{"name":"","type":"uint256","internalType":"uint256"}],"outputs":[{"name":"token","type":"address","internalType":"contract IERC20"},{"name":"totalDeposited","type":"uint256","internalType":"uint256"},{"name":"totalBorrowed","type":"uint256","internalType":"uint256"},{"name":"baseRate","type":"uint256","internalType":"uint256"}],"stateMutability":"view"},{"type":"function","name":"borrow","inputs":[{"name":"_assetId","type":"uint256","internalType":"uint256"},{"name":"_amount","type":"uint256","internalType":"uint256"}],"outputs":[],"stateMutability":"nonpayable"},{"type":"function","name":"calculateHealthFactor","inputs":[{"name":"_user","type":"address","internalType":"address"}],"outputs":[{"name":"","type":"uint256","internalType":"uint256"}],"stateMutability":"view"},{"type":"function","name":"deposit","inputs":[{"name":"_assetId","type":"uint256","internalType":"uint256"},{"name":"_amount","type":"uint256","internalType":"uint256"}],"outputs":[],"stateMutability":"nonpayable"},{"type":"function","name":"getAssetPrice","inputs":[{"name":"_assetId","type":"uint256","internalType":"uint256"}],"outputs":[{"name":"","type":"uint256","internalType":"uint256"}],"stateMutability":"view"},{"type":"function","name":"getInterestRate","inputs":[{"name":"_assetId","type":"uint256","internalType":"uint256"}],"outputs":[{"name":"","type":"uint256","internalType":"uint256"}],"stateMutability":"view"},{"type":"function","name":"liquidate","inputs":[{"name":"_borrower","type":"address","internalType":"address"},{"name":"_assetId","type":"uint256","internalType":"uint256"},{"name":"_amount","type":"uint256","internalType":"uint256"},{"name":"_collateralAssetId","type":"uint256","internalType":"uint256"}],"outputs":[],"stateMutability":"nonpayable"},{"type":"function","name":"owner","inputs":[],"outputs":[{"name":"","type":"address","internalType":"address"}],"stateMutability":"view"},{"type":"function","name":"priceOracles","inputs":[{"name":"","type":"uint256","internalType":"uint256"}],"outputs":[{"name":"","type":"address","internalType":"address"}],"stateMutability":"view"},{"type":"function","name":"renounceOwnership","inputs":[],"outputs":[],"stateMutability":"nonpayable"},{"type":"function","name":"repay","inputs":[{"name":"_assetId","type":"uint256","internalType":"uint256"},{"name":"_amount","type":"uint256","internalType":"uint256"}],"outputs":[],"stateMutability":"nonpayable"},{"type":"function","name":"setPriceOracle","inputs":[{"name":"_assetId","type":"uint256","internalType":"uint256"},{"name":"_priceOracle","type":"address","internalType":"address"}],"outputs":[],"stateMutability":"nonpayable"},{"type":"function","name":"transferOwnership","inputs":[{"name":"newOwner","type":"address","internalType":"address"}],"outputs":[],"stateMutability":"nonpayable"},{"type":"function","name":"withdraw","inputs":[{"name":"_assetId","type":"uint256","internalType":"uint256"},{"name":"_amount","type":"uint256","internalType":"uint256"}],"outputs":[],"stateMutability":"nonpayable"},{"type":"event","name":"AssetAdded","inputs":[{"name":"assetId","type":"uint256","indexed":true,"internalType":"uint256"},{"name":"token","type":"address","indexed":true,"internalType":"address"}],"anonymous":false},{"type":"event","name":"Borrow","inputs":[{"name":"user","type":"address","indexed":true,"internalType":"address"},{"name":"assetId","type":"uint256","indexed":true,"internalType":"uint256"},{"name":"amount","type":"uint256","indexed":false,"internalType":"uint256"}],"anonymous":false},{"type":"event","name":"Deposit","inputs":[{"name":"user","type":"address","indexed":true,"internalType":"address"},{"name":"assetId","type":"uint256","indexed":true,"internalType":"uint256"},{"name":"amount","type":"uint256","indexed":false,"internalType":"uint256"}],"anonymous":false},{"type":"event","name":"Liquidate","inputs":[{"name":"liquidator","type":"address","indexed":true,"internalType":"address"},{"name":"borrower","type":"address","indexed":true,"internalType":"address"},{"name":"assetId","type":"uint256","indexed":true,"internalType":"uint256"},{"name":"amount","type":"uint256","indexed":false,"internalType":"uint256"},{"name":"collateralAssetId","type":"uint256","indexed":false,"internalType":"uint256"},{"name":"collateralAmount","type":"uint256","indexed":false,"internalType":"uint256"}],"anonymous":false},{"type":"event","name":"OwnershipTransferred","inputs":[{"name":"previousOwner","type":"address","indexed":true,"internalType":"address"},{"name":"newOwner","type":"address","indexed":true,"internalType":"address"}],"anonymous":false},{"type":"event","name":"Repay","inputs":[{"name":"user","type":"address","indexed":true,"internalType":"address"},{"name":"assetId","type":"uint256","indexed":true,"internalType":"uint256"},{"name":"amount","type":"uint256","indexed":false,"internalType":"uint256"}],"anonymous":false},{"type":"event","name":"Withdraw","inputs":[{"name":"user","type":"address","indexed":true,"internalType":"address"},{"name":"assetId","type":"uint256","indexed":true,"internalType":"uint256"},{"name":"amount","type":"uint256","indexed":false,"internalType":"uint256"}],"anonymous":false},{"type":"error","name":"OwnableInvalidOwner","inputs":[{"name":"owner","type":"address","internalType":"address"}]},{"type":"error","name":"OwnableUnauthorizedAccount","inputs":[{"name":"account","type":"address","internalType":"address"}]},{"type":"error","name":"ReentrancyGuardReentrantCall","inputs":[]}],"bytecode":{"object":"0x6080604052348015600e575f80fd5b5060015f553380603757604051631e4fbdf760e01b81525f600482015260240160405180910390fd5b603e816043565b506094565b600180546001600160a01b038381166001600160a01b0319831681179093556040519116919082907f8be0079c531659141344cd1fd0a4f28419497f9722a3daafe3b4186f6b6457e0905f90a35050565b6115cf806100a15f395ff3fe608060405234801561000f575f80fd5b5060043610610127575f3560e01c80639ce625f7116100a9578063d8aed1451161006e578063d8aed145146102ca578063e2bbb158146102dd578063eafe7a74146102f0578063f2fde38b146102f9578063ff2891b71461030c575f80fd5b80639ce625f714610223578063a0e17e1f14610236578063aaf5eb681461023e578063b47ab19e1461024d578063cf35bdd014610260575f80fd5b80635e694cf5116100ef5780635e694cf5146101d157806366a6a4bd146101e4578063715018a6146101f75780638a1d3446146101ff5780638da5cb5b14610212575f80fd5b80630c196a741461012b5780630ecbcdab146101615780632d239dbb1461017657806337a2eb71146101b6578063441a3e70146101be575b5f80fd5b61014e610139366004611361565b5f908152600360208190526040909120015490565b6040519081526020015b60405180910390f35b61017461016f366004611378565b610314565b005b61019e610184366004611361565b60056020525f90815260409020546001600160a01b031681565b6040516001600160a01b039091168152602001610158565b61014e600a81565b6101746101cc366004611378565b610524565b61014e6101df366004611361565b610768565b6101746101f23660046113b3565b610807565b6101746108b8565b61017461020d3660046113db565b6108cb565b6001546001600160a01b031661019e565b61014e610231366004611411565b610d45565b61014e606e81565b61014e670de0b6b3a764000081565b61017461025b36600461142a565b610e21565b6102a061026e366004611361565b600360208190525f918252604090912080546001820154600283015492909301546001600160a01b0390911692919084565b604080516001600160a01b0390951685526020850193909352918301526060820152608001610158565b6101746102d8366004611378565b610e56565b6101746102eb366004611378565b610fe0565b61014e60045481565b610174610307366004611411565b61115c565b61014e606481565b61031c611199565b60045482106103465760405162461bcd60e51b815260040161033d90611454565b60405180910390fd5b5f81116103655760405162461bcd60e51b815260040161033d9061147b565b61036f33836111c1565b335f9081526002602090815260408083208584526003835281842060018201909352908320549092906103a39085906114c6565b5f868152600185016020526040812082905560028401805492935086929091906103ce9084906114c6565b909155505f90506103de33610d45565b9050670de0b6b3a764000081101561044e5760405162461bcd60e51b815260206004820152602d60248201527f426f72726f7720776f756c6420726573756c7420696e20756e646572636f6c6c60448201526c30ba32b930b634bd30ba34b7b760991b606482015260840161033d565b825460405163a9059cbb60e01b8152336004820152602481018790526001600160a01b039091169063a9059cbb906044016020604051808303815f875af115801561049b573d5f803e3d5ffd5b505050506040513d601f19601f820116820180604052508101906104bf91906114d9565b6104db5760405162461bcd60e51b815260040161033d906114f8565b604051858152869033907fe1979fe4c35e0cef342fef5668e2c8e7a7e9f5d5d1ca8fee0ac6c427fa4153af906020015b60405180910390a35050505061052060015f55565b5050565b61052c611199565b600454821061054d5760405162461bcd60e51b815260040161033d90611454565b5f811161056c5760405162461bcd60e51b815260040161033d9061147b565b61057633836111c1565b335f90815260026020908152604080832085845260038352818420928190529220548311156105de5760405162461bcd60e51b8152602060048201526014602482015273496e73756666696369656e742062616c616e636560601b604482015260640161033d565b5f6105e833610d45565b9050670de0b6b3a764000081101561065c5760405162461bcd60e51b815260206004820152603160248201527f5769746864726177616c20776f756c6420726573756c7420696e20756e64657260448201527031b7b63630ba32b930b634bd30ba34b7b760791b606482015260840161033d565b5f8581526020849052604081208054869290610679908490611521565b9250508190555083826001015f8282546106939190611521565b9091555050815460405163a9059cbb60e01b8152336004820152602481018690526001600160a01b039091169063a9059cbb906044016020604051808303815f875af11580156106e5573d5f803e3d5ffd5b505050506040513d601f19601f8201168201806040525081019061070991906114d9565b6107255760405162461bcd60e51b815260040161033d906114f8565b604051848152859033907ff279e6a1f5e320cca91135676d9cb6e44ca8a08c0b88342bcdb1144f6511b5689060200160405180910390a350505061052060015f55565b5f818152600560205260408120546001600160a01b031661078a57505f919050565b5f8281526005602052604090819020549051635e694cf560e01b8152600481018490526001600160a01b0390911690635e694cf590602401602060405180830381865afa1580156107dd573d5f803e3d5ffd5b505050506040513d601f19601f820116820180604052508101906108019190611534565b92915050565b61080f6112d1565b604080516080810182526001600160a01b038481168083525f602080850182815285870183815260608701898152600480548652600394859052898620985189546001600160a01b03191698169790971788559151600188015551600287015551940193909355905492519092917fc53536963369dbfa4c398238ebb9b09fce3943a140928bd25d3052a8a9cacdaf91a360048054905f6108af8361154b565b91905055505050565b6108c06112d1565b6108c95f6112fe565b565b6108d3611199565b600454831080156108e5575060045481105b6109015760405162461bcd60e51b815260040161033d90611454565b5f82116109205760405162461bcd60e51b815260040161033d9061147b565b336001600160a01b038516036109785760405162461bcd60e51b815260206004820152601d60248201527f43616e6e6f74206c6971756964617465206f776e20706f736974696f6e000000604482015260640161033d565b8083036109c75760405162461bcd60e51b815260206004820152601b60248201527f43616e6e6f74206c69717569646174652073616d652061737365740000000000604482015260640161033d565b6109d184846111c1565b6109db84826111c1565b6001600160a01b0384165f90815260026020908152604080832086845260039092528083208484529083209192909190610a1488610d45565b9050670de0b6b3a76400008110610a6d5760405162461bcd60e51b815260206004820152601860248201527f4163636f756e74206e6f74206c6971756964617461626c650000000000000000604482015260640161033d565b5f878152600185016020526040812054606490610a8b908290611563565b610a95919061157a565b90505f610aa2888361134f565b90505f610aae88610768565b610ab78b610768565b610ac19084611563565b610acb919061157a565b5f8981526020899052604081205491925090610ae890839061134f565b90505f610af48c610768565b610afd8b610768565b610b079084611563565b610b11919061157a565b5f8b815260208b90526040902054909150831115610b43576064610b36606e83611563565b610b40919061157a565b90505b87546040516323b872dd60e01b8152336004820152306024820152604481018390526001600160a01b03909116906323b872dd906064016020604051808303815f875af1158015610b96573d5f803e3d5ffd5b505050506040513d601f19601f82011682018060405250810190610bba91906114d9565b610bd65760405162461bcd60e51b815260040161033d906114f8565b865460405163a9059cbb60e01b8152336004820152602481018490526001600160a01b039091169063a9059cbb906044016020604051808303815f875af1158015610c23573d5f803e3d5ffd5b505050506040513d601f19601f82011682018060405250810190610c4791906114d9565b610c635760405162461bcd60e51b815260040161033d906114f8565b5f8c815260018a01602052604081208054869290610c82908490611521565b90915550505f8a815260208a9052604081208054849290610ca4908490611521565b9250508190555083886002015f828254610cbe9190611521565b9250508190555081876001015f828254610cd89190611521565b909155505060408051858152602081018c90529081018390528c906001600160a01b038f169033907fdcfb2ea46125b5c04f5311ff0585da9998aa5151b11409482cd84c8ec08e82159060600160405180910390a4505050505050505050610d3f60015f55565b50505050565b5f8080805b600454811015610dea575f8181526003602090815260408083206001600160a01b0389168452600290925282209091610d8284610768565b5f85815260208490526040902054610d9a9190611563565b90505f610da685610768565b5f868152600185016020526040902054610dc09190611563565b9050610dcc82886114c6565b9650610dd881876114c6565b95505060019093019250610d4a915050565b50805f03610dfc57505f199392505050565b80610e0f670de0b6b3a764000084611563565b610e19919061157a565b949350505050565b610e296112d1565b5f9182526005602052604090912080546001600160a01b0319166001600160a01b03909216919091179055565b610e5e611199565b6004548210610e7f5760405162461bcd60e51b815260040161033d90611454565b5f8111610e9e5760405162461bcd60e51b815260040161033d9061147b565b610ea833836111c1565b335f9081526002602090815260408083208584526003835281842060018201909352908320549092610eda858361134f565b83546040516323b872dd60e01b8152336004820152306024820152604481018390529192506001600160a01b0316906323b872dd906064016020604051808303815f875af1158015610f2e573d5f803e3d5ffd5b505050506040513d601f19601f82011682018060405250810190610f5291906114d9565b610f6e5760405162461bcd60e51b815260040161033d906114f8565b5f86815260018501602052604081208054839290610f8d908490611521565b9250508190555080836002015f828254610fa79190611521565b9091555050604051818152869033907f77c6871227e5d2dec8dadd5354f78453203e22e669cd0ec4c19d9a8c5edb31d09060200161050b565b610fe8611199565b60045482106110095760405162461bcd60e51b815260040161033d90611454565b5f81116110285760405162461bcd60e51b815260040161033d9061147b565b5f8281526003602052604090819020805491516323b872dd60e01b81523360048201523060248201526044810184905290916001600160a01b0316906323b872dd906064016020604051808303815f875af1158015611089573d5f803e3d5ffd5b505050506040513d601f19601f820116820180604052508101906110ad91906114d9565b6110c95760405162461bcd60e51b815260040161033d906114f8565b6110d333846111c1565b335f908152600260209081526040808320868452909152812080548492906110fc9084906114c6565b9250508190555081816001015f82825461111691906114c6565b9091555050604051828152839033907f90890809c654f11d6e72a28fa60149770a0d11ec6c92319d6ceb2bb0a4ea1a159060200160405180910390a35061052060015f55565b6111646112d1565b6001600160a01b03811661118d57604051631e4fbdf760e01b81525f600482015260240161033d565b611196816112fe565b50565b60025f54036111bb57604051633ee5aeb560e01b815260040160405180910390fd5b60025f55565b6001600160a01b0382165f90815260026020818152604080842085855260038352818520938101909252909220544390036111fc5750505050565b5f8381526003602081815260408084209092015460028601909152908220549091906112289043611521565b90505f670de0b6b3a7640000622014808385886001015f8b81526020019081526020015f20546112589190611563565b6112629190611563565b61126c919061157a565b611276919061157a565b905080856001015f8881526020019081526020015f205f82825461129a91906114c6565b9250508190555080846002015f8282546112b491906114c6565b9091555050505f9485525050506002016020526040902043905550565b6001546001600160a01b031633146108c95760405163118cdaa760e01b815233600482015260240161033d565b600180546001600160a01b038381166001600160a01b0319831681179093556040519116919082907f8be0079c531659141344cd1fd0a4f28419497f9722a3daafe3b4186f6b6457e0905f90a35050565b5f8282188284100282185b9392505050565b5f60208284031215611371575f80fd5b5035919050565b5f8060408385031215611389575f80fd5b50508035926020909101359150565b80356001600160a01b03811681146113ae575f80fd5b919050565b5f80604083850312156113c4575f80fd5b6113cd83611398565b946020939093013593505050565b5f805f80608085870312156113ee575f80fd5b6113f785611398565b966020860135965060408601359560600135945092505050565b5f60208284031215611421575f80fd5b61135a82611398565b5f806040838503121561143b575f80fd5b8235915061144b60208401611398565b90509250929050565b6020808252600d908201526c125b9d985b1a5908185cdcd95d609a1b604082015260600190565b6020808252601d908201527f416d6f756e74206d7573742062652067726561746572207468616e2030000000604082015260600190565b634e487b7160e01b5f52601160045260245ffd5b80820180821115610801576108016114b2565b5f602082840312156114e9575f80fd5b8151801515811461135a575f80fd5b6020808252600f908201526e151c985b9cd9995c8819985a5b1959608a1b604082015260600190565b81810381811115610801576108016114b2565b5f60208284031215611544575f80fd5b5051919050565b5f6001820161155c5761155c6114b2565b5060010190565b8082028115828204841417610801576108016114b2565b5f8261159457634e487b7160e01b5f52601260045260245ffd5b50049056fea26469706673582212208dcf0eae535cef555f6e983d85b2be4d31232e3a005bbb7d4cdb438af25723ec64736f6c634300081a0033","linkReferences":{}},"methodIdentifiers":{"BAD_DEBT_RATIO()":"a0e17e1f","LIQUIDATION_CLOSE_FACTOR()":"ff2891b7","MAX_LOOPS()":"37a2eb71","PRECISION()":"aaf5eb68","addAsset(address,uint256)":"66a6a4bd","assetCount()":"eafe7a74","assets(uint256)":"cf35bdd0","borrow(uint256,uint256)":"0ecbcdab","calculateHealthFactor(address)":"9ce625f7","deposit(uint256,uint256)":"e2bbb158","getAssetPrice(uint256)":"5e694cf5","getInterestRate(uint256)":"0c196a74","liquidate(address,uint256,uint256,uint256)":"8a1d3446","owner()":"8da5cb5b","priceOracles(uint256)":"2d239dbb","renounceOwnership()":"715018a6","repay(uint256,uint256)":"d8aed145","setPriceOracle(uint256,address)":"b47ab19e","transferOwnership(address)":"f2fde38b","withdraw(uint256,uint256)":"441a3e70"},"id":26}