{"abi":[{"type":"constructor","inputs":[{"name":"treasury","type":"address","internalType":"address"}],"stateMutability":"nonpayable"},{"type":"function","name":"TREASURY","inputs":[],"outputs":[{"name":"","type":"address","internalType":"address"}],"stateMutability":"view"},{"type":"function","name":"isSolved","inputs":[],"outputs":[{"name":"","type":"bool","internalType":"bool"}],"stateMutability":"view"}],"bytecode":{"object":"0x60a0604052348015600f57600080fd5b50604051610170380380610170833981016040819052602c91603c565b6001600160a01b0316608052606a565b600060208284031215604d57600080fd5b81516001600160a01b0381168114606357600080fd5b9392505050565b60805160e861008860003960008181603b01526087015260e86000f3fe6080604052348015600f57600080fd5b506004361060325760003560e01c80632d2c556514603757806364d98f6e14607a575b600080fd5b605d7f000000000000000000000000000000000000000000000000000000000000000081565b6040516001600160a01b0390911681526020015b60405180910390f35b6040516001600160a01b037f00000000000000000000000000000000000000000000000000000000000000001631158152602001607156fea2646970667358221220caa436f05e0081c8ff59e3b1781cc00f474e55ecae8ba5ccc5b5566356ee69c264736f6c634300081a0033","linkReferences":{}},"methodIdentifiers":{"TREASURY()":"2d2c5565","isSolved()":"64d98f6e"},"id":15}