{"abi":[{"type":"constructor","inputs":[],"stateMutability":"nonpayable"},{"type":"receive","stateMutability":"payable"},{"type":"function","name":"BURN_ADDRESS","inputs":[],"outputs":[{"name":"","type":"address","internalType":"address"}],"stateMutability":"view"},{"type":"function","name":"balanceOf","inputs":[{"name":"","type":"address","internalType":"address"}],"outputs":[{"name":"","type":"uint256","internalType":"uint256"}],"stateMutability":"view"},{"type":"function","name":"buyTokens","inputs":[{"name":"to","type":"address","internalType":"address"}],"outputs":[],"stateMutability":"payable"},{"type":"function","name":"decimals","inputs":[],"outputs":[{"name":"","type":"uint8","internalType":"uint8"}],"stateMutability":"view"},{"type":"function","name":"name","inputs":[],"outputs":[{"name":"","type":"string","internalType":"string"}],"stateMutability":"view"},{"type":"function","name":"sellTokens","inputs":[{"name":"tokenAmount","type":"uint256","internalType":"uint256"},{"name":"to","type":"address","internalType":"address"},{"name":"minOut","type":"uint256","internalType":"uint256"}],"outputs":[],"stateMutability":"nonpayable"},{"type":"function","name":"symbol","inputs":[],"outputs":[{"name":"","type":"string","internalType":"string"}],"stateMutability":"view"},{"type":"function","name":"totalSupply","inputs":[],"outputs":[{"name":"","type":"uint256","internalType":"uint256"}],"stateMutability":"view"},{"type":"function","name":"transfer","inputs":[{"name":"to","type":"address","internalType":"address"},{"name":"value","type":"uint256","internalType":"uint256"}],"outputs":[{"name":"success","type":"bool","internalType":"bool"}],"stateMutability":"nonpayable"},{"type":"event","name":"Burn","inputs":[{"name":"from","type":"address","indexed":true,"internalType":"address"},{"name":"value","type":"uint256","indexed":false,"internalType":"uint256"}],"anonymous":false},{"type":"event","name":"Mint","inputs":[{"name":"to","type":"address","indexed":true,"internalType":"address"},{"name":"value","type":"uint256","indexed":false,"internalType":"uint256"}],"anonymous":false},{"type":"event","name":"Transfer","inputs":[{"name":"from","type":"address","indexed":true,"internalType":"address"},{"name":"to","type":"address","indexed":true,"internalType":"address"},{"name":"value","type":"uint256","indexed":false,"internalType":"uint256"}],"anonymous":false}],"bytecode":{"object":"0x60c0604052601860809081527f426f6e64696e6720446f6a7520437572766520546f6b656e000000000000000060a05260009061003c908261015f565b50604080518082019091526002815261109160f21b6020820152600190610063908261015f565b506002805460ff1916601217905534801561007d57600080fd5b5068056bc75e2d6310000060038190553360009081526004602052604090208190556100ab9060001961021d565b30600090815260046020526040902055610244565b634e487b7160e01b600052604160045260246000fd5b600181811c908216806100ea57607f821691505b60208210810361010a57634e487b7160e01b600052602260045260246000fd5b50919050565b601f82111561015a57806000526020600020601f840160051c810160208510156101375750805b601f840160051c820191505b818110156101575760008155600101610143565b50505b505050565b81516001600160401b03811115610178576101786100c0565b61018c8161018684546100d6565b84610110565b6020601f8211600181146101c057600083156101a85750848201515b600019600385901b1c1916600184901b178455610157565b600084815260208120601f198516915b828110156101f057878501518255602094850194600190920191016101d0565b508482101561020e5786840151600019600387901b60f8161c191681555b50505050600190811b01905550565b8181038181111561023e57634e487b7160e01b600052601160045260246000fd5b92915050565b6109df806102536000396000f3fe60806040526004361061008a5760003560e01c806395d89b411161005957806395d89b4114610147578063a9059cbb1461015c578063ec8ac4d81461018c578063efcf76761461019f578063fccc2813146101bf57600080fd5b806306fdde031461009f57806318160ddd146100ca578063313ce567146100ee57806370a082311461011a57600080fd5b3661009a57610098336101ec565b005b600080fd5b3480156100ab57600080fd5b506100b46102ef565b6040516100c1919061080d565b60405180910390f35b3480156100d657600080fd5b506100e060035481565b6040519081526020016100c1565b3480156100fa57600080fd5b506002546101089060ff1681565b60405160ff90911681526020016100c1565b34801561012657600080fd5b506100e061013536600461085c565b60046020526000908152604090205481565b34801561015357600080fd5b506100b461037d565b34801561016857600080fd5b5061017c61017736600461087e565b61038a565b60405190151581526020016100c1565b61009861019a36600461085c565b6101ec565b3480156101ab57600080fd5b506100986101ba3660046108a8565b6103c3565b3480156101cb57600080fd5b506101d4600081565b6040516001600160a01b0390911681526020016100c1565b6000341161023a5760405162461bcd60e51b815260206004820152601660248201527553656e642045544820746f2062757920746f6b656e7360501b60448201526064015b60405180910390fd5b600061024834600354610599565b90506102553083836105ee565b806003600082825461026791906108f4565b90915550506040518181526001600160a01b038316907f0f6798a560793a54c3bcfe86a93cde1e73087d944c0ea20544137d41213968859060200160405180910390a26040518181526001600160a01b038316906000907fddf252ad1be2c89b69c2b068fc378daa952ba7f163c4a11628f55a4df523b3ef9060200160405180910390a35050565b600080546102fc90610907565b80601f016020809104026020016040519081016040528092919081815260200182805461032890610907565b80156103755780601f1061034a57610100808354040283529160200191610375565b820191906000526020600020905b81548152906001019060200180831161035857829003601f168201915b505050505081565b600180546102fc90610907565b60006001600160a01b0383166103ae576103a6823360006103c3565b5060016103bd565b6103b93384846105ee565b5060015b92915050565b60006103ce8461073c565b90506103db3330866105ee565b83600360008282546103ed9190610941565b909155505060408051602081018490526bffffffffffffffffffffffff19606086811b821693830193909352605482018790523390921b9091166074820152608881018290526000906001600160a01b03851690839060a80160408051601f198184030181529082905261046091610954565b60006040518083038185875af1925050503d806000811461049d576040519150601f19603f3d011682016040523d82523d6000602084013e6104a2565b606091505b505090508183116104e65760405162461bcd60e51b815260206004820152600e60248201526d1b5a5b93dd5d081b9bdd081b595d60921b6044820152606401610231565b806105255760405162461bcd60e51b815260206004820152600f60248201526e151c985b9cd9995c8819985a5b1959608a1b6044820152606401610231565b60405185815233907fcc16f5dbb4873280815c1ee09dbd06736cffcc184412cf7a71a0fdb75d397ca59060200160405180910390a260405185815260009033907fddf252ad1be2c89b69c2b068fc378daa952ba7f163c4a11628f55a4df523b3ef9060200160405180910390a35050505050565b6000806105a68380610970565b905060006105d96105b8866002610970565b6105ca90670de0b6b3a7640000610970565b6105d490846108f4565b610792565b90506105e58482610941565b95945050505050565b6001600160a01b0382166106315760405162461bcd60e51b815260206004820152600a602482015269496e76616c696420746f60b01b6044820152606401610231565b6001600160a01b03831660009081526004602052604090205481111561068e5760405162461bcd60e51b81526020600482015260126024820152714e6f7420656e6f7567682062616c616e636560701b6044820152606401610231565b6001600160a01b038316600090815260046020526040812080548392906106b6908490610941565b90915550506001600160a01b038216600090815260046020526040812080548392906106e39084906108f4565b92505081905550816001600160a01b0316836001600160a01b03167fddf252ad1be2c89b69c2b068fc378daa952ba7f163c4a11628f55a4df523b3ef8360405161072f91815260200190565b60405180910390a3505050565b6003546000908161074d8280610970565b9050600061075b8584610941565b905060006107698280610970565b9050671bc16d674ec8000061077e8285610941565b6107889190610987565b9695505050505050565b60008060026107a28460016108f4565b6107ac9190610987565b9050825b808210156107e25750806002816107c78187610987565b6107d191906108f4565b6107db9190610987565b91506107b0565b5092915050565b60005b838110156108045781810151838201526020016107ec565b50506000910152565b602081526000825180602084015261082c8160408501602087016107e9565b601f01601f19169190910160400192915050565b80356001600160a01b038116811461085757600080fd5b919050565b60006020828403121561086e57600080fd5b61087782610840565b9392505050565b6000806040838503121561089157600080fd5b61089a83610840565b946020939093013593505050565b6000806000606084860312156108bd57600080fd5b833592506108cd60208501610840565b929592945050506040919091013590565b634e487b7160e01b600052601160045260246000fd5b808201808211156103bd576103bd6108de565b600181811c9082168061091b57607f821691505b60208210810361093b57634e487b7160e01b600052602260045260246000fd5b50919050565b818103818111156103bd576103bd6108de565b600082516109668184602087016107e9565b9190910192915050565b80820281158282048414176103bd576103bd6108de565b6000826109a457634e487b7160e01b600052601260045260246000fd5b50049056fea26469706673582212202abbcaf412ec99917695c6f43c3d2ac9a72de670bfcda69cbb8d31c71a81060864736f6c634300081a0033","linkReferences":{}},"methodIdentifiers":{"BURN_ADDRESS()":"fccc2813","balanceOf(address)":"70a08231","buyTokens(address)":"ec8ac4d8","decimals()":"313ce567","name()":"06fdde03","sellTokens(uint256,address,uint256)":"efcf7676","symbol()":"95d89b41","totalSupply()":"18160ddd","transfer(address,uint256)":"a9059cbb"},"id":21}