{"abi":[{"type":"constructor","inputs":[{"name":"_poolManager","type":"address","internalType":"contract IPoolManager"}],"stateMutability":"nonpayable"},{"type":"function","name":"afterAddLiquidity","inputs":[{"name":"","type":"address","internalType":"address"},{"name":"","type":"tuple","internalType":"struct PoolKey","components":[{"name":"currency0","type":"address","internalType":"Currency"},{"name":"currency1","type":"address","internalType":"Currency"},{"name":"fee","type":"uint24","internalType":"uint24"},{"name":"tickSpacing","type":"int24","internalType":"int24"},{"name":"hooks","type":"address","internalType":"contract IHooks"}]},{"name":"","type":"tuple","internalType":"struct IPoolManager.ModifyLiquidityParams","components":[{"name":"tickLower","type":"int24","internalType":"int24"},{"name":"tickUpper","type":"int24","internalType":"int24"},{"name":"liquidityDelta","type":"int256","internalType":"int256"},{"name":"salt","type":"bytes32","internalType":"bytes32"}]},{"name":"","type":"int256","internalType":"BalanceDelta"},{"name":"","type":"int256","internalType":"BalanceDelta"},{"name":"","type":"bytes","internalType":"bytes"}],"outputs":[{"name":"","type":"bytes4","internalType":"bytes4"},{"name":"","type":"int256","internalType":"BalanceDelta"}],"stateMutability":"nonpayable"},{"type":"function","name":"afterDonate","inputs":[{"name":"","type":"address","internalType":"address"},{"name":"","type":"tuple","internalType":"struct PoolKey","components":[{"name":"currency0","type":"address","internalType":"Currency"},{"name":"currency1","type":"address","internalType":"Currency"},{"name":"fee","type":"uint24","internalType":"uint24"},{"name":"tickSpacing","type":"int24","internalType":"int24"},{"name":"hooks","type":"address","internalType":"contract IHooks"}]},{"name":"","type":"uint256","internalType":"uint256"},{"name":"","type":"uint256","internalType":"uint256"},{"name":"","type":"bytes","internalType":"bytes"}],"outputs":[{"name":"","type":"bytes4","internalType":"bytes4"}],"stateMutability":"nonpayable"},{"type":"function","name":"afterInitialize","inputs":[{"name":"","type":"address","internalType":"address"},{"name":"","type":"tuple","internalType":"struct PoolKey","components":[{"name":"currency0","type":"address","internalType":"Currency"},{"name":"currency1","type":"address","internalType":"Currency"},{"name":"fee","type":"uint24","internalType":"uint24"},{"name":"tickSpacing","type":"int24","internalType":"int24"},{"name":"hooks","type":"address","internalType":"contract IHooks"}]},{"name":"","type":"uint160","internalType":"uint160"},{"name":"","type":"int24","internalType":"int24"},{"name":"","type":"bytes","internalType":"bytes"}],"outputs":[{"name":"","type":"bytes4","internalType":"bytes4"}],"stateMutability":"nonpayable"},{"type":"function","name":"afterRemoveLiquidity","inputs":[{"name":"","type":"address","internalType":"address"},{"name":"","type":"tuple","internalType":"struct PoolKey","components":[{"name":"currency0","type":"address","internalType":"Currency"},{"name":"currency1","type":"address","internalType":"Currency"},{"name":"fee","type":"uint24","internalType":"uint24"},{"name":"tickSpacing","type":"int24","internalType":"int24"},{"name":"hooks","type":"address","internalType":"contract IHooks"}]},{"name":"","type":"tuple","internalType":"struct IPoolManager.ModifyLiquidityParams","components":[{"name":"tickLower","type":"int24","internalType":"int24"},{"name":"tickUpper","type":"int24","internalType":"int24"},{"name":"liquidityDelta","type":"int256","internalType":"int256"},{"name":"salt","type":"bytes32","internalType":"bytes32"}]},{"name":"","type":"int256","internalType":"BalanceDelta"},{"name":"","type":"int256","internalType":"BalanceDelta"},{"name":"","type":"bytes","internalType":"bytes"}],"outputs":[{"name":"","type":"bytes4","internalType":"bytes4"},{"name":"","type":"int256","internalType":"BalanceDelta"}],"stateMutability":"nonpayable"},{"type":"function","name":"afterSwap","inputs":[{"name":"","type":"address","internalType":"address"},{"name":"","type":"tuple","internalType":"struct PoolKey","components":[{"name":"currency0","type":"address","internalType":"Currency"},{"name":"currency1","type":"address","internalType":"Currency"},{"name":"fee","type":"uint24","internalType":"uint24"},{"name":"tickSpacing","type":"int24","internalType":"int24"},{"name":"hooks","type":"address","internalType":"contract IHooks"}]},{"name":"","type":"tuple","internalType":"struct IPoolManager.SwapParams","components":[{"name":"zeroForOne","type":"bool","internalType":"bool"},{"name":"amountSpecified","type":"int256","internalType":"int256"},{"name":"sqrtPriceLimitX96","type":"uint160","internalType":"uint160"}]},{"name":"","type":"int256","internalType":"BalanceDelta"},{"name":"","type":"bytes","internalType":"bytes"}],"outputs":[{"name":"","type":"bytes4","internalType":"bytes4"},{"name":"","type":"int128","internalType":"int128"}],"stateMutability":"nonpayable"},{"type":"function","name":"beforeAddLiquidity","inputs":[{"name":"","type":"address","internalType":"address"},{"name":"","type":"tuple","internalType":"struct PoolKey","components":[{"name":"currency0","type":"address","internalType":"Currency"},{"name":"currency1","type":"address","internalType":"Currency"},{"name":"fee","type":"uint24","internalType":"uint24"},{"name":"tickSpacing","type":"int24","internalType":"int24"},{"name":"hooks","type":"address","internalType":"contract IHooks"}]},{"name":"","type":"tuple","internalType":"struct IPoolManager.ModifyLiquidityParams","components":[{"name":"tickLower","type":"int24","internalType":"int24"},{"name":"tickUpper","type":"int24","internalType":"int24"},{"name":"liquidityDelta","type":"int256","internalType":"int256"},{"name":"salt","type":"bytes32","internalType":"bytes32"}]},{"name":"","type":"bytes","internalType":"bytes"}],"outputs":[{"name":"","type":"bytes4","internalType":"bytes4"}],"stateMutability":"nonpayable"},{"type":"function","name":"beforeDonate","inputs":[{"name":"","type":"address","internalType":"address"},{"name":"","type":"tuple","internalType":"struct PoolKey","components":[{"name":"currency0","type":"address","internalType":"Currency"},{"name":"currency1","type":"address","internalType":"Currency"},{"name":"fee","type":"uint24","internalType":"uint24"},{"name":"tickSpacing","type":"int24","internalType":"int24"},{"name":"hooks","type":"address","internalType":"contract IHooks"}]},{"name":"","type":"uint256","internalType":"uint256"},{"name":"","type":"uint256","internalType":"uint256"},{"name":"","type":"bytes","internalType":"bytes"}],"outputs":[{"name":"","type":"bytes4","internalType":"bytes4"}],"stateMutability":"nonpayable"},{"type":"function","name":"beforeInitialize","inputs":[{"name":"","type":"address","internalType":"address"},{"name":"","type":"tuple","internalType":"struct PoolKey","components":[{"name":"currency0","type":"address","internalType":"Currency"},{"name":"currency1","type":"address","internalType":"Currency"},{"name":"fee","type":"uint24","internalType":"uint24"},{"name":"tickSpacing","type":"int24","internalType":"int24"},{"name":"hooks","type":"address","internalType":"contract IHooks"}]},{"name":"","type":"uint160","internalType":"uint160"},{"name":"","type":"bytes","internalType":"bytes"}],"outputs":[{"name":"","type":"bytes4","internalType":"bytes4"}],"stateMutability":"nonpayable"},{"type":"function","name":"beforeRemoveLiquidity","inputs":[{"name":"","type":"address","internalType":"address"},{"name":"","type":"tuple","internalType":"struct PoolKey","components":[{"name":"currency0","type":"address","internalType":"Currency"},{"name":"currency1","type":"address","internalType":"Currency"},{"name":"fee","type":"uint24","internalType":"uint24"},{"name":"tickSpacing","type":"int24","internalType":"int24"},{"name":"hooks","type":"address","internalType":"contract IHooks"}]},{"name":"","type":"tuple","internalType":"struct IPoolManager.ModifyLiquidityParams","components":[{"name":"tickLower","type":"int24","internalType":"int24"},{"name":"tickUpper","type":"int24","internalType":"int24"},{"name":"liquidityDelta","type":"int256","internalType":"int256"},{"name":"salt","type":"bytes32","internalType":"bytes32"}]},{"name":"","type":"bytes","internalType":"bytes"}],"outputs":[{"name":"","type":"bytes4","internalType":"bytes4"}],"stateMutability":"nonpayable"},{"type":"function","name":"beforeSwap","inputs":[{"name":"","type":"address","internalType":"address"},{"name":"key","type":"tuple","internalType":"struct PoolKey","components":[{"name":"currency0","type":"address","internalType":"Currency"},{"name":"currency1","type":"address","internalType":"Currency"},{"name":"fee","type":"uint24","internalType":"uint24"},{"name":"tickSpacing","type":"int24","internalType":"int24"},{"name":"hooks","type":"address","internalType":"contract IHooks"}]},{"name":"params","type":"tuple","internalType":"struct IPoolManager.SwapParams","components":[{"name":"zeroForOne","type":"bool","internalType":"bool"},{"name":"amountSpecified","type":"int256","internalType":"int256"},{"name":"sqrtPriceLimitX96","type":"uint160","internalType":"uint160"}]},{"name":"hookData","type":"bytes","internalType":"bytes"}],"outputs":[{"name":"","type":"bytes4","internalType":"bytes4"},{"name":"","type":"int256","internalType":"BeforeSwapDelta"},{"name":"","type":"uint24","internalType":"uint24"}],"stateMutability":"nonpayable"},{"type":"function","name":"first_reward","inputs":[{"name":"params","type":"tuple","internalType":"struct IPoolManager.SwapParams","components":[{"name":"zeroForOne","type":"bool","internalType":"bool"},{"name":"amountSpecified","type":"int256","internalType":"int256"},{"name":"sqrtPriceLimitX96","type":"uint160","internalType":"uint160"}]},{"name":"hookData","type":"bytes","internalType":"bytes"}],"outputs":[],"stateMutability":"nonpayable"},{"type":"function","name":"getHookPermissions","inputs":[],"outputs":[{"name":"","type":"tuple","internalType":"struct Hooks.Permissions","components":[{"name":"beforeInitialize","type":"bool","internalType":"bool"},{"name":"afterInitialize","type":"bool","internalType":"bool"},{"name":"beforeAddLiquidity","type":"bool","internalType":"bool"},{"name":"afterAddLiquidity","type":"bool","internalType":"bool"},{"name":"beforeRemoveLiquidity","type":"bool","internalType":"bool"},{"name":"afterRemoveLiquidity","type":"bool","internalType":"bool"},{"name":"beforeSwap","type":"bool","internalType":"bool"},{"name":"afterSwap","type":"bool","internalType":"bool"},{"name":"beforeDonate","type":"bool","internalType":"bool"},{"name":"afterDonate","type":"bool","internalType":"bool"},{"name":"beforeSwapReturnDelta","type":"bool","internalType":"bool"},{"name":"afterSwapReturnDelta","type":"bool","internalType":"bool"},{"name":"afterAddLiquidityReturnDelta","type":"bool","internalType":"bool"},{"name":"afterRemoveLiquidityReturnDelta","type":"bool","internalType":"bool"}]}],"stateMutability":"pure"},{"type":"function","name":"has_reward","inputs":[{"name":"","type":"bytes32","internalType":"PoolId"}],"outputs":[{"name":"","type":"bool","internalType":"bool"}],"stateMutability":"view"},{"type":"function","name":"poolManager","inputs":[],"outputs":[{"name":"","type":"address","internalType":"contract IPoolManager"}],"stateMutability":"view"},{"type":"function","name":"set_lucky_pool","inputs":[{"name":"_lucky_pool","type":"bytes32","internalType":"PoolId"}],"outputs":[],"stateMutability":"nonpayable"},{"type":"function","name":"set_reward","inputs":[],"outputs":[],"stateMutability":"payable"},{"type":"function","name":"unlockCallback","inputs":[{"name":"data","type":"bytes","internalType":"bytes"}],"outputs":[{"name":"","type":"bytes","internalType":"bytes"}],"stateMutability":"nonpayable"},{"type":"error","name":"HookNotImplemented","inputs":[]},{"type":"error","name":"InvalidPool","inputs":[]},{"type":"error","name":"LockFailure","inputs":[]},{"type":"error","name":"NotPoolManager","inputs":[]},{"type":"error","name":"NotSelf","inputs":[]}],"bytecode":{"object":"0x60a060405234801561000f575f80fd5b5060405161141338038061141383398101604081905261002e916102a4565b6001600160a01b038116608052806100453061004c565b50506102d1565b61013c81610137604080516101c0810182525f80825260208201819052918101829052606081018290526080810182905260a0810182905260c0810182905260e08101829052610100810182905261012081018290526101408101829052610160810182905261018081018290526101a081019190915250604080516101c0810182525f80825260208201819052918101829052606081018290526080810182905260a08101829052600160c0820181905260e0820152610100810182905261012081018290526101408101829052610160810182905261018081018290526101a081019190915290565b61013f565b50565b80511515612000831615151415806101635750602081015115156110008316151514155b8061017a5750604081015115156108008316151514155b806101915750606081015115156104008316151514155b806101a85750608081015115156102008316151514155b806101bf575060a081015115156101008316151514155b806101d5575060c0810151151560808316151514155b806101eb575060e0810151151560408316151514155b806102025750610100810151151560208316151514155b806102195750610120810151151560108316151514155b806102305750610140810151151560088316151514155b806102475750610160810151151560048316151514155b8061025e5750610180810151151560028316151514155b8061027557506101a0810151151560018316151514155b1561028b5761028b630732d7b560e51b8361028f565b5050565b815f526001600160a01b03811660045260245ffd5b5f602082840312156102b4575f80fd5b81516001600160a01b03811681146102ca575f80fd5b9392505050565b6080516111156102fe5f395f8181610417015281816106d001528181610821015261087f01526111155ff3fe6080604052600436106100fa575f3560e01c80636c2bbe7e11610092578063b47b2fb111610062578063b47b2fb1146102aa578063b6a8b0fa146102ec578063c4e833ce14610306578063dc4c90d314610406578063e1b4af69146102ec575f80fd5b80636c2bbe7e1461022557806391dd7346146102645780639f063efc14610225578063a910f80f14610290575f80fd5b8063259982e5116100cd578063259982e51461016a57806325c747b8146101a25780633440d820146101c1578063575e24b4146101db575f80fd5b806309ead22d146100fe57806310b1a3dd1461010857806321b62c2f1461014b57806321d0ee701461016a575b5f80fd5b610106610451565b005b348015610113575f80fd5b50610136610122366004610998565b60026020525f908152604090205460ff1681565b60405190151581526020015b60405180910390f35b348015610156575f80fd5b50610106610165366004610a0a565b61047c565b348015610175575f80fd5b50610189610184366004610aa1565b610655565b6040516001600160e01b03199091168152602001610142565b3480156101ad575f80fd5b506101066101bc366004610998565b61066f565b3480156101cc575f80fd5b50610189610184366004610b18565b3480156101e6575f80fd5b506101fa6101f5366004610b72565b6106c2565b604080516001600160e01b03199094168452602084019290925262ffffff1690820152606001610142565b348015610230575f80fd5b5061024461023f366004610bcc565b6107f9565b604080516001600160e01b03199093168352602083019190915201610142565b34801561026f575f80fd5b5061028361027e366004610c57565b610814565b6040516101429190610c96565b34801561029b575f80fd5b50610189610184366004610cdc565b3480156102b5575f80fd5b506102c96102c4366004610d64565b610872565b604080516001600160e01b03199093168352600f9190910b602083015201610142565b3480156102f7575f80fd5b50610189610184366004610dc7565b348015610311575f80fd5b506103f9604080516101c0810182525f80825260208201819052918101829052606081018290526080810182905260a0810182905260c0810182905260e08101829052610100810182905261012081018290526101408101829052610160810182905261018081018290526101a081019190915250604080516101c0810182525f80825260208201819052918101829052606081018290526080810182905260a08101829052600160c0820181905260e0820152610100810182905261012081018290526101408101829052610160810182905261018081018290526101a081019190915290565b6040516101429190610e21565b348015610411575f80fd5b506104397f000000000000000000000000000000000000000000000000000000000000000081565b6040516001600160a01b039091168152602001610142565b670de0b6b3a7640000341061047a575f80548152600260205260409020805460ff191660011790555b565b60015460ff166104c15760405162461bcd60e51b815260206004820152600b60248201526a737761705f756e6c6f636b60a81b60448201526064015b60405180910390fd5b6020819003610650575f6104d782840184610f42565b90505f6103e8670de0b6b3a76400006104f36020880135610f78565b6104fd9190610f92565b6105079190610fc5565b90505f6001600160a01b038316320361057757826001600160a01b03164783106105315747610533565b825b6040515f81818185875af1925050503d805f811461056c576040519150601f19603f3d011682016040523d82523d5f602084013e610571565b606091505b50909150505b6001600160a01b03831631156105e9575f610593600b32610fd8565b9050806001600160a01b0316476040515f6040518083038185875af1925050503d805f81146105dd576040519150601f19603f3d011682016040523d82523d5f602084013e6105e2565b606091505b5090925050505b5f4783106105f757476105f9565b825b9050836001600160a01b0316816040515f6040518083038185875af1925050503d805f8114610643576040519150601f19603f3d011682016040523d82523d5f602084013e610648565b606091505b505050505050505b505050565b5f604051630a85dc2960e01b815260040160405180910390fd5b5f54156106be5760405162461bcd60e51b815260206004820152601660248201527f6c75636b795f706f6f6c5f616c72656164795f7365740000000000000000000060448201526064016104b8565b5f55565b5f8080336001600160a01b037f000000000000000000000000000000000000000000000000000000000000000016146107305760405162461bcd60e51b815260206004820152601060248201526f3737ba2fb837b7b62fb6b0b730b3b2b960811b60448201526064016104b8565b6001805460ff1916811790555f61075661074f368a90038a018a611017565b60a0902090565b5f8181526002602052604090205490915060ff16801561077e575061077e60208801886110b1565b80156107a257506107a261079560208a018a610f42565b6001600160a01b03161590565b80156107ba5750670de0b6b3a763ffff198760200135125b156107e0576107ca87878761047c565b5f818152600260205260409020805460ff191690555b506315d7892d60e21b985f985088975095505050505050565b5f80604051630a85dc2960e01b815260040160405180910390fd5b6060336001600160a01b037f0000000000000000000000000000000000000000000000000000000000000000161461085f5760405163570c108560e11b815260040160405180910390fd5b61086983836108ff565b90505b92915050565b5f80336001600160a01b037f000000000000000000000000000000000000000000000000000000000000000016146108df5760405162461bcd60e51b815260206004820152601060248201526f3737ba2fb837b7b62fb6b0b730b3b2b960811b60448201526064016104b8565b50506001805460ff1916905563b47b2fb160e01b5f965096945050505050565b60605f80306001600160a01b0316858560405161091d9291906110d0565b5f604051808303815f865af19150503d805f8114610956576040519150601f19603f3d011682016040523d82523d5f602084013e61095b565b606091505b5091509150811561096f57915061086c9050565b80515f03610990576040516314815f4760e31b815260040160405180910390fd5b805160208201fd5b5f602082840312156109a8575f80fd5b5035919050565b5f606082840312156109bf575f80fd5b50919050565b5f8083601f8401126109d5575f80fd5b50813567ffffffffffffffff8111156109ec575f80fd5b602083019150836020828501011115610a03575f80fd5b9250929050565b5f805f60808486031215610a1c575f80fd5b610a2685856109af565b9250606084013567ffffffffffffffff811115610a41575f80fd5b610a4d868287016109c5565b9497909650939450505050565b6001600160a01b0381168114610a6e575f80fd5b50565b8035610a7c81610a5a565b919050565b5f60a082840312156109bf575f80fd5b5f608082840312156109bf575f80fd5b5f805f805f6101608688031215610ab6575f80fd5b8535610ac181610a5a565b9450610ad08760208801610a81565b9350610adf8760c08801610a91565b925061014086013567ffffffffffffffff811115610afb575f80fd5b610b07888289016109c5565b969995985093965092949392505050565b5f805f805f6101008688031215610b2d575f80fd5b8535610b3881610a5a565b9450610b478760208801610a81565b935060c0860135610b5781610a5a565b925060e086013567ffffffffffffffff811115610afb575f80fd5b5f805f805f6101408688031215610b87575f80fd5b8535610b9281610a5a565b9450610ba18760208801610a81565b9350610bb08760c088016109af565b925061012086013567ffffffffffffffff811115610afb575f80fd5b5f805f805f805f6101a0888a031215610be3575f80fd5b8735610bee81610a5a565b9650610bfd8960208a01610a81565b9550610c0c8960c08a01610a91565b94506101408801359350610160880135925061018088013567ffffffffffffffff811115610c38575f80fd5b610c448a828b016109c5565b989b979a50959850939692959293505050565b5f8060208385031215610c68575f80fd5b823567ffffffffffffffff811115610c7e575f80fd5b610c8a858286016109c5565b90969095509350505050565b602081525f82518060208401528060208501604085015e5f604082850101526040601f19601f83011684010191505092915050565b8035600281900b8114610a7c575f80fd5b5f805f805f806101208789031215610cf2575f80fd5b8635610cfd81610a5a565b9550610d0c8860208901610a81565b945060c0870135610d1c81610a5a565b9350610d2a60e08801610ccb565b925061010087013567ffffffffffffffff811115610d46575f80fd5b610d5289828a016109c5565b979a9699509497509295939492505050565b5f805f805f806101608789031215610d7a575f80fd5b8635610d8581610a5a565b9550610d948860208901610a81565b9450610da38860c089016109af565b9350610120870135925061014087013567ffffffffffffffff811115610d46575f80fd5b5f805f805f806101208789031215610ddd575f80fd5b8635610de881610a5a565b9550610df78860208901610a81565b945060c0870135935060e0870135925061010087013567ffffffffffffffff811115610d46575f80fd5b8151151581526101c081016020830151610e3f602084018215159052565b506040830151610e53604084018215159052565b506060830151610e67606084018215159052565b506080830151610e7b608084018215159052565b5060a0830151610e8f60a084018215159052565b5060c0830151610ea360c084018215159052565b5060e0830151610eb760e084018215159052565b50610100830151610ecd61010084018215159052565b50610120830151610ee361012084018215159052565b50610140830151610ef961014084018215159052565b50610160830151610f0f61016084018215159052565b50610180830151610f2561018084018215159052565b506101a0830151610f3b6101a084018215159052565b5092915050565b5f60208284031215610f52575f80fd5b8135610f5d81610a5a565b9392505050565b634e487b7160e01b5f52601160045260245ffd5b5f600160ff1b8201610f8c57610f8c610f64565b505f0390565b8181035f831280158383131683831282161715610f3b57610f3b610f64565b634e487b7160e01b5f52601260045260245ffd5b5f82610fd357610fd3610fb1565b500490565b5f6001600160a01b03831680610ff057610ff0610fb1565b806001600160a01b0384160491505092915050565b803562ffffff81168114610a7c575f80fd5b5f60a0828403128015611028575f80fd5b5060405160a0810167ffffffffffffffff8111828210171561105857634e487b7160e01b5f52604160045260245ffd5b60405261106483610a71565b815261107260208401610a71565b602082015261108360408401611005565b604082015261109460608401610ccb565b60608201526110a560808401610a71565b60808201529392505050565b5f602082840312156110c1575f80fd5b81358015158114610f5d575f80fd5b818382375f910190815291905056fea2646970667358221220b8ee62f831d651bf9c6f00311a50235d9ebf408a3c35c845c979d83095dde37064736f6c634300081a0033","linkReferences":{}},"methodIdentifiers":{"afterAddLiquidity(address,(address,address,uint24,int24,address),(int24,int24,int256,bytes32),int256,int256,bytes)":"9f063efc","afterDonate(address,(address,address,uint24,int24,address),uint256,uint256,bytes)":"e1b4af69","afterInitialize(address,(address,address,uint24,int24,address),uint160,int24,bytes)":"a910f80f","afterRemoveLiquidity(address,(address,address,uint24,int24,address),(int24,int24,int256,bytes32),int256,int256,bytes)":"6c2bbe7e","afterSwap(address,(address,address,uint24,int24,address),(bool,int256,uint160),int256,bytes)":"b47b2fb1","beforeAddLiquidity(address,(address,address,uint24,int24,address),(int24,int24,int256,bytes32),bytes)":"259982e5","beforeDonate(address,(address,address,uint24,int24,address),uint256,uint256,bytes)":"b6a8b0fa","beforeInitialize(address,(address,address,uint24,int24,address),uint160,bytes)":"3440d820","beforeRemoveLiquidity(address,(address,address,uint24,int24,address),(int24,int24,int256,bytes32),bytes)":"21d0ee70","beforeSwap(address,(address,address,uint24,int24,address),(bool,int256,uint160),bytes)":"575e24b4","first_reward((bool,int256,uint160),bytes)":"21b62c2f","getHookPermissions()":"c4e833ce","has_reward(bytes32)":"10b1a3dd","poolManager()":"dc4c90d3","set_lucky_pool(bytes32)":"25c747b8","set_reward()":"09ead22d","unlockCallback(bytes)":"91dd7346"},"id":70}