{"abi":[{"type":"constructor","inputs":[],"stateMutability":"nonpayable"},{"type":"function","name":"claimDust","inputs":[],"outputs":[],"stateMutability":"nonpayable"},{"type":"function","name":"claimed","inputs":[],"outputs":[{"name":"","type":"bool","internalType":"bool"}],"stateMutability":"view"},{"type":"function","name":"curveDeployer","inputs":[],"outputs":[{"name":"","type":"address","internalType":"contract ICurveFactory"}],"stateMutability":"view"},{"type":"function","name":"curvePool","inputs":[],"outputs":[{"name":"","type":"address","internalType":"contract ICurve"}],"stateMutability":"view"},{"type":"function","name":"isSolved","inputs":[],"outputs":[{"name":"","type":"bool","internalType":"bool"}],"stateMutability":"view"},{"type":"function","name":"startingBlock","inputs":[],"outputs":[{"name":"","type":"uint256","internalType":"uint256"}],"stateMutability":"view"},{"type":"function","name":"tonyLend","inputs":[],"outputs":[{"name":"","type":"address","internalType":"contract TonyLend"}],"stateMutability":"view"},{"type":"function","name":"usdc","inputs":[],"outputs":[{"name":"","type":"address","internalType":"contract ERC20"}],"stateMutability":"view"},{"type":"function","name":"usdcPriceOracle","inputs":[],"outputs":[{"name":"","type":"address","internalType":"contract IPriceOracle"}],"stateMutability":"view"},{"type":"function","name":"usde","inputs":[],"outputs":[{"name":"","type":"address","internalType":"contract ERC20"}],"stateMutability":"view"},{"type":"function","name":"usdePriceOracle","inputs":[],"outputs":[{"name":"","type":"address","internalType":"contract IPriceOracle"}],"stateMutability":"view"}],"bytecode":{"object":"0x60806040525f600555600780546001600160a81b031916736a8cbed756804b16e05e741edabd5cb544ae21bf179055348015610039575f80fd5b5060405161004690610b8b565b604051809103905ff08015801561005f573d5f803e3d5ffd5b50600480546001600160a01b0319166001600160a01b039290921691909117905560405160129061008f90610b98565b6060808252600c908201526b57726170706564205553446560a01b608082015260a06020820181905260059082015264775553446560d81b60c082015260ff909116604082015260e001604051809103905ff0801580156100f2573d5f803e3d5ffd5b505f80546001600160a01b0319166001600160a01b039290921691909117905560405160069061012190610b98565b6060808252600c908201526b57726170706564205553444360a01b608082015260a06020820181905260059082015264775553444360d81b60c082015260ff909116604082015260e001604051809103905ff080158015610184573d5f803e3d5ffd5b50600180546001600160a01b0319166001600160a01b03929092169190911790556040805160028082526060820183525f9260208301908036833750505f805483519394506001600160a01b0316928492506101e2576101e2610bbf565b6001600160a01b039283166020918202929092010152600180548351921691839190811061021257610212610bbf565b6001600160a01b03929092166020928302919091018201526040805160028082526060820183525f9391929091830190803683370190505090505f815f8151811061025f5761025f610bbf565b602002602001019060ff16908160ff16815250505f8160018151811061028757610287610bbf565b60ff929092166020928302919091018201526040805160028082526060820183525f9391929091830190803683370190505090505f60e01b815f815181106102d1576102d1610bbf565b6001600160e01b03199092166020928302919091019091015280515f908290600190811061030157610301610bbf565b6001600160e01b0319929092166020928302919091018201526040805160028082526060820183525f9391929091830190803683370190505090505f815f8151811061034f5761034f610bbf565b60200260200101906001600160a01b031690816001600160a01b0316815250505f8160018151811061038357610383610bbf565b6001600160a01b039283166020918202929092010152600754604051635bcd3d8360e01b8152911690635bcd3d83906103db90879060c890620f424090640ba43b740090610362905f908c908c908c90600401610c83565b6020604051808303815f875af11580156103f7573d5f803e3d5ffd5b505050506040513d601f19601f8201168201806040525081019061041b9190610d68565b600680546001600160a01b0319166001600160a01b039283169081179091555f5460405163095ea7b360e01b815260048101929092525f1960248301529091169063095ea7b3906044016020604051808303815f875af1158015610481573d5f803e3d5ffd5b505050506040513d601f19601f820116820180604052508101906104a59190610d95565b5060015460065460405163095ea7b360e01b81526001600160a01b0391821660048201525f19602482015291169063095ea7b3906044016020604051808303815f875af11580156104f8573d5f803e3d5ffd5b505050506040513d601f19601f8201168201806040525081019061051c9190610d95565b506040805160028082526060820183525f9260208301908036833701905050905069be951906eba2aa800000815f8151811061055a5761055a610bbf565b60200260200101818152505064d18c2e28008160018151811061057f5761057f610bbf565b6020908102919091010152600654604051635b96faef60e11b81526001600160a01b039091169063b72df5de906105bd908490600190600401610db4565b6020604051808303815f875af11580156105d9573d5f803e3d5ffd5b505050506040513d601f19601f820116820180604052508101906105fd9190610e00565b505f546004805460405163095ea7b360e01b81526001600160a01b03918216928101929092525f1960248301529091169063095ea7b3906044016020604051808303815f875af1158015610653573d5f803e3d5ffd5b505050506040513d601f19601f820116820180604052508101906106779190610d95565b506001546004805460405163095ea7b360e01b81526001600160a01b03918216928101929092525f1960248301529091169063095ea7b3906044016020604051808303815f875af11580156106ce573d5f803e3d5ffd5b505050506040513d601f19601f820116820180604052508101906106f29190610d95565b505f546004805460405163a9059cbb60e01b81526001600160a01b03918216928101929092526910f0cf064dd59200000060248301529091169063a9059cbb906044016020604051808303815f875af1158015610751573d5f803e3d5ffd5b505050506040513d601f19601f820116820180604052508101906107759190610d95565b506001546004805460405163a9059cbb60e01b81526001600160a01b03918216928101929092526412a05f200060248301529091169063a9059cbb906044016020604051808303815f875af11580156107d0573d5f803e3d5ffd5b505050506040513d601f19601f820116820180604052508101906107f49190610d95565b506006546040516001600160a01b03909116905f90670de0b6b3a76400009061081c90610ba5565b6001600160a01b03909316835260208301919091526040820152606001604051809103905ff080158015610852573d5f803e3d5ffd5b50600380546001600160a01b0319166001600160a01b0392909216919091179055604051620f42409061088490610bb2565b908152602001604051809103905ff0801580156108a3573d5f803e3d5ffd5b50600280546001600160a01b0319166001600160a01b03928316179055600480545f546040516366a6a4bd60e01b81529084169281019290925260016024830152909116906366a6a4bd906044015f604051808303815f87803b158015610908575f80fd5b505af115801561091a573d5f803e3d5ffd5b505060048054600180546040516366a6a4bd60e01b81526001600160a01b039182169481019490945260248401919091521692506366a6a4bd91506044015f604051808303815f87803b15801561096f575f80fd5b505af1158015610981573d5f803e3d5ffd5b505060048054600254604051635a3d58cf60e11b81525f938101939093526001600160a01b03908116602484015216925063b47ab19e91506044015f604051808303815f87803b1580156109d3575f80fd5b505af11580156109e5573d5f803e3d5ffd5b505060048054600354604051635a3d58cf60e11b81526001938101939093526001600160a01b03908116602484015216925063b47ab19e91506044015f604051808303815f87803b158015610a38575f80fd5b505af1158015610a4a573d5f803e3d5ffd5b505060048054604051631c57762b60e31b81525f9281019290925269021e19e0c9bab240000060248301526001600160a01b0316925063e2bbb15891506044015f604051808303815f87803b158015610aa1575f80fd5b505af1158015610ab3573d5f803e3d5ffd5b505060048054604051631c57762b60e31b81526001928101929092526402540be40060248301526001600160a01b0316925063e2bbb15891506044015f604051808303815f87803b158015610b06575f80fd5b505af1158015610b18573d5f803e3d5ffd5b505060048054604051630ecbcdab60e01b815260019281019290925264044eaf990060248301526001600160a01b03169250630ecbcdab91506044015f604051808303815f87803b158015610b6b575f80fd5b505af1158015610b7d573d5f803e3d5ffd5b505050505050505050610e17565b6116708061120483390190565b610c908061287483390190565b61049c8061350483390190565b610306806139a083390190565b634e487b7160e01b5f52603260045260245ffd5b5f8151808452602084019350602083015f5b82811015610c0c5781516001600160a01b0316865260209586019590910190600101610be5565b5093949350505050565b5f8151808452602084019350602083015f5b82811015610c0c57815160ff16865260209586019590910190600101610c28565b5f8151808452602084019350602083015f5b82811015610c0c5781516001600160e01b031916865260209586019590910190600101610c5b565b61016081525f61016082015f601482527f555344652f5553444320437572766520506f6f6c00000000000000000000000060208301526040820190508381036020850152610ce6816008815267555344655553444360c01b602082015260400190565b9150508281036040840152610cfb818d610bd3565b90508a60608401528960808401528860a08401528760c08401528660e0840152828103610100840152610d2e8187610c16565b9050828103610120840152610d438186610c49565b9050828103610140840152610d588185610bd3565b9c9b505050505050505050505050565b5f60208284031215610d78575f80fd5b81516001600160a01b0381168114610d8e575f80fd5b9392505050565b5f60208284031215610da5575f80fd5b81518015158114610d8e575f80fd5b604080825283519082018190525f9060208501906060840190835b81811015610ded578351835260209384019390920191600101610dcf565b5050602093909301939093525092915050565b5f60208284031215610e10575f80fd5b5051919050565b6103e080610e245f395ff3fe608060405234801561000f575f80fd5b50600436106100a6575f3560e01c8063967f08b91161006e578063967f08b91461012a578063bea7f2891461013d578063d91c98d314610150578063df90ebe814610167578063e834a83414610171578063f0fe905514610185575f80fd5b80630fd761e0146100aa578063218751b2146100d9578063372ca3ed146100ec5780633e413bee146100ff57806364d98f6e14610112575b5f80fd5b5f546100bc906001600160a01b031681565b6040516001600160a01b0390911681526020015b60405180910390f35b6006546100bc906001600160a01b031681565b6002546100bc906001600160a01b031681565b6001546100bc906001600160a01b031681565b61011a610198565b60405190151581526020016100d0565b6007546100bc906001600160a01b031681565b6004546100bc906001600160a01b031681565b61015960055481565b6040519081526020016100d0565b61016f610216565b005b60075461011a90600160a01b900460ff1681565b6003546100bc906001600160a01b031681565b5f80546040516370a0823160e01b815262c0ffee60048201526904a49c601f12bed80000916001600160a01b0316906370a0823190602401602060405180830381865afa1580156101eb573d5f803e3d5ffd5b505050506040513d601f19601f8201168201806040525081019061020f919061036d565b1015905090565b600754600160a01b900460ff16156102665760405162461bcd60e51b815260206004820152600f60248201526e105b1c9958591e4818db185a5b5959608a1b604482015260640160405180910390fd5b6007805460ff60a01b1916600160a01b1790555f5460405163a9059cbb60e01b815233600482015269021e19e0c9bab240000060248201526001600160a01b039091169063a9059cbb906044016020604051808303815f875af11580156102cf573d5f803e3d5ffd5b505050506040513d601f19601f820116820180604052508101906102f39190610384565b5060015460405163a9059cbb60e01b81523360048201526402540be40060248201526001600160a01b039091169063a9059cbb906044016020604051808303815f875af1158015610346573d5f803e3d5ffd5b505050506040513d601f19601f8201168201806040525081019061036a9190610384565b50565b5f6020828403121561037d575f80fd5b5051919050565b5f60208284031215610394575f80fd5b815180151581146103a3575f80fd5b939250505056fea264697066735822122053c3de16129a49cd594d6e31d6f146c7b49585884dcf16116deee369328cd3f464736f6c634300081a00336080604052348015600e575f80fd5b5060015f553380603757604051631e4fbdf760e01b81525f600482015260240160405180910390fd5b603e816043565b506094565b600180546001600160a01b038381166001600160a01b0319831681179093556040519116919082907f8be0079c531659141344cd1fd0a4f28419497f9722a3daafe3b4186f6b6457e0905f90a35050565b6115cf806100a15f395ff3fe608060405234801561000f575f80fd5b5060043610610127575f3560e01c80639ce625f7116100a9578063d8aed1451161006e578063d8aed145146102ca578063e2bbb158146102dd578063eafe7a74146102f0578063f2fde38b146102f9578063ff2891b71461030c575f80fd5b80639ce625f714610223578063a0e17e1f14610236578063aaf5eb681461023e578063b47ab19e1461024d578063cf35bdd014610260575f80fd5b80635e694cf5116100ef5780635e694cf5146101d157806366a6a4bd146101e4578063715018a6146101f75780638a1d3446146101ff5780638da5cb5b14610212575f80fd5b80630c196a741461012b5780630ecbcdab146101615780632d239dbb1461017657806337a2eb71146101b6578063441a3e70146101be575b5f80fd5b61014e610139366004611361565b5f908152600360208190526040909120015490565b6040519081526020015b60405180910390f35b61017461016f366004611378565b610314565b005b61019e610184366004611361565b60056020525f90815260409020546001600160a01b031681565b6040516001600160a01b039091168152602001610158565b61014e600a81565b6101746101cc366004611378565b610524565b61014e6101df366004611361565b610768565b6101746101f23660046113b3565b610807565b6101746108b8565b61017461020d3660046113db565b6108cb565b6001546001600160a01b031661019e565b61014e610231366004611411565b610d45565b61014e606e81565b61014e670de0b6b3a764000081565b61017461025b36600461142a565b610e21565b6102a061026e366004611361565b600360208190525f918252604090912080546001820154600283015492909301546001600160a01b0390911692919084565b604080516001600160a01b0390951685526020850193909352918301526060820152608001610158565b6101746102d8366004611378565b610e56565b6101746102eb366004611378565b610fe0565b61014e60045481565b610174610307366004611411565b61115c565b61014e606481565b61031c611199565b60045482106103465760405162461bcd60e51b815260040161033d90611454565b60405180910390fd5b5f81116103655760405162461bcd60e51b815260040161033d9061147b565b61036f33836111c1565b335f9081526002602090815260408083208584526003835281842060018201909352908320549092906103a39085906114c6565b5f868152600185016020526040812082905560028401805492935086929091906103ce9084906114c6565b909155505f90506103de33610d45565b9050670de0b6b3a764000081101561044e5760405162461bcd60e51b815260206004820152602d60248201527f426f72726f7720776f756c6420726573756c7420696e20756e646572636f6c6c60448201526c30ba32b930b634bd30ba34b7b760991b606482015260840161033d565b825460405163a9059cbb60e01b8152336004820152602481018790526001600160a01b039091169063a9059cbb906044016020604051808303815f875af115801561049b573d5f803e3d5ffd5b505050506040513d601f19601f820116820180604052508101906104bf91906114d9565b6104db5760405162461bcd60e51b815260040161033d906114f8565b604051858152869033907fe1979fe4c35e0cef342fef5668e2c8e7a7e9f5d5d1ca8fee0ac6c427fa4153af906020015b60405180910390a35050505061052060015f55565b5050565b61052c611199565b600454821061054d5760405162461bcd60e51b815260040161033d90611454565b5f811161056c5760405162461bcd60e51b815260040161033d9061147b565b61057633836111c1565b335f90815260026020908152604080832085845260038352818420928190529220548311156105de5760405162461bcd60e51b8152602060048201526014602482015273496e73756666696369656e742062616c616e636560601b604482015260640161033d565b5f6105e833610d45565b9050670de0b6b3a764000081101561065c5760405162461bcd60e51b815260206004820152603160248201527f5769746864726177616c20776f756c6420726573756c7420696e20756e64657260448201527031b7b63630ba32b930b634bd30ba34b7b760791b606482015260840161033d565b5f8581526020849052604081208054869290610679908490611521565b9250508190555083826001015f8282546106939190611521565b9091555050815460405163a9059cbb60e01b8152336004820152602481018690526001600160a01b039091169063a9059cbb906044016020604051808303815f875af11580156106e5573d5f803e3d5ffd5b505050506040513d601f19601f8201168201806040525081019061070991906114d9565b6107255760405162461bcd60e51b815260040161033d906114f8565b604051848152859033907ff279e6a1f5e320cca91135676d9cb6e44ca8a08c0b88342bcdb1144f6511b5689060200160405180910390a350505061052060015f55565b5f818152600560205260408120546001600160a01b031661078a57505f919050565b5f8281526005602052604090819020549051635e694cf560e01b8152600481018490526001600160a01b0390911690635e694cf590602401602060405180830381865afa1580156107dd573d5f803e3d5ffd5b505050506040513d601f19601f820116820180604052508101906108019190611534565b92915050565b61080f6112d1565b604080516080810182526001600160a01b038481168083525f602080850182815285870183815260608701898152600480548652600394859052898620985189546001600160a01b03191698169790971788559151600188015551600287015551940193909355905492519092917fc53536963369dbfa4c398238ebb9b09fce3943a140928bd25d3052a8a9cacdaf91a360048054905f6108af8361154b565b91905055505050565b6108c06112d1565b6108c95f6112fe565b565b6108d3611199565b600454831080156108e5575060045481105b6109015760405162461bcd60e51b815260040161033d90611454565b5f82116109205760405162461bcd60e51b815260040161033d9061147b565b336001600160a01b038516036109785760405162461bcd60e51b815260206004820152601d60248201527f43616e6e6f74206c6971756964617465206f776e20706f736974696f6e000000604482015260640161033d565b8083036109c75760405162461bcd60e51b815260206004820152601b60248201527f43616e6e6f74206c69717569646174652073616d652061737365740000000000604482015260640161033d565b6109d184846111c1565b6109db84826111c1565b6001600160a01b0384165f90815260026020908152604080832086845260039092528083208484529083209192909190610a1488610d45565b9050670de0b6b3a76400008110610a6d5760405162461bcd60e51b815260206004820152601860248201527f4163636f756e74206e6f74206c6971756964617461626c650000000000000000604482015260640161033d565b5f878152600185016020526040812054606490610a8b908290611563565b610a95919061157a565b90505f610aa2888361134f565b90505f610aae88610768565b610ab78b610768565b610ac19084611563565b610acb919061157a565b5f8981526020899052604081205491925090610ae890839061134f565b90505f610af48c610768565b610afd8b610768565b610b079084611563565b610b11919061157a565b5f8b815260208b90526040902054909150831115610b43576064610b36606e83611563565b610b40919061157a565b90505b87546040516323b872dd60e01b8152336004820152306024820152604481018390526001600160a01b03909116906323b872dd906064016020604051808303815f875af1158015610b96573d5f803e3d5ffd5b505050506040513d601f19601f82011682018060405250810190610bba91906114d9565b610bd65760405162461bcd60e51b815260040161033d906114f8565b865460405163a9059cbb60e01b8152336004820152602481018490526001600160a01b039091169063a9059cbb906044016020604051808303815f875af1158015610c23573d5f803e3d5ffd5b505050506040513d601f19601f82011682018060405250810190610c4791906114d9565b610c635760405162461bcd60e51b815260040161033d906114f8565b5f8c815260018a01602052604081208054869290610c82908490611521565b90915550505f8a815260208a9052604081208054849290610ca4908490611521565b9250508190555083886002015f828254610cbe9190611521565b9250508190555081876001015f828254610cd89190611521565b909155505060408051858152602081018c90529081018390528c906001600160a01b038f169033907fdcfb2ea46125b5c04f5311ff0585da9998aa5151b11409482cd84c8ec08e82159060600160405180910390a4505050505050505050610d3f60015f55565b50505050565b5f8080805b600454811015610dea575f8181526003602090815260408083206001600160a01b0389168452600290925282209091610d8284610768565b5f85815260208490526040902054610d9a9190611563565b90505f610da685610768565b5f868152600185016020526040902054610dc09190611563565b9050610dcc82886114c6565b9650610dd881876114c6565b95505060019093019250610d4a915050565b50805f03610dfc57505f199392505050565b80610e0f670de0b6b3a764000084611563565b610e19919061157a565b949350505050565b610e296112d1565b5f9182526005602052604090912080546001600160a01b0319166001600160a01b03909216919091179055565b610e5e611199565b6004548210610e7f5760405162461bcd60e51b815260040161033d90611454565b5f8111610e9e5760405162461bcd60e51b815260040161033d9061147b565b610ea833836111c1565b335f9081526002602090815260408083208584526003835281842060018201909352908320549092610eda858361134f565b83546040516323b872dd60e01b8152336004820152306024820152604481018390529192506001600160a01b0316906323b872dd906064016020604051808303815f875af1158015610f2e573d5f803e3d5ffd5b505050506040513d601f19601f82011682018060405250810190610f5291906114d9565b610f6e5760405162461bcd60e51b815260040161033d906114f8565b5f86815260018501602052604081208054839290610f8d908490611521565b9250508190555080836002015f828254610fa79190611521565b9091555050604051818152869033907f77c6871227e5d2dec8dadd5354f78453203e22e669cd0ec4c19d9a8c5edb31d09060200161050b565b610fe8611199565b60045482106110095760405162461bcd60e51b815260040161033d90611454565b5f81116110285760405162461bcd60e51b815260040161033d9061147b565b5f8281526003602052604090819020805491516323b872dd60e01b81523360048201523060248201526044810184905290916001600160a01b0316906323b872dd906064016020604051808303815f875af1158015611089573d5f803e3d5ffd5b505050506040513d601f19601f820116820180604052508101906110ad91906114d9565b6110c95760405162461bcd60e51b815260040161033d906114f8565b6110d333846111c1565b335f908152600260209081526040808320868452909152812080548492906110fc9084906114c6565b9250508190555081816001015f82825461111691906114c6565b9091555050604051828152839033907f90890809c654f11d6e72a28fa60149770a0d11ec6c92319d6ceb2bb0a4ea1a159060200160405180910390a35061052060015f55565b6111646112d1565b6001600160a01b03811661118d57604051631e4fbdf760e01b81525f600482015260240161033d565b611196816112fe565b50565b60025f54036111bb57604051633ee5aeb560e01b815260040160405180910390fd5b60025f55565b6001600160a01b0382165f90815260026020818152604080842085855260038352818520938101909252909220544390036111fc5750505050565b5f8381526003602081815260408084209092015460028601909152908220549091906112289043611521565b90505f670de0b6b3a7640000622014808385886001015f8b81526020019081526020015f20546112589190611563565b6112629190611563565b61126c919061157a565b611276919061157a565b905080856001015f8881526020019081526020015f205f82825461129a91906114c6565b9250508190555080846002015f8282546112b491906114c6565b9091555050505f9485525050506002016020526040902043905550565b6001546001600160a01b031633146108c95760405163118cdaa760e01b815233600482015260240161033d565b600180546001600160a01b038381166001600160a01b0319831681179093556040519116919082907f8be0079c531659141344cd1fd0a4f28419497f9722a3daafe3b4186f6b6457e0905f90a35050565b5f8282188284100282185b9392505050565b5f60208284031215611371575f80fd5b5035919050565b5f8060408385031215611389575f80fd5b50508035926020909101359150565b80356001600160a01b03811681146113ae575f80fd5b919050565b5f80604083850312156113c4575f80fd5b6113cd83611398565b946020939093013593505050565b5f805f80608085870312156113ee575f80fd5b6113f785611398565b966020860135965060408601359560600135945092505050565b5f60208284031215611421575f80fd5b61135a82611398565b5f806040838503121561143b575f80fd5b8235915061144b60208401611398565b90509250929050565b6020808252600d908201526c125b9d985b1a5908185cdcd95d609a1b604082015260600190565b6020808252601d908201527f416d6f756e74206d7573742062652067726561746572207468616e2030000000604082015260600190565b634e487b7160e01b5f52601160045260245ffd5b80820180821115610801576108016114b2565b5f602082840312156114e9575f80fd5b8151801515811461135a575f80fd5b6020808252600f908201526e151c985b9cd9995c8819985a5b1959608a1b604082015260600190565b81810381811115610801576108016114b2565b5f60208284031215611544575f80fd5b5051919050565b5f6001820161155c5761155c6114b2565b5060010190565b8082028115828204841417610801576108016114b2565b5f8261159457634e487b7160e01b5f52601260045260245ffd5b50049056fea26469706673582212208dcf0eae535cef555f6e983d85b2be4d31232e3a005bbb7d4cdb438af25723ec64736f6c634300081a0033608060405234801561000f575f80fd5b50604051610c90380380610c9083398101604081905261002e9161028b565b8282600361003c838261038c565b506004610049828261038c565b50505061006f3382600a61005d919061053f565b61006a90620f4240610554565b61008b565b6005805460ff191660ff929092169190911790555061057e9050565b6001600160a01b0382166100b95760405163ec442f0560e01b81525f60048201526024015b60405180910390fd5b6100c45f83836100c8565b5050565b6001600160a01b0383166100f2578060025f8282546100e7919061056b565b909155506101629050565b6001600160a01b0383165f90815260208190526040902054818110156101445760405163391434e360e21b81526001600160a01b038516600482015260248101829052604481018390526064016100b0565b6001600160a01b0384165f9081526020819052604090209082900390555b6001600160a01b03821661017e5760028054829003905561019c565b6001600160a01b0382165f9081526020819052604090208054820190555b816001600160a01b0316836001600160a01b03167fddf252ad1be2c89b69c2b068fc378daa952ba7f163c4a11628f55a4df523b3ef836040516101e191815260200190565b60405180910390a3505050565b634e487b7160e01b5f52604160045260245ffd5b5f82601f830112610211575f80fd5b81516001600160401b0381111561022a5761022a6101ee565b604051601f8201601f19908116603f011681016001600160401b0381118282101715610258576102586101ee565b60405281815283820160200185101561026f575f80fd5b8160208501602083015e5f918101602001919091529392505050565b5f805f6060848603121561029d575f80fd5b83516001600160401b038111156102b2575f80fd5b6102be86828701610202565b602086015190945090506001600160401b038111156102db575f80fd5b6102e786828701610202565b925050604084015160ff811681146102fd575f80fd5b809150509250925092565b600181811c9082168061031c57607f821691505b60208210810361033a57634e487b7160e01b5f52602260045260245ffd5b50919050565b601f82111561038757805f5260205f20601f840160051c810160208510156103655750805b601f840160051c820191505b81811015610384575f8155600101610371565b50505b505050565b81516001600160401b038111156103a5576103a56101ee565b6103b9816103b38454610308565b84610340565b6020601f8211600181146103eb575f83156103d45750848201515b5f19600385901b1c1916600184901b178455610384565b5f84815260208120601f198516915b8281101561041a57878501518255602094850194600190920191016103fa565b508482101561043757868401515f19600387901b60f8161c191681555b50505050600190811b01905550565b634e487b7160e01b5f52601160045260245ffd5b6001815b60018411156104955780850481111561047957610479610446565b600184161561048757908102905b60019390931c92800261045e565b935093915050565b5f826104ab57506001610539565b816104b757505f610539565b81600181146104cd57600281146104d7576104f3565b6001915050610539565b60ff8411156104e8576104e8610446565b50506001821b610539565b5060208310610133831016604e8410600b8410161715610516575081810a610539565b6105225f19848461045a565b805f190482111561053557610535610446565b0290505b92915050565b5f61054d60ff84168361049d565b9392505050565b808202811582820484141761053957610539610446565b8082018082111561053957610539610446565b6107058061058b5f395ff3fe608060405234801561000f575f80fd5b506004361061009b575f3560e01c80634511bf6b116100635780634511bf6b1461011e57806370a082311461012b57806395d89b4114610153578063a9059cbb1461015b578063dd62ed3e1461016e575f80fd5b806306fdde031461009f578063095ea7b3146100bd57806318160ddd146100e057806323b872dd146100f2578063313ce56714610105575b5f80fd5b6100a76101a6565b6040516100b49190610575565b60405180910390f35b6100d06100cb3660046105c5565b610236565b60405190151581526020016100b4565b6002545b6040519081526020016100b4565b6100d06101003660046105ed565b61024f565b60055460ff165b60405160ff90911681526020016100b4565b60055461010c9060ff1681565b6100e4610139366004610627565b6001600160a01b03165f9081526020819052604090205490565b6100a7610272565b6100d06101693660046105c5565b610281565b6100e461017c366004610647565b6001600160a01b039182165f90815260016020908152604080832093909416825291909152205490565b6060600380546101b590610678565b80601f01602080910402602001604051908101604052809291908181526020018280546101e190610678565b801561022c5780601f106102035761010080835404028352916020019161022c565b820191905f5260205f20905b81548152906001019060200180831161020f57829003601f168201915b5050505050905090565b5f3361024381858561028e565b60019150505b92915050565b5f3361025c8582856102a0565b610267858585610320565b506001949350505050565b6060600480546101b590610678565b5f33610243818585610320565b61029b838383600161037d565b505050565b6001600160a01b038381165f908152600160209081526040808320938616835292905220545f19811461031a578181101561030c57604051637dc7a0d960e11b81526001600160a01b038416600482015260248101829052604481018390526064015b60405180910390fd5b61031a84848484035f61037d565b50505050565b6001600160a01b03831661034957604051634b637e8f60e11b81525f6004820152602401610303565b6001600160a01b0382166103725760405163ec442f0560e01b81525f6004820152602401610303565b61029b83838361044f565b6001600160a01b0384166103a65760405163e602df0560e01b81525f6004820152602401610303565b6001600160a01b0383166103cf57604051634a1406b160e11b81525f6004820152602401610303565b6001600160a01b038085165f908152600160209081526040808320938716835292905220829055801561031a57826001600160a01b0316846001600160a01b03167f8c5be1e5ebec7d5bd14f71427d1e84f3dd0314c0f7b2291e5b200ac8c7c3b9258460405161044191815260200190565b60405180910390a350505050565b6001600160a01b038316610479578060025f82825461046e91906106b0565b909155506104e99050565b6001600160a01b0383165f90815260208190526040902054818110156104cb5760405163391434e360e21b81526001600160a01b03851660048201526024810182905260448101839052606401610303565b6001600160a01b0384165f9081526020819052604090209082900390555b6001600160a01b03821661050557600280548290039055610523565b6001600160a01b0382165f9081526020819052604090208054820190555b816001600160a01b0316836001600160a01b03167fddf252ad1be2c89b69c2b068fc378daa952ba7f163c4a11628f55a4df523b3ef8360405161056891815260200190565b60405180910390a3505050565b602081525f82518060208401528060208501604085015e5f604082850101526040601f19601f83011684010191505092915050565b80356001600160a01b03811681146105c0575f80fd5b919050565b5f80604083850312156105d6575f80fd5b6105df836105aa565b946020939093013593505050565b5f805f606084860312156105ff575f80fd5b610608846105aa565b9250610616602085016105aa565b929592945050506040919091013590565b5f60208284031215610637575f80fd5b610640826105aa565b9392505050565b5f8060408385031215610658575f80fd5b610661836105aa565b915061066f602084016105aa565b90509250929050565b600181811c9082168061068c57607f821691505b6020821081036106aa57634e487b7160e01b5f52602260045260245ffd5b50919050565b8082018082111561024957634e487b7160e01b5f52601160045260245ffdfea2646970667358221220872c89e79beb3bb5dbc54217b16ace7b40134a6256053042c97c6b7fac1ca96b64736f6c634300081a0033608060405234801561000f575f80fd5b5060405161049c38038061049c83398101604081905261002e9161020e565b5f80546001600160a01b0319166001600160a01b0385169081178255604051636872765360e01b815260048101859052839190636872765390602401602060405180830381865afa158015610085573d5f803e3d5ffd5b505050506040513d601f19601f820116820180604052508101906100a9919061024d565b111561012a575f54604051636872765360e01b81526004810185905283916001600160a01b031690636872765390602401602060405180830381865afa1580156100f5573d5f803e3d5ffd5b505050506040513d601f19601f82011682018060405250810190610119919061024d565b6101239190610264565b90506101a1565b5f54604051636872765360e01b8152600481018590526001600160a01b0390911690636872765390602401602060405180830381865afa158015610170573d5f803e3d5ffd5b505050506040513d601f19601f82011682018060405250810190610194919061024d565b61019e9083610264565b90505b6305f5e1008111156102055760405162461bcd60e51b8152602060048201526024808201527f5072696365206f7261636c6520686173206265656e206d616e6970756c6174656044820152630c84074560e31b606482015260840160405180910390fd5b50505050610289565b5f805f60608486031215610220575f80fd5b83516001600160a01b0381168114610236575f80fd5b602085015160409095015190969495509392505050565b5f6020828403121561025d575f80fd5b5051919050565b8181038181111561028357634e487b7160e01b5f52601160045260245ffd5b92915050565b610206806102965f395ff3fe608060405234801561000f575f80fd5b506004361061004a575f3560e01c8063218751b21461004e5780635e694cf51461007d578063795dbede1461009e578063dc76fabc146100a7575b5f80fd5b5f54610060906001600160a01b031681565b6040516001600160a01b0390911681526020015b60405180910390f35b61009061008b3660046101a2565b6100af565b604051908152602001610074565b61009060015481565b610090610129565b5f8054600154604051636872765360e01b81526001600160a01b03909216916368727653916100e49160040190815260200190565b602060405180830381865afa1580156100ff573d5f803e3d5ffd5b505050506040513d601f19601f8201168201806040525081019061012391906101b9565b92915050565b5f8054600154604051631c98d5a960e11b81526001600160a01b0390921691633931ab529161015e9160040190815260200190565b602060405180830381865afa158015610179573d5f803e3d5ffd5b505050506040513d601f19601f8201168201806040525081019061019d91906101b9565b905090565b5f602082840312156101b2575f80fd5b5035919050565b5f602082840312156101c9575f80fd5b505191905056fea2646970667358221220a74211c0475138e8bea1b0f1c36b08e2bd67f44d2d7b6fdf0950f5e3599779cf64736f6c634300081a00336080604052348015600e575f80fd5b50604051610306380380610306833981016040819052602b9160ad565b3380604f57604051631e4fbdf760e01b81525f600482015260240160405180910390fd5b605681605e565b5060015560c3565b5f80546001600160a01b038381166001600160a01b0319831681178455604051919092169283917f8be0079c531659141344cd1fd0a4f28419497f9722a3daafe3b4186f6b6457e09190a35050565b5f6020828403121560bc575f80fd5b5051919050565b610236806100d05f395ff3fe608060405234801561000f575f80fd5b5060043610610060575f3560e01c80635e694cf514610064578063715018a61461008c5780638da5cb5b1461009657806391b7f5ed146100b0578063a035b1fe146100c3578063f2fde38b146100cc575b5f80fd5b6100796100723660046101bc565b5060015490565b6040519081526020015b60405180910390f35b6100946100df565b005b5f546040516001600160a01b039091168152602001610083565b6100946100be3660046101bc565b6100f2565b61007960015481565b6100946100da3660046101d3565b6100ff565b6100e7610141565b6100f05f61016d565b565b6100fa610141565b600155565b610107610141565b6001600160a01b03811661013557604051631e4fbdf760e01b81525f60048201526024015b60405180910390fd5b61013e8161016d565b50565b5f546001600160a01b031633146100f05760405163118cdaa760e01b815233600482015260240161012c565b5f80546001600160a01b038381166001600160a01b0319831681178455604051919092169283917f8be0079c531659141344cd1fd0a4f28419497f9722a3daafe3b4186f6b6457e09190a35050565b5f602082840312156101cc575f80fd5b5035919050565b5f602082840312156101e3575f80fd5b81356001600160a01b03811681146101f9575f80fd5b939250505056fea26469706673582212203f94f6ce6350e3f19a6587171076c2321362d5e90e10ddbe0646e5a604a4033764736f6c634300081a0033","linkReferences":{}},"methodIdentifiers":{"claimDust()":"df90ebe8","claimed()":"e834a834","curveDeployer()":"967f08b9","curvePool()":"218751b2","isSolved()":"64d98f6e","startingBlock()":"d91c98d3","tonyLend()":"bea7f289","usdc()":"3e413bee","usdcPriceOracle()":"f0fe9055","usde()":"0fd761e0","usdePriceOracle()":"372ca3ed"},"id":25}