{"abi":[{"type":"function","name":"allowance","inputs":[{"name":"owner","type":"address","internalType":"address"},{"name":"spender","type":"address","internalType":"address"},{"name":"id","type":"uint256","internalType":"uint256"}],"outputs":[{"name":"amount","type":"uint256","internalType":"uint256"}],"stateMutability":"view"},{"type":"function","name":"approve","inputs":[{"name":"spender","type":"address","internalType":"address"},{"name":"id","type":"uint256","internalType":"uint256"},{"name":"amount","type":"uint256","internalType":"uint256"}],"outputs":[{"name":"","type":"bool","internalType":"bool"}],"stateMutability":"nonpayable"},{"type":"function","name":"balanceOf","inputs":[{"name":"owner","type":"address","internalType":"address"},{"name":"id","type":"uint256","internalType":"uint256"}],"outputs":[{"name":"balance","type":"uint256","internalType":"uint256"}],"stateMutability":"view"},{"type":"function","name":"burn","inputs":[{"name":"from","type":"address","internalType":"address"},{"name":"id","type":"uint256","internalType":"uint256"},{"name":"amount","type":"uint256","internalType":"uint256"}],"outputs":[],"stateMutability":"nonpayable"},{"type":"function","name":"clear","inputs":[{"name":"currency","type":"address","internalType":"Currency"},{"name":"amount","type":"uint256","internalType":"uint256"}],"outputs":[],"stateMutability":"nonpayable"},{"type":"function","name":"collectProtocolFees","inputs":[{"name":"recipient","type":"address","internalType":"address"},{"name":"currency","type":"address","internalType":"Currency"},{"name":"amount","type":"uint256","internalType":"uint256"}],"outputs":[{"name":"amountCollected","type":"uint256","internalType":"uint256"}],"stateMutability":"nonpayable"},{"type":"function","name":"donate","inputs":[{"name":"key","type":"tuple","internalType":"struct PoolKey","components":[{"name":"currency0","type":"address","internalType":"Currency"},{"name":"currency1","type":"address","internalType":"Currency"},{"name":"fee","type":"uint24","internalType":"uint24"},{"name":"tickSpacing","type":"int24","internalType":"int24"},{"name":"hooks","type":"address","internalType":"contract IHooks"}]},{"name":"amount0","type":"uint256","internalType":"uint256"},{"name":"amount1","type":"uint256","internalType":"uint256"},{"name":"hookData","type":"bytes","internalType":"bytes"}],"outputs":[{"name":"delta","type":"int256","internalType":"BalanceDelta"}],"stateMutability":"nonpayable"},{"type":"function","name":"extsload","inputs":[{"name":"slot","type":"bytes32","internalType":"bytes32"}],"outputs":[{"name":"","type":"bytes32","internalType":"bytes32"}],"stateMutability":"view"},{"type":"function","name":"extsload","inputs":[{"name":"startSlot","type":"bytes32","internalType":"bytes32"},{"name":"nSlots","type":"uint256","internalType":"uint256"}],"outputs":[{"name":"","type":"bytes32[]","internalType":"bytes32[]"}],"stateMutability":"view"},{"type":"function","name":"extsload","inputs":[{"name":"slots","type":"bytes32[]","internalType":"bytes32[]"}],"outputs":[{"name":"","type":"bytes32[]","internalType":"bytes32[]"}],"stateMutability":"view"},{"type":"function","name":"exttload","inputs":[{"name":"slots","type":"bytes32[]","internalType":"bytes32[]"}],"outputs":[{"name":"","type":"bytes32[]","internalType":"bytes32[]"}],"stateMutability":"view"},{"type":"function","name":"exttload","inputs":[{"name":"slot","type":"bytes32","internalType":"bytes32"}],"outputs":[{"name":"","type":"bytes32","internalType":"bytes32"}],"stateMutability":"view"},{"type":"function","name":"initialize","inputs":[{"name":"key","type":"tuple","internalType":"struct PoolKey","components":[{"name":"currency0","type":"address","internalType":"Currency"},{"name":"currency1","type":"address","internalType":"Currency"},{"name":"fee","type":"uint24","internalType":"uint24"},{"name":"tickSpacing","type":"int24","internalType":"int24"},{"name":"hooks","type":"address","internalType":"contract IHooks"}]},{"name":"sqrtPriceX96","type":"uint160","internalType":"uint160"},{"name":"hookData","type":"bytes","internalType":"bytes"}],"outputs":[{"name":"tick","type":"int24","internalType":"int24"}],"stateMutability":"nonpayable"},{"type":"function","name":"isOperator","inputs":[{"name":"owner","type":"address","internalType":"address"},{"name":"operator","type":"address","internalType":"address"}],"outputs":[{"name":"isOperator","type":"bool","internalType":"bool"}],"stateMutability":"view"},{"type":"function","name":"mint","inputs":[{"name":"to","type":"address","internalType":"address"},{"name":"id","type":"uint256","internalType":"uint256"},{"name":"amount","type":"uint256","internalType":"uint256"}],"outputs":[],"stateMutability":"nonpayable"},{"type":"function","name":"modifyLiquidity","inputs":[{"name":"key","type":"tuple","internalType":"struct PoolKey","components":[{"name":"currency0","type":"address","internalType":"Currency"},{"name":"currency1","type":"address","internalType":"Currency"},{"name":"fee","type":"uint24","internalType":"uint24"},{"name":"tickSpacing","type":"int24","internalType":"int24"},{"name":"hooks","type":"address","internalType":"contract IHooks"}]},{"name":"params","type":"tuple","internalType":"struct IPoolManager.ModifyLiquidityParams","components":[{"name":"tickLower","type":"int24","internalType":"int24"},{"name":"tickUpper","type":"int24","internalType":"int24"},{"name":"liquidityDelta","type":"int256","internalType":"int256"},{"name":"salt","type":"bytes32","internalType":"bytes32"}]},{"name":"hookData","type":"bytes","internalType":"bytes"}],"outputs":[{"name":"callerDelta","type":"int256","internalType":"BalanceDelta"},{"name":"feesAccrued","type":"int256","internalType":"BalanceDelta"}],"stateMutability":"nonpayable"},{"type":"function","name":"owner","inputs":[],"outputs":[{"name":"","type":"address","internalType":"address"}],"stateMutability":"view"},{"type":"function","name":"protocolFeeController","inputs":[],"outputs":[{"name":"","type":"address","internalType":"contract IProtocolFeeController"}],"stateMutability":"view"},{"type":"function","name":"protocolFeesAccrued","inputs":[{"name":"currency","type":"address","internalType":"Currency"}],"outputs":[{"name":"amount","type":"uint256","internalType":"uint256"}],"stateMutability":"view"},{"type":"function","name":"setOperator","inputs":[{"name":"operator","type":"address","internalType":"address"},{"name":"approved","type":"bool","internalType":"bool"}],"outputs":[{"name":"","type":"bool","internalType":"bool"}],"stateMutability":"nonpayable"},{"type":"function","name":"setProtocolFee","inputs":[{"name":"key","type":"tuple","internalType":"struct PoolKey","components":[{"name":"currency0","type":"address","internalType":"Currency"},{"name":"currency1","type":"address","internalType":"Currency"},{"name":"fee","type":"uint24","internalType":"uint24"},{"name":"tickSpacing","type":"int24","internalType":"int24"},{"name":"hooks","type":"address","internalType":"contract IHooks"}]},{"name":"newProtocolFee","type":"uint24","internalType":"uint24"}],"outputs":[],"stateMutability":"nonpayable"},{"type":"function","name":"setProtocolFeeController","inputs":[{"name":"controller","type":"address","internalType":"contract IProtocolFeeController"}],"outputs":[],"stateMutability":"nonpayable"},{"type":"function","name":"settle","inputs":[],"outputs":[{"name":"","type":"uint256","internalType":"uint256"}],"stateMutability":"payable"},{"type":"function","name":"settleFor","inputs":[{"name":"recipient","type":"address","internalType":"address"}],"outputs":[{"name":"","type":"uint256","internalType":"uint256"}],"stateMutability":"payable"},{"type":"function","name":"supportsInterface","inputs":[{"name":"interfaceId","type":"bytes4","internalType":"bytes4"}],"outputs":[{"name":"","type":"bool","internalType":"bool"}],"stateMutability":"view"},{"type":"function","name":"swap","inputs":[{"name":"key","type":"tuple","internalType":"struct PoolKey","components":[{"name":"currency0","type":"address","internalType":"Currency"},{"name":"currency1","type":"address","internalType":"Currency"},{"name":"fee","type":"uint24","internalType":"uint24"},{"name":"tickSpacing","type":"int24","internalType":"int24"},{"name":"hooks","type":"address","internalType":"contract IHooks"}]},{"name":"params","type":"tuple","internalType":"struct IPoolManager.SwapParams","components":[{"name":"zeroForOne","type":"bool","internalType":"bool"},{"name":"amountSpecified","type":"int256","internalType":"int256"},{"name":"sqrtPriceLimitX96","type":"uint160","internalType":"uint160"}]},{"name":"hookData","type":"bytes","internalType":"bytes"}],"outputs":[{"name":"swapDelta","type":"int256","internalType":"BalanceDelta"}],"stateMutability":"nonpayable"},{"type":"function","name":"sync","inputs":[{"name":"currency","type":"address","internalType":"Currency"}],"outputs":[],"stateMutability":"nonpayable"},{"type":"function","name":"take","inputs":[{"name":"currency","type":"address","internalType":"Currency"},{"name":"to","type":"address","internalType":"address"},{"name":"amount","type":"uint256","internalType":"uint256"}],"outputs":[],"stateMutability":"nonpayable"},{"type":"function","name":"transfer","inputs":[{"name":"receiver","type":"address","internalType":"address"},{"name":"id","type":"uint256","internalType":"uint256"},{"name":"amount","type":"uint256","internalType":"uint256"}],"outputs":[{"name":"","type":"bool","internalType":"bool"}],"stateMutability":"nonpayable"},{"type":"function","name":"transferFrom","inputs":[{"name":"sender","type":"address","internalType":"address"},{"name":"receiver","type":"address","internalType":"address"},{"name":"id","type":"uint256","internalType":"uint256"},{"name":"amount","type":"uint256","internalType":"uint256"}],"outputs":[{"name":"","type":"bool","internalType":"bool"}],"stateMutability":"nonpayable"},{"type":"function","name":"transferOwnership","inputs":[{"name":"newOwner","type":"address","internalType":"address"}],"outputs":[],"stateMutability":"nonpayable"},{"type":"function","name":"unlock","inputs":[{"name":"data","type":"bytes","internalType":"bytes"}],"outputs":[{"name":"result","type":"bytes","internalType":"bytes"}],"stateMutability":"nonpayable"},{"type":"function","name":"updateDynamicLPFee","inputs":[{"name":"key","type":"tuple","internalType":"struct PoolKey","components":[{"name":"currency0","type":"address","internalType":"Currency"},{"name":"currency1","type":"address","internalType":"Currency"},{"name":"fee","type":"uint24","internalType":"uint24"},{"name":"tickSpacing","type":"int24","internalType":"int24"},{"name":"hooks","type":"address","internalType":"contract IHooks"}]},{"name":"newDynamicLPFee","type":"uint24","internalType":"uint24"}],"outputs":[],"stateMutability":"nonpayable"},{"type":"event","name":"Approval","inputs":[{"name":"owner","type":"address","indexed":true,"internalType":"address"},{"name":"spender","type":"address","indexed":true,"internalType":"address"},{"name":"id","type":"uint256","indexed":true,"internalType":"uint256"},{"name":"amount","type":"uint256","indexed":false,"internalType":"uint256"}],"anonymous":false},{"type":"event","name":"Donate","inputs":[{"name":"id","type":"bytes32","indexed":true,"internalType":"PoolId"},{"name":"sender","type":"address","indexed":true,"internalType":"address"},{"name":"amount0","type":"uint256","indexed":false,"internalType":"uint256"},{"name":"amount1","type":"uint256","indexed":false,"internalType":"uint256"}],"anonymous":false},{"type":"event","name":"Initialize","inputs":[{"name":"id","type":"bytes32","indexed":true,"internalType":"PoolId"},{"name":"currency0","type":"address","indexed":true,"internalType":"Currency"},{"name":"currency1","type":"address","indexed":true,"internalType":"Currency"},{"name":"fee","type":"uint24","indexed":false,"internalType":"uint24"},{"name":"tickSpacing","type":"int24","indexed":false,"internalType":"int24"},{"name":"hooks","type":"address","indexed":false,"internalType":"contract IHooks"},{"name":"sqrtPriceX96","type":"uint160","indexed":false,"internalType":"uint160"},{"name":"tick","type":"int24","indexed":false,"internalType":"int24"}],"anonymous":false},{"type":"event","name":"ModifyLiquidity","inputs":[{"name":"id","type":"bytes32","indexed":true,"internalType":"PoolId"},{"name":"sender","type":"address","indexed":true,"internalType":"address"},{"name":"tickLower","type":"int24","indexed":false,"internalType":"int24"},{"name":"tickUpper","type":"int24","indexed":false,"internalType":"int24"},{"name":"liquidityDelta","type":"int256","indexed":false,"internalType":"int256"},{"name":"salt","type":"bytes32","indexed":false,"internalType":"bytes32"}],"anonymous":false},{"type":"event","name":"OperatorSet","inputs":[{"name":"owner","type":"address","indexed":true,"internalType":"address"},{"name":"operator","type":"address","indexed":true,"internalType":"address"},{"name":"approved","type":"bool","indexed":false,"internalType":"bool"}],"anonymous":false},{"type":"event","name":"OwnershipTransferred","inputs":[{"name":"user","type":"address","indexed":true,"internalType":"address"},{"name":"newOwner","type":"address","indexed":true,"internalType":"address"}],"anonymous":false},{"type":"event","name":"ProtocolFeeControllerUpdated","inputs":[{"name":"protocolFeeController","type":"address","indexed":true,"internalType":"address"}],"anonymous":false},{"type":"event","name":"ProtocolFeeUpdated","inputs":[{"name":"id","type":"bytes32","indexed":true,"internalType":"PoolId"},{"name":"protocolFee","type":"uint24","indexed":false,"internalType":"uint24"}],"anonymous":false},{"type":"event","name":"Swap","inputs":[{"name":"id","type":"bytes32","indexed":true,"internalType":"PoolId"},{"name":"sender","type":"address","indexed":true,"internalType":"address"},{"name":"amount0","type":"int128","indexed":false,"internalType":"int128"},{"name":"amount1","type":"int128","indexed":false,"internalType":"int128"},{"name":"sqrtPriceX96","type":"uint160","indexed":false,"internalType":"uint160"},{"name":"liquidity","type":"uint128","indexed":false,"internalType":"uint128"},{"name":"tick","type":"int24","indexed":false,"internalType":"int24"},{"name":"fee","type":"uint24","indexed":false,"internalType":"uint24"}],"anonymous":false},{"type":"event","name":"Transfer","inputs":[{"name":"caller","type":"address","indexed":false,"internalType":"address"},{"name":"from","type":"address","indexed":true,"internalType":"address"},{"name":"to","type":"address","indexed":true,"internalType":"address"},{"name":"id","type":"uint256","indexed":true,"internalType":"uint256"},{"name":"amount","type":"uint256","indexed":false,"internalType":"uint256"}],"anonymous":false},{"type":"error","name":"AlreadyUnlocked","inputs":[]},{"type":"error","name":"ContractUnlocked","inputs":[]},{"type":"error","name":"CurrenciesOutOfOrderOrEqual","inputs":[{"name":"currency0","type":"address","internalType":"address"},{"name":"currency1","type":"address","internalType":"address"}]},{"type":"error","name":"CurrencyNotSettled","inputs":[]},{"type":"error","name":"DelegateCallNotAllowed","inputs":[]},{"type":"error","name":"InvalidBips","inputs":[]},{"type":"error","name":"InvalidCaller","inputs":[]},{"type":"error","name":"ManagerLocked","inputs":[]},{"type":"error","name":"MustClearExactPositiveDelta","inputs":[]},{"type":"error","name":"NonzeroNativeValue","inputs":[]},{"type":"error","name":"PoolNotInitialized","inputs":[]},{"type":"error","name":"ProtocolFeeCannotBeFetched","inputs":[]},{"type":"error","name":"ProtocolFeeTooLarge","inputs":[{"name":"fee","type":"uint24","internalType":"uint24"}]},{"type":"error","name":"SwapAmountCannotBeZero","inputs":[]},{"type":"error","name":"TickSpacingTooLarge","inputs":[{"name":"tickSpacing","type":"int24","internalType":"int24"}]},{"type":"error","name":"TickSpacingTooSmall","inputs":[{"name":"tickSpacing","type":"int24","internalType":"int24"}]},{"type":"error","name":"UnauthorizedDynamicLPFeeUpdate","inputs":[]}],"bytecode":{"object":"0x60a0604052348015600e575f80fd5b505f80546001600160a01b031916339081178255604051909182917f8be0079c531659141344cd1fd0a4f28419497f9722a3daafe3b4186f6b6457e0908290a35030608052608051614f2261006b5f395f6118900152614f225ff3fe6080604052600436106101e5575f3560e01c80635a6bcfda11610108578063a58411941161009d578063f135baaa1161006d578063f135baaa14610602578063f2fde38b14610621578063f3cd914c14610640578063f5298aca1461065f578063fe99049a1461067e575f80fd5b8063a58411941461056c578063b6363cf21461058b578063dbd035ff146105c4578063f02de3b2146105e3575f80fd5b80638161b874116100d85780638161b874146104cd5780638da5cb5b146104ec57806397e8cd4e146105225780639bf6645f1461054d575f80fd5b80635a6bcfda14610429578063695c5bf51461045d5780637e87ce7d1461048f57806380f0b44c146104ae575f80fd5b80632d7713891161017e57806348c894911161014e57806348c894911461038357806352759651146103af578063558a7297146103ce578063598af9e7146103ed575f80fd5b80632d7713891461030657806335fd631a146103255780633dd45adb14610351578063426a849314610364575f80fd5b806311da60b4116101b957806311da60b4146102a1578063156e29f6146102a95780631e2eaeaf146102c8578063234266d7146102e7575f80fd5b8062fdd58e146101e957806301ffc9a714610232578063095bcdb6146102615780630b0d9c0914610280575b5f80fd5b3480156101f4575f80fd5b5061021f610203366004614367565b600460209081525f928352604080842090915290825290205481565b6040519081526020015b60405180910390f35b34801561023d575f80fd5b5061025161024c366004614391565b61069d565b6040519015158152602001610229565b34801561026c575f80fd5b5061025161027b3660046143b8565b6106d3565b34801561028b575f80fd5b5061029f61029a3660046143ea565b61078d565b005b61021f6107de565b3480156102b4575f80fd5b5061029f6102c33660046143b8565b610810565b3480156102d3575f80fd5b5061021f6102e2366004614428565b61085b565b3480156102f2575f80fd5b5061021f6103013660046145ab565b610865565b348015610311575f80fd5b5061029f610320366004614610565b610943565b348015610330575f80fd5b5061034461033f36600461462b565b6109d9565b604051610229919061464b565b61021f61035f366004614610565b610a16565b34801561036f575f80fd5b5061025161037e3660046143b8565b610a48565b34801561038e575f80fd5b506103a261039d36600461468d565b610aac565b60405161022991906146cc565b3480156103ba575f80fd5b5061029f6103c9366004614701565b610b82565b3480156103d9575f80fd5b506102516103e8366004614742565b610bf1565b3480156103f8575f80fd5b5061021f6104073660046143ea565b600560209081525f938452604080852082529284528284209052825290205481565b348015610434575f80fd5b5061044861044336600461476c565b610c60565b60408051928352602083019190915201610229565b348015610468575f80fd5b5061047c61047736600461480f565b610dff565b60405160029190910b8152602001610229565b34801561049a575f80fd5b5061029f6104a9366004614701565b610fed565b3480156104b9575f80fd5b5061029f6104c8366004614367565b61109f565b3480156104d8575f80fd5b5061021f6104e73660046143ea565b61110c565b3480156104f7575f80fd5b505f5461050a906001600160a01b031681565b6040516001600160a01b039091168152602001610229565b34801561052d575f80fd5b5061021f61053c366004614610565b60016020525f908152604090205481565b348015610558575f80fd5b50610344610567366004614857565b6111bf565b348015610577575f80fd5b5061029f610586366004614610565b6111f8565b348015610596575f80fd5b506102516105a53660046148c8565b600360209081525f928352604080842090915290825290205460ff1681565b3480156105cf575f80fd5b506103446105de366004614857565b611257565b3480156105ee575f80fd5b5060025461050a906001600160a01b031681565b34801561060d575f80fd5b5061021f61061c366004614428565b61128e565b34801561062c575f80fd5b5061029f61063b366004614610565b611298565b34801561064b575f80fd5b5061021f61065a3660046148ff565b61132a565b34801561066a575f80fd5b5061029f6106793660046143b8565b611470565b348015610689575f80fd5b5061025161069836600461499f565b6114bb565b5f6301ffc9a760e01b6001600160e01b0319831614806106cd5750630f632fb360e01b6001600160e01b03198316145b92915050565b335f9081526004602090815260408083208584529091528120805483919083906106fe9084906149f6565b90915550506001600160a01b0384165f90815260046020908152604080832086845290915281208054849290610735908490614a09565b909155505060408051338082526020820185905285926001600160a01b038816927f1b3d7edb2e9c0b0e7c525b20aaaef0f5940d2ed71663c7d39266ecafac72885991015b60405180910390a45060015b9392505050565b5f80516020614ecd8339815191525c6107b0576107b06354e3ca0d60e01b61162d565b6107c5836107bd83611635565b5f0333611661565b6107d96001600160a01b03841683836116b4565b505050565b5f5f80516020614ecd8339815191525c610802576108026354e3ca0d60e01b61162d565b61080b3361174a565b905090565b5f80516020614ecd8339815191525c610833576108336354e3ca0d60e01b61162d565b81610841816107bd84611635565b610855846001600160a01b03831684611800565b50505050565b5f81545f5260205ff35b5f5f80516020614ecd8339815191525c610889576108896354e3ca0d60e01b61162d565b610891611885565b60a086205f8181526006602052604090206108ab816118c7565b60808801516108c7906001600160a01b031689898989896118e8565b6108d2818888611965565b92506108df888433611a08565b6040805188815260208101889052339184917f29ef05caaff9404b7cb6d1c0e9bbae9eaa7ab2541feba1a9c4248594c08156cb910160405180910390a36080880151610938906001600160a01b03168989898989611a30565b505095945050505050565b5f546001600160a01b031633146109905760405162461bcd60e51b815260206004820152600c60248201526b15539055551213d49256915160a21b60448201526064015b60405180910390fd5b600280546001600160a01b0319166001600160a01b0383169081179091556040517fb4bd8ef53df690b9943d3318996006dbb82a25f54719d8c8035b516a2a5b8acc905f90a250565b6060604051808360051b6020835284602084015260408301925080830190505b855483526020830192506001860195508083106109f95781810382f35b5f5f80516020614ecd8339815191525c610a3a57610a3a6354e3ca0d60e01b61162d565b6106cd8261174a565b919050565b335f8181526005602090815260408083206001600160a01b03881680855290835281842087855290925280832085905551919285927fb3fd5071835887567a0671151121894ddccc2842f1d10bedad13e0d17cace9a79061077a9087815260200190565b60605f80516020614ecd8339815191525c15610ad257610ad26328486b6360e11b61162d565b610ada611aa2565b6040516348eeb9a360e11b815233906391dd734690610aff9086908690600401614a44565b5f604051808303815f875af1158015610b1a573d5f803e3d5ffd5b505050506040513d5f823e601f3d908101601f19168201604052610b419190810190614a57565b90507f7d4b3164c6e45b97e7d87b7125a44c5828d005af88f9d751cfd78729c5d99a0b5c15610b7a57610b7a635212cba160e01b61162d565b6106cd611ab5565b604082015162ffffff1662800000141580610bb3575081608001516001600160a01b0316336001600160a01b031614155b15610bc857610bc86330d2164160e01b61162d565b610bd68162ffffff16611ac7565b60a082205f8181526006602052604090206107d99083611aed565b335f8181526003602090815260408083206001600160a01b038716808552908352818420805460ff191687151590811790915591519182529293917fceb576d9f15e4e200fdb5096d64d5dfd667e16def20c1eefd14256d8e3faa267910160405180910390a350600192915050565b5f805f80516020614ecd8339815191525c610c8557610c856354e3ca0d60e01b61162d565b610c8d611885565b60a086205f818152600660205260409020610ca7816118c7565b6080880151610cc2906001600160a01b031689898989611b16565b5f610d296040518060c00160405280336001600160a01b031681526020018a5f015160020b81526020018a6020015160020b8152602001610d068b60400151611c18565b600f0b81526060808d015160020b60208301528b01516040909101528390611c34565b94509050610d378185611fac565b94505050336001600160a01b0316817ff208f4912782fd25c7f114ca3723a2d5dd6f3bcc3ac8db5af63baa85f711d5ec885f015189602001518a604001518b60600151604051610da89493929190600294850b81529290930b60208301526040820152606081019190915260800190565b60405180910390a360808701515f90610dcf906001600160a01b0316898987878b8b611fdf565b90945090508015610de957610de988828a60800151611a08565b610df4888533611a08565b505094509492505050565b5f610e08611885565b6060850151617fff60029190910b1315610e33576060850151610e33906316e0049f60e31b90612104565b600160020b856060015160020b1215610e5d576060850151610e5d90631d3d20b160e31b90612104565b845160208601516001600160a01b03908116911610610e8f5784516020860151610e8f916306e6c98360e41b91612113565b610eb3856040015186608001516001600160a01b031661213c90919063ffffffff16565b610ece576080850151610ece90630732d7b560e51b906121fd565b5f610ee1866040015162ffffff16612212565b6080870151909150610eff906001600160a01b031687878787612237565b60a086205f610f0d886122a8565b5f838152600660205260409020909150610f2990888386612391565b6080890151909450610f48906001600160a01b03168989878a8a6123fd565b87602001516001600160a01b0316885f01516001600160a01b0316837fdd466e674ea557f56295e2d0218a125ea4b4f0f6f3307b95f85e6110838d64388b604001518c606001518d608001518d8b604051610fda95949392919062ffffff959095168552600293840b60208601526001600160a01b03928316604086015291166060840152900b608082015260a00190565b60405180910390a4505050949350505050565b6002546001600160a01b0316331461100f5761100f6348f5c3ed60e01b61162d565b6103e9610fff821610623e900062fff0008316101661103e5761103e63a7abe2f760e01b62ffffff83166121fd565b60a082206110608261105a835f90815260066020526040902090565b90612470565b60405162ffffff8316815281907fe9c42593e71f84403b84352cd168d693e2c9fcd1fdbcc3feb21d92b43e6696f99060200160405180910390a2505050565b5f80516020614ecd8339815191525c6110c2576110c26354e3ca0d60e01b61162d565b335f9081526001600160a01b038316602052604081205c906110e383611635565b90508181600f0b146110ff576110ff63bda73abf60e01b61162d565b61085584825f0333611661565b6002545f906001600160a01b03163314611130576111306348f5c3ed60e01b61162d565b5f80516020614ecd8339815191525c1561115457611154631f2fa7eb60e11b61162d565b81156111605781611179565b6001600160a01b0383165f908152600160205260409020545b6001600160a01b0384165f908152600160205260408120805492935083929091906111a59084906149f6565b9091555061078690506001600160a01b03841685836116b4565b606060405180602082528360208301526040820191508360051b8201855b80355c8452602093840193018184106111dd575b5081810382f35b5f80516020614ecd8339815191525c61121b5761121b6354e3ca0d60e01b61162d565b6001600160a01b03811661123457611231612497565b50565b5f611247826001600160a01b03166124bc565b90506112538282612538565b5050565b606060405180602082528360208301526040820191508360051b8201855b803554845260209384019301818410156111f157611275565b5f815c5f5260205ff35b5f546001600160a01b031633146112e05760405162461bcd60e51b815260206004820152600c60248201526b15539055551213d49256915160a21b6044820152606401610987565b5f80546001600160a01b0319166001600160a01b0383169081178255604051909133917f8be0079c531659141344cd1fd0a4f28419497f9722a3daafe3b4186f6b6457e09190a350565b5f5f80516020614ecd8339815191525c61134e5761134e6354e3ca0d60e01b61162d565b611356611885565b83602001515f036113715761137163be8b850760e01b61162d565b60a085205f81815260066020526040902061138b816118c7565b60808701515f90819081906113ac906001600160a01b03168b8b8b8b61258b565b80935081955082945050505061141b84866040518060a001604052808681526020018e6060015160020b81526020018d5f0151151581526020018d604001516001600160a01b031681526020018562ffffff168152508c5f0151611414578d602001516126a7565b8d516126a7565b60808b01519096505f925061143f91506001600160a01b03168a8a888b8b88612785565b909550905080156114595761145989828b60800151611a08565b611464898633611a08565b50505050949350505050565b5f80516020614ecd8339815191525c611493576114936354e3ca0d60e01b61162d565b816114a7816114a184611635565b33611661565b610855846001600160a01b038316846128a6565b5f336001600160a01b038616148015906114f857506001600160a01b0385165f90815260036020908152604080832033845290915290205460ff16155b15611568576001600160a01b0385165f90815260056020908152604080832033845282528083208684529091529020545f1981146115665761153a83826149f6565b6001600160a01b0387165f90815260056020908152604080832033845282528083208884529091529020555b505b6001600160a01b0385165f9081526004602090815260408083208684529091528120805484929061159a9084906149f6565b90915550506001600160a01b0384165f908152600460209081526040808320868452909152812080548492906115d1908490614a09565b9091555050604080513381526020810184905284916001600160a01b0380881692908916917f1b3d7edb2e9c0b0e7c525b20aaaef0f5940d2ed71663c7d39266ecafac728859910160405180910390a45060015b949350505050565b805f5260045ffd5b5f6f80000000000000000000000000000000821061165d5761165d6393dafdf160e01b61162d565b5090565b81600f0b5f0361167057505050565b5f806116866001600160a01b0386168486612964565b91509150805f0361169e5761169961299d565b6116ad565b815f036116ad576116ad6129eb565b5050505050565b5f6001600160a01b0384166116e8575f805f8085875af19050806116e3576116e3638549db5960e01b84612a39565b610855565b60405163a9059cbb60e01b81526001600160a01b038416600482015282602482015260205f6044835f895af13d15601f3d1160015f511416171691505f81525f60208201525f6040820152508061085557610855632c4b17e760e21b85612a39565b5f7f27e098c505d44ec3574004bca052aabf76bd35004c182099d8c575fb238593b95c6001600160a01b038116611783573491506117e7565b341561179957611799635876424f60e11b61162d565b7f1e0745a7db1623981f0b2a5d4232364c00787266eb75ad546f190e6cebe9bd955c5f6117ce6001600160a01b0384166124bc565b90506117da82826149f6565b93506117e4612497565b50505b6117fa816117f484611635565b85611661565b50919050565b6001600160a01b0383165f90815260046020908152604080832085845290915281208054839290611832908490614a09565b9091555050604080513381526020810183905283916001600160a01b038616915f917f1b3d7edb2e9c0b0e7c525b20aaaef0f5940d2ed71663c7d39266ecafac72885991015b60405180910390a4505050565b306001600160a01b037f000000000000000000000000000000000000000000000000000000000000000016146118c5576118c56306c4a1c760e11b61162d565b565b80546001600160a01b03165f036112315761123163486aa30760e01b61162d565b85336001600160a01b0382161461195c57602087161561195c5761195a33878787878760405160240161192096959493929190614b3e565b60408051601f198184030181529190526020810180516001600160e01b0316635b54587d60e11b1790526001600160a01b03891690612a6c565b505b50505050505050565b60038301545f906001600160801b031680820361198c5761198c63a74f97ab60e01b61162d565b6119ba61199885611635565b5f036119a385611635565b5f0360809190911b6001600160801b039091161790565b915083156119de576001850180546001600160801b038316600160801b8702040190555b8215611a00576002850180546001600160801b038316600160801b8602040190555b509392505050565b8251611a1e90611a188460801d90565b83611661565b6107d98360200151611a1884600f0b90565b85336001600160a01b0382161461195c57601087161561195c5761195a338787878787604051602401611a6896959493929190614b3e565b60408051601f198184030181529190526020810180516001600160e01b031663e1b4af6960e01b1790526001600160a01b03891690612a6c565b60015f80516020614ecd8339815191525d565b5f5f80516020614ecd8339815191525d565b620f424062ffffff8216111561123157611231631400211360e01b62ffffff83166121fd565b611af6826118c7565b815462ffffff60d01b191662ffffff60d01b60d083901b16175b90915550565b84336001600160a01b03821614611c10575f8460400151138015611b3d5750610800861615155b15611b9e57611b983386868686604051602401611b5e959493929190614b88565b60408051601f198184030181529190526020810180516001600160e01b031663259982e560e01b1790526001600160a01b03881690612a6c565b50611c10565b5f846040015113158015611bb55750610200861615155b15611c105761195c3386868686604051602401611bd6959493929190614b88565b60408051601f198184030181529190526020810180516001600160e01b031663021d0ee760e41b1790526001600160a01b03881690612a6c565b505050505050565b80600f81900b8114610a4357610a436393dafdf160e01b61162d565b6060810151602082015160408301515f9283929091611c538282612afd565b604080516080810182525f80825260208201819052918101829052606081019190915283600f0b5f14611d9657611c8c8884865f612b5d565b6001600160801b0316602083015215158152611cab8883866001612b5d565b6001600160801b03166060830152151560408201525f600f85900b12611d5b5760808701515f9060020b620d89e71981810783139082900503620d89e891909105036001016001600160801b03049050806001600160801b031682602001516001600160801b03161115611d2a57611d2a63b8e3c38560e01b85612104565b806001600160801b031682606001516001600160801b03161115611d5957611d5963b8e3c38560e01b84612104565b505b805115611d77576080870151611d779060058a01908590612c1e565b806040015115611d96576080870151611d969060058a01908490612c1e565b5f80611da38a8686612c70565b8a5160a08c015160408051602681019290925260068083018a9052600383018b9052928252603a600c8301205f838301819052602080850182905293819052908152928f01909152812092945090925080611e00838a8787612d24565b91509150611e2c611e1083611635565b611e1983611635565b6001600160801b031660809190911b1790565b995050505050505f84600f0b1215611e9557805115611e6857600283810b5f90815260048a016020526040812081815560018101829055909101555b806040015115611e9557600282810b5f90815260048a016020526040812081815560018101829055909101555b5082600f0b5f14611fa25786545f80611eb18360a01c60020b90565b6001600160a01b038416915091508460020b8260020b1215611f0057611ef9611ef3611eee611edf88612ddd565b611ee888612ddd565b8a613095565b611c18565b60801b90565b9750611f9e565b8360020b8260020b1215611f7957611f37611f21611eee83611ee888612ddd565b611e19611eee611f3089612ddd565b858b6130cd565b60038b0154909850611f52906001600160801b0316876130f9565b60038b0180546001600160801b0319166001600160801b0392909216919091179055611f9e565b611f9b5f611e19611eee611f8c89612ddd565b611f9589612ddd565b8b6130cd565b97505b5050505b5050509250929050565b5f608082811d9084901d01600f83810b9085900b01611fd6611fcd83611c18565b611e1983611c18565b95945050505050565b5f806001600160a01b0389163303611ffb57508490505f6120f8565b8591505f8760400151131561208a5761040089161561208557612076338989898989896040516024016120349796959493929190614be8565b60408051601f198184030181529190526020810180516001600160e01b03166327c18fbf60e21b17905260028b1615155b6001600160a01b038c169190613120565b90506120828282613161565b91505b6120f8565b6101008916156120f8576120e9338989898989896040516024016120b49796959493929190614be8565b60408051601f198184030181529190526020810180516001600160e01b0316633615df3f60e11b17905260018b161515612065565b90506120f58282613161565b91505b97509795505050505050565b815f528060020b60045260245ffd5b6040518381526001600160a01b03831660048201526001600160a01b0382166024820152604481fd5b5f6080831615801561215057506008831615155b1561215c57505f6106cd565b6040831615801561216f57506004831615155b1561217b57505f6106cd565b610400831615801561218f57506002831615155b1561219b57505f6106cd565b61010083161580156121af57506001831615155b156121bb57505f6106cd565b6001600160a01b038316156121ec57613fff83161515806121e757506280000062ffffff831614610786565b610786565b5062ffffff16628000001415919050565b815f526001600160a01b03811660045260245ffd5b5f6280000062ffffff83160361222957505f919050565b61165d8262ffffff16611ac7565b84336001600160a01b03821614611c1057612000861615611c105761195c338686868660405160240161226e959493929190614c56565b60408051601f198184030181529190526020810180516001600160e01b03166301a206c160e51b1790526001600160a01b03881690612a6c565b6002545f906001600160a01b031615610a43575f6122c7456064613182565b9050805a10156122e1576122e1630f724b8160e11b61162d565b6002546040516001600160a01b03909116905f90612303908690602401614c96565b60408051601f19818403018152919052602080820180516001600160e01b031663553bfc3760e01b17815282519293505f9283929183919082888af15f513d6020149091169250905081801561235d57508062ffffff1681145b801561237a57506103e9610fff821610623e900062fff000831610165b612384575f612386565b805b979650505050505050565b83545f906001600160a01b0316156123b3576123b3637983c05160e01b61162d565b6123bc846131bd565b905062ffffff60d01b60d083901b1662ffffff60a01b60a083901b166001600160a01b0386161760b885901b62ffffff60b81b161717909455509192915050565b85336001600160a01b0382161461195c5761100087161561195c5761195a33878787878760405160240161243696959493929190614ca4565b60408051601f198184030181529190526020810180516001600160e01b031663a910f80f60e01b1790526001600160a01b03891690612a6c565b612479826118c7565b815462ffffff60b81b191662ffffff60b81b60b883901b1617611b10565b5f7f27e098c505d44ec3574004bca052aabf76bd35004c182099d8c575fb238593b95d565b5f6001600160a01b0382166124d2575047919050565b6040516370a0823160e01b81523060048201526001600160a01b038316906370a0823190602401602060405180830381865afa158015612514573d5f803e3d5ffd5b505050506040513d601f19601f820116820180604052508101906106cd9190614cee565b6001600160a01b0382167f27e098c505d44ec3574004bca052aabf76bd35004c182099d8c575fb238593b95d807f1e0745a7db1623981f0b2a5d4232364c00787266eb75ad546f190e6cebe9bd955d5050565b60208301515f806001600160a01b03881633036125aa575f915061269c565b608088161561269c575f61260089338a8a8a8a6040516024016125d1959493929190614d05565b60408051601f198184030181529190526020810180516001600160e01b03166315d7892d60e21b179052612a6c565b9050805160601461261b5761261b631e048e1d60e01b61162d565b604088015162ffffff16628000000361263657606081015191505b600889161561269a57604081015192505f6126518460801d90565b905080600f0b5f14612698575f851261266e600f83900b87614d5e565b95508061267d575f8612612681565b5f86135b1561269657612696637d05b8eb60e11b61162d565b505b505b505b955095509592505050565b5f808080806126b6898861345a565b93509350935093505f8311156126e4576001600160a01b0386165f9081526001602052604090208054840190555b33887f40e9cecb9f5f1f1c5b9c97dec2917b7ee92e57ba5563708daca94dd84ad7112f6127118760801d90565b61271b88600f0b90565b85516040808801516020808a01518351600f97880b81529590960b908501526001600160a01b03909216908301526001600160801b0316606082015260029190910b608082015262ffffff861660a082015260c00160405180910390a35091979650505050505050565b5f806001600160a01b03891633036127a157508490505f6120f8565b5f6127ac8460801d90565b90505f6127b985600f0b90565b905060408b161561283357612826611eee338c8c8c8c8c6040516024016127e596959493929190614d85565b60408051601f198184030181529190526020810180516001600160e01b031663b47b2fb160e01b17905260048e1615156001600160a01b038f169190613120565b6128309082614de5565b90505b5f81600f0b5f141580612849575082600f0b5f14155b1561289457895160208b01515f1390151514612874576001600160801b038316608083901b17612885565b6001600160801b038216608084901b175b90506128918982613161565b98505b979b979a509698505050505050505050565b336001600160a01b03841681148015906128e557506001600160a01b038085165f9081526003602090815260408083209385168352929052205460ff16155b15612959576001600160a01b038085165f9081526005602090815260408083209385168352928152828220868352905220545f1981146129575761292983826149f6565b6001600160a01b038087165f9081526005602090815260408083209387168352928152828220888352905220555b505b610855848484613abc565b6001600160a01b038281165f90815290841660205260408120805c919061298f600f85900b84614d5e565b915081815d50935093915050565b7f7d4b3164c6e45b97e7d87b7125a44c5828d005af88f9d751cfd78729c5d99a0b5c600181039050807f7d4b3164c6e45b97e7d87b7125a44c5828d005af88f9d751cfd78729c5d99a0b5d50565b7f7d4b3164c6e45b97e7d87b7125a44c5828d005af88f9d751cfd78729c5d99a0b5c600181019050807f7d4b3164c6e45b97e7d87b7125a44c5828d005af88f9d751cfd78729c5d99a0b5d50565b3d60405183815282600482015260406024820152816044820152815f606483013e602080601f8401040260640191508181fd5b60605f805f8451602086015f885af1905080612a9357612a9363319d54c360e01b85612a39565b6040519150601f19603f3d011682016040523d82523d5f602084013e602082511080612ae1575060208301516001600160e01b031916612ad4836020015190565b6001600160e01b03191614155b15612af657612af6631e048e1d60e01b61162d565b5092915050565b8060020b8260020b12612b1c57612b1c63c4433ed560e01b8383613b38565b620d89e719600283900b1215612b3d57612b3d63d5e2f7ab60e01b83612104565b620d89e8600282900b13156112535761125363035aeeff60e31b82612104565b600283900b5f908152600485016020526040812080548291906001600160801b03811690600160801b9004600f0b612b9582886130f9565b6001600160801b03808216159084168015919091141596509094505f03612bdf57885460a01c60020b60020b8860020b13612bdf576001808a0154908401556002808a0154908401555b5f86612bf457612bef8883614de5565b612bfe565b612bfe8883614e24565b90508060801b6001600160801b0386161784555050505094509492505050565b600291820b910b80820715612c4b5760405163d4d8f3e681528260208201528160408201526044601c8201fd5b80820591508160081d5f528260205260405f20600160ff84161b815418815550505050565b600282810b5f81815260048601602052604080822085850b83529082208754929485949293919260a09290921c900b90811215612cc6578160010154836001015403945081600201548360020154039350612d19565b8560020b8160020b12612cf2578260010154826001015403945082600201548260020154039350612d19565b81600101548360010154896001015403039450816002015483600201548960020154030393505b505050935093915050565b83545f9081906001600160801b0316600f86900b8203612d6357806001600160801b03165f03612d5e57612d5e632bbfae4960e21b61162d565b612d89565b612d6d81876130f9565b87546001600160801b0319166001600160801b03919091161787555b612da787600101548603826001600160801b0316600160801b613b55565b9250612dc787600201548503826001600160801b0316600160801b613b55565b6001880195909555505060029094015591929050565b60020b5f60ff82901d80830118620d89e8811115612e0657612e066345c3193d60e11b84612104565b7001fffcb933bd6fad37aa2d162d1a5940016001821602600160801b186002821615612e42576ffff97272373d413259a46990580e213a0260801c5b6004821615612e61576ffff2e50f5f656932ef12357cf3c7fdcc0260801c5b6008821615612e80576fffe5caca7e10e4e61c3624eaa0941cd00260801c5b6010821615612e9f576fffcb9843d60f6159c9db58835c9266440260801c5b6020821615612ebe576fff973b41fa98c081472e6896dfb254c00260801c5b6040821615612edd576fff2ea16466c96a3843ec78b326b528610260801c5b6080821615612efc576ffe5dee046a99a2a811c461f1969c30530260801c5b610100821615612f1c576ffcbe86c7900a88aedcffc83b479aa3a40260801c5b610200821615612f3c576ff987a7253ac413176f2b074cf7815e540260801c5b610400821615612f5c576ff3392b0822b70005940c7a398e4b70f30260801c5b610800821615612f7c576fe7159475a2c29b7443b29c7fa6e889d90260801c5b611000821615612f9c576fd097f3bdfd2022b8845ad8f792aa58250260801c5b612000821615612fbc576fa9f746462d870fdf8a65dc1f90e061e50260801c5b614000821615612fdc576f70d869a156d2a1b890bb3df62baf32f70260801c5b618000821615612ffc576f31be135f97d08fd981231505542fcfa60260801c5b6201000082161561301d576f09aa508b5b7a84e1c677de54f3e99bc90260801c5b6202000082161561303d576e5d6af8dedb81196699c329225ee6040260801c5b6204000082161561305c576d2216e584f5fa1ea926041bedfe980260801c5b62080000821615613079576b048a170391f7dc42444e8fa20260801c5b5f841315613085575f19045b63ffffffff0160201c9392505050565b5f8082600f0b126130bc576130b56130b08585856001613bf1565b613cb2565b5f03611625565b6116256130b08585855f035f613bf1565b5f8082600f0b126130e8576130b56130b08585856001613ccb565b6116256130b08585855f035f613ccb565b6001600160801b038216600f82900b01608081901c156106cd576393dafdf15f526004601cfd5b5f8061312c8585612a6c565b90508261313c575f915050610786565b805160401461315557613155631e048e1d60e01b61162d565b60400151949350505050565b5f608082811d9084901d03600f83810b9085900b03611fd6611fcd83611c18565b5f6127108211156131a657604051636f5500f360e11b815260040160405180910390fd5b6127106131b38385614e63565b6107869190614e8e565b5f73fffd8963efd1fc6a506488495d951d51639616826401000276a21983016001600160a01b031611156131fc576131fc6318521d4960e21b836121fd565b77ffffffffffffffffffffffffffffffffffffffff00000000602083901b16805f61322682613d17565b60ff1690506080811061324157607f810383901c915061324b565b80607f0383901b91505b908002607f81811c60ff83811c9190911c800280831c81831c1c800280841c81841c1c800280851c81851c1c800280861c81861c1c800280871c81871c1c800280881c81881c1c800280891c81891c1c8002808a1c818a1c1c8002808b1c818b1c1c8002808c1c818c1c1c8002808d1c818d1c1c8002808e1c9c81901c9c909c1c80029c8d901c9e9d607f198f0160401b60c09190911c678000000000000000161760c19b909b1c674000000000000000169a909a1760c29990991c672000000000000000169890981760c39790971c671000000000000000169690961760c49590951c670800000000000000169490941760c59390931c670400000000000000169290921760c69190911c670200000000000000161760c79190911c670100000000000000161760c89190911c6680000000000000161760c99190911c6640000000000000161760ca9190911c6620000000000000161760cb9190911c6610000000000000161760cc9190911c6608000000000000161760cd9190911c66040000000000001617693627a301d71055774c8581026f028f6481ab7f045a5af012a19d003aa9198101608090811d906fdb2df09e81959a81455e260799a0632f8301901d600281810b9083900b1461344b57886001600160a01b031661343082612ddd565b6001600160a01b03161115613445578161344d565b8061344d565b815b9998505050505050505050565b604080516060810182525f8082526020820181905291810182905281908190855460408601515f8161349457610fff60c484901c1661349e565b610fff60b884901c165b88516001600160a01b038516865261ffff9190911691505f60a085901c60020b60020b602087015260038b01546001600160801b0316604087015260808a01515f9062400000166134f85760d086901c62ffffff1661350a565b61350a8b6080015162ffffff16613da2565b9050831561353857620f4240610fff851662ffffff831681810283810615159390049290920191010361353a565b805b975050620f42408762ffffff16106135655789515f121561356557613565634b10312360e11b61162d565b89515f0361357d575f80985098505050505050613ab3565b83156135fa5760608a01516001600160a01b038681169116106135bc576135bc6001600160a01b0386165b60608c0151637c9c6e8f60e01b9190612113565b6401000276a36001600160a01b03168a606001516001600160a01b0316116135f55760608a01516135f590639e4d7cc760e01b906121fd565b61366b565b60608a01516001600160a01b03868116911611613623576136236001600160a01b0386166135a8565b73fffd8963efd1fc6a506488495d951d5263988d266001600160a01b03168a606001516001600160a01b03161061366b5760608a015161366b90639e4d7cc760e01b906121fd565b60408051610100810182525f80825260208201819052918101829052606081018290526080810182905260a0810182905260c0810182905260e0810191909152846136ba578b600201546136c0565b8b600101545b60e08201525b8215806136eb57508a606001516001600160a01b0316875f01516001600160a01b0316145b6139b85786516001600160a01b03168152602080880151908c01516137159160058f019188613db1565b1515604083015260020b60208201819052620d89e7191261373b57620d89e71960208201525b620d89e860020b816020015160020b1261375957620d89e860208201525b6137668160200151612ddd565b6001600160a01b0390811660608381018290528951908e01516137a3939192911680821891811160018a161891909102188960400151868c613e9e565b60c085015260a084015260808301526001600160a01b031687528a515f12156137ff576137d38160a00151613cb2565b830392506137ee8160c0015182608001516130b09190614a09565b6137f89083614ead565b9150613830565b6138128160c00151826080015101613cb2565b830192506138238160a00151613cb2565b61382d9083614d5e565b91505b831561386c575f620f4240858360c00151846080015101028161385557613855614e7a565b60c084018051929091049182900390529990990198505b60408701516001600160801b0316156138ac576138a08160c00151600160801b89604001516001600160801b031691020490565b60e08201805190910190525b80606001516001600160a01b0316875f01516001600160a01b0316036139925780604001511561396d575f80866138ec578d600101548360e001516138f7565b8260e001518e600201545b915091505f6139428f85602001518585600292830b5f90815260049094016020526040909320600181018054909203909155908101805490920390915554600160801b9004600f0b90565b9050871561394d575f035b61395b8a60400151826130f9565b6001600160801b031660408b01525050505b8461397c578060200151613985565b60018160200151035b60020b60208801526136c6565b805187516001600160a01b039081169116146139b3578651613985906131bd565b6136c6565b865160208801516139fe91906139e590899060a01b62ffffff60a01b1662ffffff60a01b19919091161790565b6001600160a01b0319166001600160a01b039091161790565b8c55604087015160038d01546001600160801b03908116911614613a4357604087015160038d0180546001600160801b0319166001600160801b039092169190911790555b84613a575760e081015160028d0155613a62565b60e081015160018d01555b8a515f1385151514613a8f57613a88613a7a83611c18565b611e19858e5f015103611c18565b9950613aac565b613aa9613aa0848d5f015103611c18565b611e1984611c18565b99505b5050505050505b92959194509250565b6001600160a01b0383165f90815260046020908152604080832085845290915281208054839290613aee9084906149f6565b9091555050604080513381526020810183905283915f916001600160a01b038716917f1b3d7edb2e9c0b0e7c525b20aaaef0f5940d2ed71663c7d39266ecafac7288599101611878565b6040518381528260020b60048201528160020b6024820152604481fd5b5f838302815f1985870982811083820303915050808411613b74575f80fd5b805f03613b8657508290049050610786565b5f848688095f868103871696879004966002600389028118808a02820302808a02820302808a02820302808a02820302808a02820302808a02909103029181900381900460010186841190950394909402919094039290920491909117919091029150509392505050565b5f836001600160a01b0316856001600160a01b03161115613c10579293925b6001600160a01b038516613c2a5762bfc9215f526004601cfd5b6fffffffffffffffffffffffffffffffff60601b606084901b166001600160a01b038686031683613c8657866001600160a01b0316613c738383896001600160a01b0316613b55565b81613c8057613c80614e7a565b04612386565b612386613c9d8383896001600160a01b0316614001565b886001600160a01b0316808204910615150190565b805f811215610a4357610a436393dafdf160e01b61162d565b5f6001600160a01b038481169086160360ff81901d90810118600160601b6001600160801b038516613cfe818484613b55565b9350845f83858409111684019350505050949350505050565b5f808211613d23575f80fd5b507f0706060506020500060203020504000106050205030304010505030400000000601f6f8421084210842108cc6318c6db6d54be6001600160801b03841160071b84811c67ffffffffffffffff1060061b1784811c63ffffffff1060051b1784811c61ffff1060041b1784811c60ff1060031b1793841c1c161a1790565b62bfffff8116610a4381611ac7565b5f80600284810b9086900b8181078313919005038315613e3057600281900b60081d600181900b5f908152602089905260409020545f1960ff808516908190039190911c918216801515955090919085613e1257888360ff16860302613e25565b88613e1c82613d17565b840360ff168603025b965050505050613e94565b6001908101600281900b60081d80830b5f90815260208a905260409020545f1960ff841694851b011990811680151595509293919285613e7a57888360ff0360ff16860102613e8d565b8883613e8583614031565b0360ff168601025b9650505050505b5094509492505050565b5f80808062ffffff85166001600160a01b03808a16908b1610158288128015613f74575f613ed78a5f0385620f424003620f4240613b55565b905082613ef057613eeb8d8d8d6001613ccb565b613efd565b613efd8c8e8d6001613bf1565b9650868110613f31578b9750620f42408414613f2857613f23878586620f424003614001565b613f2a565b865b9450613f4a565b809650613f408d8c83866140cb565b9750868a5f030394505b82613f6057613f5b8d898d5f613bf1565b613f6c565b613f6c888e8d5f613ccb565b955050613ff2565b81613f8a57613f858c8c8c5f613bf1565b613f96565b613f968b8d8c5f613ccb565b9450848910613fa7578a9650613fb9565b889450613fb68c8b8785614119565b96505b81613fd057613fcb8c888c6001613ccb565b613fdd565b613fdd878d8c6001613bf1565b9550613fef868485620f424003614001565b93505b50505095509550955095915050565b5f61400d848484613b55565b9050818061401d5761401d614e7a565b838509156107865760010180610786575f80fd5b5f80821161403d575f80fd5b507e1f0d1e100c1d070f090b19131c1706010e11080a1a141802121b15031604055f8290039091166101e07f804040554300526644320000502061067405302602000010750620017611707760fc7fb6db6db6ddddddddd34d34d349249249210842108c6318c639ce739cffffffff840260f81c161b60f71c1690811c63d76453e004601f169190911a1790565b5f6001600160801b038416156001600160a01b0386161517156140f557634f2461b85f526004601cfd5b8161410c57614107858585600161415c565b611fd6565b611fd68585856001614247565b5f6001600160801b038416156001600160a01b03861615171561414357634f2461b85f526004601cfd5b81614154576141078585855f614247565b611fd68585855f5b5f81156141cc575f6001600160a01b038411156141905761418b84600160601b876001600160801b0316613b55565b6141a7565b6141a76001600160801b038616606086901b614e8e565b90506141c46141bf826001600160a01b038916614a09565b614332565b915050611625565b5f6001600160a01b038411156141f9576141f484600160601b876001600160801b0316614001565b614216565b614216606085901b6001600160801b038716808204910615150190565b9050806001600160a01b0387161161423557634323a5555f526004601cfd5b6001600160a01b038616039050611625565b5f825f03614256575083611625565b6fffffffffffffffffffffffffffffffff60601b606085901b1682156142f1576001600160a01b0386168481029085828161429357614293614e7a565b04036142c3578181018281106142c1576142b783896001600160a01b031683614001565b9350505050611625565b505b506141c481856142dc6001600160a01b038a1683614e8e565b6142e69190614a09565b808204910615150190565b6001600160a01b0386168481029085820414818311166143185763f5c787f15f526004601cfd5b8082036142b76141bf846001600160a01b038b1684614001565b806001600160a01b0381168114610a4357610a436393dafdf160e01b61162d565b6001600160a01b0381168114611231575f80fd5b5f8060408385031215614378575f80fd5b823561438381614353565b946020939093013593505050565b5f602082840312156143a1575f80fd5b81356001600160e01b031981168114610786575f80fd5b5f805f606084860312156143ca575f80fd5b83356143d581614353565b95602085013595506040909401359392505050565b5f805f606084860312156143fc575f80fd5b833561440781614353565b9250602084013561441781614353565b929592945050506040919091013590565b5f60208284031215614438575f80fd5b5035919050565b634e487b7160e01b5f52604160045260245ffd5b6040516080810167ffffffffffffffff811182821017156144765761447661443f565b60405290565b604051601f8201601f1916810167ffffffffffffffff811182821017156144a5576144a561443f565b604052919050565b803562ffffff81168114610a43575f80fd5b8035600281900b8114610a43575f80fd5b5f60a082840312156144e0575f80fd5b60405160a0810167ffffffffffffffff811182821017156145035761450361443f565b604052905080823561451481614353565b8152602083013561452481614353565b6020820152614535604084016144ad565b6040820152614546606084016144bf565b6060820152608083013561455981614353565b6080919091015292915050565b5f8083601f840112614576575f80fd5b50813567ffffffffffffffff81111561458d575f80fd5b6020830191508360208285010111156145a4575f80fd5b9250929050565b5f805f805f61010086880312156145c0575f80fd5b6145ca87876144d0565b945060a0860135935060c0860135925060e086013567ffffffffffffffff8111156145f3575f80fd5b6145ff88828901614566565b969995985093965092949392505050565b5f60208284031215614620575f80fd5b813561078681614353565b5f806040838503121561463c575f80fd5b50508035926020909101359150565b602080825282518282018190525f918401906040840190835b81811015614682578351835260209384019390920191600101614664565b509095945050505050565b5f806020838503121561469e575f80fd5b823567ffffffffffffffff8111156146b4575f80fd5b6146c085828601614566565b90969095509350505050565b602081525f82518060208401528060208501604085015e5f604082850101526040601f19601f83011684010191505092915050565b5f8060c08385031215614712575f80fd5b61471c84846144d0565b915061472a60a084016144ad565b90509250929050565b80358015158114610a43575f80fd5b5f8060408385031215614753575f80fd5b823561475e81614353565b915061472a60208401614733565b5f805f80848603610140811215614781575f80fd5b61478b87876144d0565b94506080609f198201121561479e575f80fd5b506147a7614453565b6147b360a087016144bf565b81526147c160c087016144bf565b602082015260e086013560408201526101008601356060820152925061012085013567ffffffffffffffff8111156147f7575f80fd5b61480387828801614566565b95989497509550505050565b5f805f8060e08587031215614822575f80fd5b61482c86866144d0565b935060a085013561483c81614353565b925060c085013567ffffffffffffffff8111156147f7575f80fd5b5f8060208385031215614868575f80fd5b823567ffffffffffffffff81111561487e575f80fd5b8301601f8101851361488e575f80fd5b803567ffffffffffffffff8111156148a4575f80fd5b8560208260051b84010111156148b8575f80fd5b6020919091019590945092505050565b5f80604083850312156148d9575f80fd5b82356148e481614353565b915060208301356148f481614353565b809150509250929050565b5f805f80848603610120811215614914575f80fd5b61491e87876144d0565b94506060609f1982011215614931575f80fd5b506040516060810167ffffffffffffffff811182821017156149555761495561443f565b60405261496460a08701614733565b815260c0860135602082015260e086013561497e81614353565b6040820152925061010085013567ffffffffffffffff8111156147f7575f80fd5b5f805f80608085870312156149b2575f80fd5b84356149bd81614353565b935060208501356149cd81614353565b93969395505050506040820135916060013590565b634e487b7160e01b5f52601160045260245ffd5b818103818111156106cd576106cd6149e2565b808201808211156106cd576106cd6149e2565b81835281816020850137505f828201602090810191909152601f909101601f19169091010190565b602081525f611625602083018486614a1c565b5f60208284031215614a67575f80fd5b815167ffffffffffffffff811115614a7d575f80fd5b8201601f81018413614a8d575f80fd5b805167ffffffffffffffff811115614aa757614aa761443f565b614aba601f8201601f191660200161447c565b818152856020838501011115614ace575f80fd5b8160208401602083015e5f91810160200191909152949350505050565b6001600160a01b0381511682526001600160a01b03602082015116602083015262ffffff6040820151166040830152606081015160020b60608301526001600160a01b0360808201511660808301525050565b6001600160a01b0387168152614b576020820187614aeb565b8460c08201528360e08201526101206101008201525f614b7c61012083018486614a1c565b98975050505050505050565b6001600160a01b0386168152614ba16020820186614aeb565b8351600290810b60c08301526020850151900b60e0820152604084015161010082015260608401516101208201526101606101408201525f61238661016083018486614a1c565b6001600160a01b0388168152614c016020820188614aeb565b8551600290810b60c08301526020870151900b60e08201526040860151610100820152606086015161012082015284610140820152836101608201526101a06101808201525f61344d6101a083018486614a1c565b6001600160a01b0386168152614c6f6020820186614aeb565b6001600160a01b03841660c082015261010060e08201525f61238661010083018486614a1c565b60a081016106cd8284614aeb565b6001600160a01b0387168152614cbd6020820187614aeb565b6001600160a01b03851660c08201528360020b60e08201526101206101008201525f614b7c61012083018486614a1c565b5f60208284031215614cfe575f80fd5b5051919050565b6001600160a01b0386168152614d1e6020820186614aeb565b8351151560c0820152602084015160e082015260408401516001600160a01b03166101008201526101406101208201525f61238661014083018486614a1c565b8082018281125f831280158216821582161715614d7d57614d7d6149e2565b505092915050565b6001600160a01b0387168152614d9e6020820187614aeb565b8451151560c0820152602085015160e082015260408501516001600160a01b0316610100820152836101208201526101606101408201525f614b7c61016083018486614a1c565b600f81810b9083900b016f7fffffffffffffffffffffffffffffff81136f7fffffffffffffffffffffffffffffff19821217156106cd576106cd6149e2565b600f82810b9082900b036f7fffffffffffffffffffffffffffffff1981126f7fffffffffffffffffffffffffffffff821317156106cd576106cd6149e2565b80820281158282048414176106cd576106cd6149e2565b634e487b7160e01b5f52601260045260245ffd5b5f82614ea857634e487b7160e01b5f52601260045260245ffd5b500490565b8181035f831280158383131683831282161715612af657612af66149e256fec090fc4683624cfc3884e9d8de5eca132f2d0ec062aff75d43c0465d5ceeab23a26469706673582212209696c9252b8447f90205e9754dd59bcb71cd8eb6a55050081c3b790d1ad8ee1464736f6c634300081a0033","linkReferences":{}},"methodIdentifiers":{"allowance(address,address,uint256)":"598af9e7","approve(address,uint256,uint256)":"426a8493","balanceOf(address,uint256)":"00fdd58e","burn(address,uint256,uint256)":"f5298aca","clear(address,uint256)":"80f0b44c","collectProtocolFees(address,address,uint256)":"8161b874","donate((address,address,uint24,int24,address),uint256,uint256,bytes)":"234266d7","extsload(bytes32)":"1e2eaeaf","extsload(bytes32,uint256)":"35fd631a","extsload(bytes32[])":"dbd035ff","exttload(bytes32)":"f135baaa","exttload(bytes32[])":"9bf6645f","initialize((address,address,uint24,int24,address),uint160,bytes)":"695c5bf5","isOperator(address,address)":"b6363cf2","mint(address,uint256,uint256)":"156e29f6","modifyLiquidity((address,address,uint24,int24,address),(int24,int24,int256,bytes32),bytes)":"5a6bcfda","owner()":"8da5cb5b","protocolFeeController()":"f02de3b2","protocolFeesAccrued(address)":"97e8cd4e","setOperator(address,bool)":"558a7297","setProtocolFee((address,address,uint24,int24,address),uint24)":"7e87ce7d","setProtocolFeeController(address)":"2d771389","settle()":"11da60b4","settleFor(address)":"3dd45adb","supportsInterface(bytes4)":"01ffc9a7","swap((address,address,uint24,int24,address),(bool,int256,uint160),bytes)":"f3cd914c","sync(address)":"a5841194","take(address,address,uint256)":"0b0d9c09","transfer(address,uint256,uint256)":"095bcdb6","transferFrom(address,address,uint256,uint256)":"fe99049a","transferOwnership(address)":"f2fde38b","unlock(bytes)":"48c89491","updateDynamicLPFee((address,address,uint24,int24,address),uint24)":"52759651"},"id":25}