{"abi":[{"type":"constructor","inputs":[{"name":"_owner","type":"address","internalType":"address"},{"name":"_token","type":"address","internalType":"contract iPhone16"}],"stateMutability":"nonpayable"},{"type":"function","name":"adminRequestWithdrawal","inputs":[{"name":"user","type":"address","internalType":"address"},{"name":"amount","type":"uint256","internalType":"uint256"},{"name":"recipient","type":"address","internalType":"address"}],"outputs":[],"stateMutability":"nonpayable"},{"type":"function","name":"finalizeWithdrawal","inputs":[{"name":"user","type":"address","internalType":"address"}],"outputs":[],"stateMutability":"nonpayable"},{"type":"function","name":"owner","inputs":[],"outputs":[{"name":"","type":"address","internalType":"address"}],"stateMutability":"view"},{"type":"function","name":"pendingWithdrawals","inputs":[{"name":"","type":"address","internalType":"address"}],"outputs":[{"name":"","type":"uint256","internalType":"uint256"}],"stateMutability":"view"},{"type":"function","name":"requestWithdrawal","inputs":[{"name":"amount","type":"uint256","internalType":"uint256"},{"name":"recipient","type":"address","internalType":"address"}],"outputs":[],"stateMutability":"nonpayable"},{"type":"function","name":"stake","inputs":[{"name":"onBehalf","type":"address","internalType":"address"},{"name":"amount","type":"uint256","internalType":"uint256"}],"outputs":[],"stateMutability":"nonpayable"},{"type":"function","name":"stakedBalance","inputs":[{"name":"","type":"address","internalType":"address"}],"outputs":[{"name":"","type":"uint256","internalType":"uint256"}],"stateMutability":"view"},{"type":"function","name":"token","inputs":[],"outputs":[{"name":"","type":"address","internalType":"contract iPhone16"}],"stateMutability":"view"},{"type":"function","name":"withdrawalRecipient","inputs":[{"name":"","type":"address","internalType":"address"}],"outputs":[{"name":"","type":"address","internalType":"address"}],"stateMutability":"view"},{"type":"function","name":"withdrawalRequestTime","inputs":[{"name":"","type":"address","internalType":"address"}],"outputs":[{"name":"","type":"uint256","internalType":"uint256"}],"stateMutability":"view"}],"bytecode":{"object":"0x60c060405234801561001057600080fd5b5060405161088938038061088983398101604081905261002f9161005e565b6001600160a01b039182166080521660a052610098565b6001600160a01b038116811461005b57600080fd5b50565b6000806040838503121561007157600080fd5b825161007c81610046565b602084015190925061008d81610046565b809150509250929050565b60805160a0516107b76100d2600039600081816101d10152818161031801526103ea01526000818161012301526104d901526107b76000f3fe608060405234801561001057600080fd5b506004361061009e5760003560e01c8063adc9772e11610066578063adc9772e1461015d578063bf61a29b14610170578063ec4a93e814610199578063f3f43703146101ac578063fc0c546a146101cc57600080fd5b806309b6d830146100a357806321739779146100d65780634abf24cb146100eb57806360217267146100fe5780638da5cb5b1461011e575b600080fd5b6100c36100b1366004610669565b60016020526000908152604090205481565b6040519081526020015b60405180910390f35b6100e96100e436600461068b565b6101f3565b005b6100e96100f9366004610669565b610202565b6100c361010c366004610669565b60006020819052908152604090205481565b6101457f000000000000000000000000000000000000000000000000000000000000000081565b6040516001600160a01b0390911681526020016100cd565b6100e961016b3660046106b7565b6103c8565b61014561017e366004610669565b6003602052600090815260409020546001600160a01b031681565b6100e96101a73660046106e1565b6104ce565b6100c36101ba366004610669565b60026020526000908152604090205481565b6101457f000000000000000000000000000000000000000000000000000000000000000081565b6101fe338383610557565b5050565b6001600160a01b038116600090815260026020526040902054806102655760405162461bcd60e51b8152602060048201526015602482015274139bc81c195b991a5b99c81dda5d1a191c985dd85b605a1b60448201526064015b60405180910390fd5b6001600160a01b03821660009081526001602052604090205461028990600c610733565b4210156102cf5760405162461bcd60e51b81526020600482015260146024820152735769746864726177616c20746f6f206561726c7960601b604482015260640161025c565b6001600160a01b03828116600090815260036020908152604080832054600290925280832092909255905163a9059cbb60e01b81529082166004820181905260248201849052917f0000000000000000000000000000000000000000000000000000000000000000169063a9059cbb906044016020604051808303816000875af1158015610361573d6000803e3d6000fd5b505050506040513d601f19601f82011682018060405250810190610385919061074c565b6103c35760405162461bcd60e51b815260206004820152600f60248201526e151c985b9cd9995c8819985a5b1959608a1b604482015260640161025c565b505050565b6040516323b872dd60e01b8152336004820152306024820152604481018290527f00000000000000000000000000000000000000000000000000000000000000006001600160a01b0316906323b872dd906064016020604051808303816000875af115801561043b573d6000803e3d6000fd5b505050506040513d601f19601f8201168201806040525081019061045f919061074c565b61049d5760405162461bcd60e51b815260206004820152600f60248201526e151c985b9cd9995c8819985a5b1959608a1b604482015260640161025c565b6001600160a01b038216600090815260208190526040812080548392906104c5908490610733565b90915550505050565b336001600160a01b037f000000000000000000000000000000000000000000000000000000000000000016146105505760405162461bcd60e51b815260206004820152602160248201527f4f6e6c79206f776e65722063616e2063616c6c20746869732066756e6374696f6044820152603760f91b606482015260840161025c565b6103c38383835b6001600160a01b0383166000908152602081905260409020548211156105b65760405162461bcd60e51b8152602060048201526014602482015273496e73756666696369656e742062616c616e636560601b604482015260640161025c565b6001600160a01b038316600090815260208190526040812080548492906105de90849061076e565b90915550506001600160a01b0383166000908152600260205260408120805484929061060b908490610733565b90915550506001600160a01b0392831660009081526001602090815260408083204290556003909152902080546001600160a01b031916919093161790915550565b80356001600160a01b038116811461066457600080fd5b919050565b60006020828403121561067b57600080fd5b6106848261064d565b9392505050565b6000806040838503121561069e57600080fd5b823591506106ae6020840161064d565b90509250929050565b600080604083850312156106ca57600080fd5b6106d38361064d565b946020939093013593505050565b6000806000606084860312156106f657600080fd5b6106ff8461064d565b9250602084013591506107146040850161064d565b90509250925092565b634e487b7160e01b600052601160045260246000fd5b808201808211156107465761074661071d565b92915050565b60006020828403121561075e57600080fd5b8151801515811461068457600080fd5b818103818111156107465761074661071d56fea2646970667358221220a4781c399e580d30cb35654a8dd11e1454b12d1a98cea0a8ded124b636d4a93964736f6c634300081a0033","linkReferences":{}},"methodIdentifiers":{"adminRequestWithdrawal(address,uint256,address)":"ec4a93e8","finalizeWithdrawal(address)":"4abf24cb","owner()":"8da5cb5b","pendingWithdrawals(address)":"f3f43703","requestWithdrawal(uint256,address)":"21739779","stake(address,uint256)":"adc9772e","stakedBalance(address)":"60217267","token()":"fc0c546a","withdrawalRecipient(address)":"bf61a29b","withdrawalRequestTime(address)":"09b6d830"},"id":16}