{"abi":[{"type":"constructor","inputs":[{"name":"player","type":"address","internalType":"address"}],"stateMutability":"nonpayable"},{"type":"function","name":"OWNER","inputs":[],"outputs":[{"name":"","type":"address","internalType":"address"}],"stateMutability":"view"},{"type":"function","name":"PLAYER","inputs":[],"outputs":[{"name":"","type":"address","internalType":"address"}],"stateMutability":"view"},{"type":"function","name":"TIM_COOK","inputs":[],"outputs":[{"name":"","type":"address","internalType":"address"}],"stateMutability":"view"},{"type":"function","name":"bigen","inputs":[],"outputs":[{"name":"","type":"address","internalType":"contract BigenLayer"}],"stateMutability":"view"},{"type":"function","name":"isSolved","inputs":[],"outputs":[{"name":"","type":"bool","internalType":"bool"}],"stateMutability":"view"},{"type":"function","name":"token","inputs":[],"outputs":[{"name":"","type":"address","internalType":"contract iPhone16"}],"stateMutability":"view"}],"bytecode":{"object":"0x60e060405234801561001057600080fd5b5060405161158738038061158783398101604081905261002f916101ea565b6001600160a01b038116608052604051610048906101d0565b604051809103906000f080158015610064573d6000803e3d6000fd5b506001600160a01b031660c08190526040517371556c38f44e17ec21f355bd18416155000bf5a69190610096906101dd565b6001600160a01b03928316815291166020820152604001604051809103906000f0801580156100c9573d6000803e3d6000fd5b506001600160a01b0390811660a081905260c05160405163095ea7b360e01b8152600481019290925260001960248301529091169063095ea7b3906044016020604051808303816000875af1158015610126573d6000803e3d6000fd5b505050506040513d601f19601f8201168201806040525081019061014a919061021a565b5060a0516040516356e4bb9760e11b8152732011082420110824201108242011082420110824600482015267de0b6b3a7640000060248201526001600160a01b039091169063adc9772e90604401600060405180830381600087803b1580156101b257600080fd5b505af11580156101c6573d6000803e3d6000fd5b505050505061023c565b610833806104cb83390190565b61088980610cfe83390190565b6000602082840312156101fc57600080fd5b81516001600160a01b038116811461021357600080fd5b9392505050565b60006020828403121561022c57600080fd5b8151801515811461021357600080fd5b60805160a05160c0516102546102776000396000818161012501526101930152600060e6015260008181606c015261015e01526102546000f3fe608060405234801561001057600080fd5b50600436106100625760003560e01c80630236ca7414610067578063117803e3146100ab57806325b9ba4e146100c65780633c411050146100e157806364d98f6e14610108578063fc0c546a14610120575b600080fd5b61008e7f000000000000000000000000000000000000000000000000000000000000000081565b6040516001600160a01b0390911681526020015b60405180910390f35b61008e7371556c38f44e17ec21f355bd18416155000bf5a681565b61008e73201108242011082420110824201108242011082481565b61008e7f000000000000000000000000000000000000000000000000000000000000000081565b610110610147565b60405190151581526020016100a2565b61008e7f000000000000000000000000000000000000000000000000000000000000000081565b6040516370a0823160e01b81526001600160a01b037f00000000000000000000000000000000000000000000000000000000000000008116600483015260009167de0b6b3a76400000917f000000000000000000000000000000000000000000000000000000000000000016906370a0823190602401602060405180830381865afa1580156101da573d6000803e3d6000fd5b505050506040513d601f19601f820116820180604052508101906101fe9190610205565b1015905090565b60006020828403121561021757600080fd5b505191905056fea26469706673582212203fe9db7efc87aadd3ef6dc4348ac43524bff4545e41851b4c13437eda956961664736f6c634300081a00336080604052348015600f57600080fd5b50602133683635c9adc5dea000006025565b60a3565b6805345cdf77eb68f44c548181018181101560485763e5cfe9576000526004601cfd5b806805345cdf77eb68f44c5550506387a211a2600c52816000526020600c208181540181555080602052600c5160601c60007fddf252ad1be2c89b69c2b068fc378daa952ba7f163c4a11628f55a4df523b3ef602080a35050565b610781806100b26000396000f3fe608060405234801561001057600080fd5b50600436106100b45760003560e01c806370a082311161007157806370a082311461013e5780637ecebe001461016457806395d89b411461018a578063a9059cbb146101ad578063d505accf146101c0578063dd62ed3e146101d557600080fd5b806306fdde03146100b9578063095ea7b3146100d757806318160ddd146100fa57806323b872dd14610114578063313ce567146101275780633644e51514610136575b600080fd5b6100c16101fe565b6040516100ce91906105b2565b60405180910390f35b6100ea6100e536600461061c565b610220565b60405190151581526020016100ce565b6805345cdf77eb68f44c545b6040519081526020016100ce565b6100ea610122366004610646565b610273565b604051601281526020016100ce565b610106610331565b61010661014c366004610683565b6387a211a2600c908152600091909152602090205490565b610106610172366004610683565b6338377508600c908152600091909152602090205490565b604080518082019091526007815266414d415a494e4760c81b60208201526100c1565b6100ea6101bb36600461061c565b6103ae565b6101d36101ce3660046106a5565b610429565b005b6101066101e3366004610718565b602052637f5e9f20600c908152600091909152603490205490565b60408051808201909152600881526734a83437b732989b60c11b602082015290565b600082602052637f5e9f20600c5233600052816034600c205581600052602c5160601c337f8c5be1e5ebec7d5bd14f71427d1e84f3dd0314c0f7b2291e5b200ac8c7c3b92560206000a350600192915050565b60008360601b33602052637f5e9f208117600c526034600c20805460018101156102b357808511156102ad576313be252b6000526004601cfd5b84810382555b50506387a211a28117600c526020600c208054808511156102dc5763f4d678b86000526004601cfd5b84810382555050836000526020600c208381540181555082602052600c5160601c8160601c7fddf252ad1be2c89b69c2b068fc378daa952ba7f163c4a11628f55a4df523b3ef602080a3505060019392505050565b60008061033c6101fe565b8051906020012090506040517f8b73c3c69bb8fe3d512ecc4cf759cc79239f7b179b0ffacaa9a75d522b39400f81528160208201527fc89efdaa54c0f20c7adf612882df0950f5a951637e0307cdcb4c672f298b8bc6604082015246606082015230608082015260a081209250505090565b60006387a211a2600c52336000526020600c208054808411156103d95763f4d678b86000526004601cfd5b83810382555050826000526020600c208281540181555081602052600c5160601c337fddf252ad1be2c89b69c2b068fc378daa952ba7f163c4a11628f55a4df523b3ef602080a350600192915050565b60006104336101fe565b8051906020012090508442111561045257631a15a3cc6000526004601cfd5b6040518860601b60601c98508760601b60601c975065383775081901600e52886000526020600c2080547f8b73c3c69bb8fe3d512ecc4cf759cc79239f7b179b0ffacaa9a75d522b39400f83528360208401527fc89efdaa54c0f20c7adf612882df0950f5a951637e0307cdcb4c672f298b8bc6604084015246606084015230608084015260a08320602e527f6e71edae12b1b97f4d1f60370fef10105fa2faae0126114a169c64845d6126c983528a60208401528960408401528860608401528060808401528760a084015260c08320604e526042602c206000528660ff1660205285604052846060526020806080600060015afa8b3d511461055e5763ddafbaef6000526004601cfd5b0190556303faf4f960a51b88176040526034602c2087905587897f8c5be1e5ebec7d5bd14f71427d1e84f3dd0314c0f7b2291e5b200ac8c7c3b925602060608501a360405250506000606052505050505050565b602081526000825180602084015260005b818110156105e057602081860181015160408684010152016105c3565b506000604082850101526040601f19601f83011684010191505092915050565b80356001600160a01b038116811461061757600080fd5b919050565b6000806040838503121561062f57600080fd5b61063883610600565b946020939093013593505050565b60008060006060848603121561065b57600080fd5b61066484610600565b925061067260208501610600565b929592945050506040919091013590565b60006020828403121561069557600080fd5b61069e82610600565b9392505050565b600080600080600080600060e0888a0312156106c057600080fd5b6106c988610600565b96506106d760208901610600565b95506040880135945060608801359350608088013560ff811681146106fb57600080fd5b9699959850939692959460a0840135945060c09093013592915050565b6000806040838503121561072b57600080fd5b61073483610600565b915061074260208401610600565b9050925092905056fea2646970667358221220783a9b4c75be0e73c8480d713415b2e3e3e70be3ef5495fec81917eaba7a0d3564736f6c634300081a003360c060405234801561001057600080fd5b5060405161088938038061088983398101604081905261002f9161005e565b6001600160a01b039182166080521660a052610098565b6001600160a01b038116811461005b57600080fd5b50565b6000806040838503121561007157600080fd5b825161007c81610046565b602084015190925061008d81610046565b809150509250929050565b60805160a0516107b76100d2600039600081816101d10152818161031801526103ea01526000818161012301526104d901526107b76000f3fe608060405234801561001057600080fd5b506004361061009e5760003560e01c8063adc9772e11610066578063adc9772e1461015d578063bf61a29b14610170578063ec4a93e814610199578063f3f43703146101ac578063fc0c546a146101cc57600080fd5b806309b6d830146100a357806321739779146100d65780634abf24cb146100eb57806360217267146100fe5780638da5cb5b1461011e575b600080fd5b6100c36100b1366004610669565b60016020526000908152604090205481565b6040519081526020015b60405180910390f35b6100e96100e436600461068b565b6101f3565b005b6100e96100f9366004610669565b610202565b6100c361010c366004610669565b60006020819052908152604090205481565b6101457f000000000000000000000000000000000000000000000000000000000000000081565b6040516001600160a01b0390911681526020016100cd565b6100e961016b3660046106b7565b6103c8565b61014561017e366004610669565b6003602052600090815260409020546001600160a01b031681565b6100e96101a73660046106e1565b6104ce565b6100c36101ba366004610669565b60026020526000908152604090205481565b6101457f000000000000000000000000000000000000000000000000000000000000000081565b6101fe338383610557565b5050565b6001600160a01b038116600090815260026020526040902054806102655760405162461bcd60e51b8152602060048201526015602482015274139bc81c195b991a5b99c81dda5d1a191c985dd85b605a1b60448201526064015b60405180910390fd5b6001600160a01b03821660009081526001602052604090205461028990600c610733565b4210156102cf5760405162461bcd60e51b81526020600482015260146024820152735769746864726177616c20746f6f206561726c7960601b604482015260640161025c565b6001600160a01b03828116600090815260036020908152604080832054600290925280832092909255905163a9059cbb60e01b81529082166004820181905260248201849052917f0000000000000000000000000000000000000000000000000000000000000000169063a9059cbb906044016020604051808303816000875af1158015610361573d6000803e3d6000fd5b505050506040513d601f19601f82011682018060405250810190610385919061074c565b6103c35760405162461bcd60e51b815260206004820152600f60248201526e151c985b9cd9995c8819985a5b1959608a1b604482015260640161025c565b505050565b6040516323b872dd60e01b8152336004820152306024820152604481018290527f00000000000000000000000000000000000000000000000000000000000000006001600160a01b0316906323b872dd906064016020604051808303816000875af115801561043b573d6000803e3d6000fd5b505050506040513d601f19601f8201168201806040525081019061045f919061074c565b61049d5760405162461bcd60e51b815260206004820152600f60248201526e151c985b9cd9995c8819985a5b1959608a1b604482015260640161025c565b6001600160a01b038216600090815260208190526040812080548392906104c5908490610733565b90915550505050565b336001600160a01b037f000000000000000000000000000000000000000000000000000000000000000016146105505760405162461bcd60e51b815260206004820152602160248201527f4f6e6c79206f776e65722063616e2063616c6c20746869732066756e6374696f6044820152603760f91b606482015260840161025c565b6103c38383835b6001600160a01b0383166000908152602081905260409020548211156105b65760405162461bcd60e51b8152602060048201526014602482015273496e73756666696369656e742062616c616e636560601b604482015260640161025c565b6001600160a01b038316600090815260208190526040812080548492906105de90849061076e565b90915550506001600160a01b0383166000908152600260205260408120805484929061060b908490610733565b90915550506001600160a01b0392831660009081526001602090815260408083204290556003909152902080546001600160a01b031916919093161790915550565b80356001600160a01b038116811461066457600080fd5b919050565b60006020828403121561067b57600080fd5b6106848261064d565b9392505050565b6000806040838503121561069e57600080fd5b823591506106ae6020840161064d565b90509250929050565b600080604083850312156106ca57600080fd5b6106d38361064d565b946020939093013593505050565b6000806000606084860312156106f657600080fd5b6106ff8461064d565b9250602084013591506107146040850161064d565b90509250925092565b634e487b7160e01b600052601160045260246000fd5b808201808211156107465761074661071d565b92915050565b60006020828403121561075e57600080fd5b8151801515811461068457600080fd5b818103818111156107465761074661071d56fea2646970667358221220a4781c399e580d30cb35654a8dd11e1454b12d1a98cea0a8ded124b636d4a93964736f6c634300081a0033","linkReferences":{}},"methodIdentifiers":{"OWNER()":"117803e3","PLAYER()":"0236ca74","TIM_COOK()":"25b9ba4e","bigen()":"3c411050","isSolved()":"64d98f6e","token()":"fc0c546a"},"id":16}