{"abi":[{"type":"constructor","inputs":[],"stateMutability":"nonpayable"},{"type":"function","name":"DOMAIN_SEPARATOR","inputs":[],"outputs":[{"name":"result","type":"bytes32","internalType":"bytes32"}],"stateMutability":"view"},{"type":"function","name":"allowance","inputs":[{"name":"owner","type":"address","internalType":"address"},{"name":"spender","type":"address","internalType":"address"}],"outputs":[{"name":"result","type":"uint256","internalType":"uint256"}],"stateMutability":"view"},{"type":"function","name":"approve","inputs":[{"name":"spender","type":"address","internalType":"address"},{"name":"amount","type":"uint256","internalType":"uint256"}],"outputs":[{"name":"","type":"bool","internalType":"bool"}],"stateMutability":"nonpayable"},{"type":"function","name":"balanceOf","inputs":[{"name":"owner","type":"address","internalType":"address"}],"outputs":[{"name":"result","type":"uint256","internalType":"uint256"}],"stateMutability":"view"},{"type":"function","name":"decimals","inputs":[],"outputs":[{"name":"","type":"uint8","internalType":"uint8"}],"stateMutability":"view"},{"type":"function","name":"name","inputs":[],"outputs":[{"name":"","type":"string","internalType":"string"}],"stateMutability":"pure"},{"type":"function","name":"nonces","inputs":[{"name":"owner","type":"address","internalType":"address"}],"outputs":[{"name":"result","type":"uint256","internalType":"uint256"}],"stateMutability":"view"},{"type":"function","name":"permit","inputs":[{"name":"owner","type":"address","internalType":"address"},{"name":"spender","type":"address","internalType":"address"},{"name":"value","type":"uint256","internalType":"uint256"},{"name":"deadline","type":"uint256","internalType":"uint256"},{"name":"v","type":"uint8","internalType":"uint8"},{"name":"r","type":"bytes32","internalType":"bytes32"},{"name":"s","type":"bytes32","internalType":"bytes32"}],"outputs":[],"stateMutability":"nonpayable"},{"type":"function","name":"symbol","inputs":[],"outputs":[{"name":"","type":"string","internalType":"string"}],"stateMutability":"pure"},{"type":"function","name":"totalSupply","inputs":[],"outputs":[{"name":"result","type":"uint256","internalType":"uint256"}],"stateMutability":"view"},{"type":"function","name":"transfer","inputs":[{"name":"to","type":"address","internalType":"address"},{"name":"amount","type":"uint256","internalType":"uint256"}],"outputs":[{"name":"","type":"bool","internalType":"bool"}],"stateMutability":"nonpayable"},{"type":"function","name":"transferFrom","inputs":[{"name":"from","type":"address","internalType":"address"},{"name":"to","type":"address","internalType":"address"},{"name":"amount","type":"uint256","internalType":"uint256"}],"outputs":[{"name":"","type":"bool","internalType":"bool"}],"stateMutability":"nonpayable"},{"type":"event","name":"Approval","inputs":[{"name":"owner","type":"address","indexed":true,"internalType":"address"},{"name":"spender","type":"address","indexed":true,"internalType":"address"},{"name":"amount","type":"uint256","indexed":false,"internalType":"uint256"}],"anonymous":false},{"type":"event","name":"Transfer","inputs":[{"name":"from","type":"address","indexed":true,"internalType":"address"},{"name":"to","type":"address","indexed":true,"internalType":"address"},{"name":"amount","type":"uint256","indexed":false,"internalType":"uint256"}],"anonymous":false},{"type":"error","name":"AllowanceOverflow","inputs":[]},{"type":"error","name":"AllowanceUnderflow","inputs":[]},{"type":"error","name":"InsufficientAllowance","inputs":[]},{"type":"error","name":"InsufficientBalance","inputs":[]},{"type":"error","name":"InvalidPermit","inputs":[]},{"type":"error","name":"PermitExpired","inputs":[]},{"type":"error","name":"TotalSupplyOverflow","inputs":[]}],"bytecode":{"object":"0x6080604052348015600f57600080fd5b50602133683635c9adc5dea000006025565b60a3565b6805345cdf77eb68f44c548181018181101560485763e5cfe9576000526004601cfd5b806805345cdf77eb68f44c5550506387a211a2600c52816000526020600c208181540181555080602052600c5160601c60007fddf252ad1be2c89b69c2b068fc378daa952ba7f163c4a11628f55a4df523b3ef602080a35050565b610781806100b26000396000f3fe608060405234801561001057600080fd5b50600436106100b45760003560e01c806370a082311161007157806370a082311461013e5780637ecebe001461016457806395d89b411461018a578063a9059cbb146101ad578063d505accf146101c0578063dd62ed3e146101d557600080fd5b806306fdde03146100b9578063095ea7b3146100d757806318160ddd146100fa57806323b872dd14610114578063313ce567146101275780633644e51514610136575b600080fd5b6100c16101fe565b6040516100ce91906105b2565b60405180910390f35b6100ea6100e536600461061c565b610220565b60405190151581526020016100ce565b6805345cdf77eb68f44c545b6040519081526020016100ce565b6100ea610122366004610646565b610273565b604051601281526020016100ce565b610106610331565b61010661014c366004610683565b6387a211a2600c908152600091909152602090205490565b610106610172366004610683565b6338377508600c908152600091909152602090205490565b604080518082019091526007815266414d415a494e4760c81b60208201526100c1565b6100ea6101bb36600461061c565b6103ae565b6101d36101ce3660046106a5565b610429565b005b6101066101e3366004610718565b602052637f5e9f20600c908152600091909152603490205490565b60408051808201909152600881526734a83437b732989b60c11b602082015290565b600082602052637f5e9f20600c5233600052816034600c205581600052602c5160601c337f8c5be1e5ebec7d5bd14f71427d1e84f3dd0314c0f7b2291e5b200ac8c7c3b92560206000a350600192915050565b60008360601b33602052637f5e9f208117600c526034600c20805460018101156102b357808511156102ad576313be252b6000526004601cfd5b84810382555b50506387a211a28117600c526020600c208054808511156102dc5763f4d678b86000526004601cfd5b84810382555050836000526020600c208381540181555082602052600c5160601c8160601c7fddf252ad1be2c89b69c2b068fc378daa952ba7f163c4a11628f55a4df523b3ef602080a3505060019392505050565b60008061033c6101fe565b8051906020012090506040517f8b73c3c69bb8fe3d512ecc4cf759cc79239f7b179b0ffacaa9a75d522b39400f81528160208201527fc89efdaa54c0f20c7adf612882df0950f5a951637e0307cdcb4c672f298b8bc6604082015246606082015230608082015260a081209250505090565b60006387a211a2600c52336000526020600c208054808411156103d95763f4d678b86000526004601cfd5b83810382555050826000526020600c208281540181555081602052600c5160601c337fddf252ad1be2c89b69c2b068fc378daa952ba7f163c4a11628f55a4df523b3ef602080a350600192915050565b60006104336101fe565b8051906020012090508442111561045257631a15a3cc6000526004601cfd5b6040518860601b60601c98508760601b60601c975065383775081901600e52886000526020600c2080547f8b73c3c69bb8fe3d512ecc4cf759cc79239f7b179b0ffacaa9a75d522b39400f83528360208401527fc89efdaa54c0f20c7adf612882df0950f5a951637e0307cdcb4c672f298b8bc6604084015246606084015230608084015260a08320602e527f6e71edae12b1b97f4d1f60370fef10105fa2faae0126114a169c64845d6126c983528a60208401528960408401528860608401528060808401528760a084015260c08320604e526042602c206000528660ff1660205285604052846060526020806080600060015afa8b3d511461055e5763ddafbaef6000526004601cfd5b0190556303faf4f960a51b88176040526034602c2087905587897f8c5be1e5ebec7d5bd14f71427d1e84f3dd0314c0f7b2291e5b200ac8c7c3b925602060608501a360405250506000606052505050505050565b602081526000825180602084015260005b818110156105e057602081860181015160408684010152016105c3565b506000604082850101526040601f19601f83011684010191505092915050565b80356001600160a01b038116811461061757600080fd5b919050565b6000806040838503121561062f57600080fd5b61063883610600565b946020939093013593505050565b60008060006060848603121561065b57600080fd5b61066484610600565b925061067260208501610600565b929592945050506040919091013590565b60006020828403121561069557600080fd5b61069e82610600565b9392505050565b600080600080600080600060e0888a0312156106c057600080fd5b6106c988610600565b96506106d760208901610600565b95506040880135945060608801359350608088013560ff811681146106fb57600080fd5b9699959850939692959460a0840135945060c09093013592915050565b6000806040838503121561072b57600080fd5b61073483610600565b915061074260208401610600565b9050925092905056fea2646970667358221220783a9b4c75be0e73c8480d713415b2e3e3e70be3ef5495fec81917eaba7a0d3564736f6c634300081a0033","linkReferences":{}},"methodIdentifiers":{"DOMAIN_SEPARATOR()":"3644e515","allowance(address,address)":"dd62ed3e","approve(address,uint256)":"095ea7b3","balanceOf(address)":"70a08231","decimals()":"313ce567","name()":"06fdde03","nonces(address)":"7ecebe00","permit(address,address,uint256,uint256,uint8,bytes32,bytes32)":"d505accf","symbol()":"95d89b41","totalSupply()":"18160ddd","transfer(address,uint256)":"a9059cbb","transferFrom(address,address,uint256)":"23b872dd"},"id":16}