{"abi":[{"type":"function","name":"cancelTrade","inputs":[{"name":"_tradeId","type":"uint256","internalType":"uint256"}],"outputs":[],"stateMutability":"nonpayable"},{"type":"function","name":"createTrade","inputs":[{"name":"_tokenToSell","type":"address","internalType":"address"},{"name":"_tokenToBuy","type":"address","internalType":"address"},{"name":"_amountToSell","type":"uint256","internalType":"uint256"},{"name":"_amountToBuy","type":"uint256","internalType":"uint256"}],"outputs":[],"stateMutability":"nonpayable"},{"type":"function","name":"fee","inputs":[],"outputs":[{"name":"","type":"uint256","internalType":"uint256"}],"stateMutability":"view"},{"type":"function","name":"getTrade","inputs":[{"name":"_tradeId","type":"uint256","internalType":"uint256"}],"outputs":[{"name":"maker","type":"address","internalType":"address"},{"name":"taker","type":"address","internalType":"address"},{"name":"tokenToSell","type":"address","internalType":"address"},{"name":"tokenToBuy","type":"address","internalType":"address"},{"name":"amountToSell","type":"uint256","internalType":"uint256"},{"name":"amountToBuy","type":"uint256","internalType":"uint256"},{"name":"filledAmountToSell","type":"uint256","internalType":"uint256"},{"name":"filledAmountToBuy","type":"uint256","internalType":"uint256"},{"name":"isActive","type":"bool","internalType":"bool"}],"stateMutability":"view"},{"type":"function","name":"nextTradeId","inputs":[],"outputs":[{"name":"","type":"uint256","internalType":"uint256"}],"stateMutability":"view"},{"type":"function","name":"scaleTrade","inputs":[{"name":"_tradeId","type":"uint256","internalType":"uint256"},{"name":"scale","type":"uint256","internalType":"uint256"}],"outputs":[],"stateMutability":"nonpayable"},{"type":"function","name":"settleTrade","inputs":[{"name":"_tradeId","type":"uint256","internalType":"uint256"},{"name":"_amountToSettle","type":"uint256","internalType":"uint256"}],"outputs":[],"stateMutability":"nonpayable"},{"type":"function","name":"trades","inputs":[{"name":"","type":"uint256","internalType":"uint256"}],"outputs":[{"name":"maker","type":"address","internalType":"address"},{"name":"taker","type":"address","internalType":"address"},{"name":"tokenToSell","type":"address","internalType":"address"},{"name":"tokenToBuy","type":"address","internalType":"address"},{"name":"amountToSell","type":"uint112","internalType":"uint112"},{"name":"amountToBuy","type":"uint112","internalType":"uint112"},{"name":"filledAmountToSell","type":"uint112","internalType":"uint112"},{"name":"filledAmountToBuy","type":"uint112","internalType":"uint112"},{"name":"isActive","type":"bool","internalType":"bool"}],"stateMutability":"view"},{"type":"event","name":"TradeCancelled","inputs":[{"name":"tradeId","type":"uint256","indexed":true,"internalType":"uint256"}],"anonymous":false},{"type":"event","name":"TradeCreated","inputs":[{"name":"tradeId","type":"uint256","indexed":true,"internalType":"uint256"},{"name":"maker","type":"address","indexed":true,"internalType":"address"},{"name":"tokenToSell","type":"address","indexed":false,"internalType":"address"},{"name":"tokenToBuy","type":"address","indexed":false,"internalType":"address"},{"name":"amountToSell","type":"uint256","indexed":false,"internalType":"uint256"},{"name":"amountToBuy","type":"uint256","indexed":false,"internalType":"uint256"}],"anonymous":false},{"type":"event","name":"TradeSettled","inputs":[{"name":"tradeId","type":"uint256","indexed":true,"internalType":"uint256"},{"name":"settler","type":"address","indexed":true,"internalType":"address"},{"name":"settledAmountToSell","type":"uint256","indexed":false,"internalType":"uint256"}],"anonymous":false}],"bytecode":{"object":"0x6080604052601e6003553480156013575f80fd5b5061119e806100215f395ff3fe608060405234801561000f575f80fd5b5060043610610085575f3560e01c8063813ad08311610058578063813ad08314610270578063976cc82614610287578063ddca3f431461029a578063f9452142146102a3575f80fd5b806309ec6cc7146100895780631906fb4d1461009e5780631e6c598e146100b15780632db25e0514610199575b5f80fd5b61009c610097366004610f18565b6102b6565b005b61009c6100ac366004610f4a565b610488565b61012f6100bf366004610f18565b5f602081905290815260409020805460018201546002830154600384015460048501546005909501546001600160a01b0394851695938516949283169392909116916001600160701b0380821692600160701b92839004821692828216929082041690600160e01b900460ff1689565b604080516001600160a01b039a8b168152988a1660208a0152968916968801969096529690931660608601526001600160701b039182166080860152811660a085015290811660c084015290921660e0820152901515610100820152610120015b60405180910390f35b6102186101a7366004610f18565b5f908152602081905260409020805460018201546002830154600384015460048501546005909501546001600160a01b03948516969385169592851694909116926001600160701b0380841693600160701b908190048216938281169391810490921691600160e01b900460ff1690565b604080516001600160a01b039a8b168152988a1660208a015296891696880196909652969093166060860152608085019190915260a084015260c083015260e082019290925290151561010082015261012001610190565b61027960015481565b604051908152602001610190565b61009c610295366004610f89565b6107a2565b61027960035481565b61009c6102b1366004610f89565b610b9d565b60025460ff16156102e25760405162461bcd60e51b81526004016102d990610fa9565b60405180910390fd5b6002805460ff191660011790555f8181526020819052604090208054336001600160a01b039091161461034f5760405162461bcd60e51b815260206004820152601560248201527413db9b1e481b585ad95c8818d85b8818d85b98d95b605a1b60448201526064016102d9565b6005810154600160e01b900460ff1661037a5760405162461bcd60e51b81526004016102d990610fe0565b600581015460048201545f9161039c916001600160701b039182169116611021565b6001600160701b031690508015610440576002820154825460405163a9059cbb60e01b81526001600160a01b0391821660048201526024810184905291169063a9059cbb906044016020604051808303815f875af1158015610400573d5f803e3d5ffd5b505050506040513d601f19601f820116820180604052508101906104249190611040565b6104405760405162461bcd60e51b81526004016102d990611066565b60058201805460ff60e01b1916905560405183907f4e02dcf02d8510f6c8a6878a3c54ae6e2bfbf552df29221d7a1eed173a6b1ae7905f90a250506002805460ff1916905550565b60025460ff16156104ab5760405162461bcd60e51b81526004016102d990610fa9565b6002805460ff191660011790556001600160a01b038416158015906104d857506001600160a01b03831615155b6105245760405162461bcd60e51b815260206004820152601760248201527f496e76616c696420746f6b656e2061646472657373657300000000000000000060448201526064016102d9565b600180545f91826105348361108f565b919050559050604051806101200160405280336001600160a01b031681526020015f6001600160a01b03168152602001866001600160a01b03168152602001856001600160a01b031681526020016105986003548661059391906110a7565b610e9c565b6001600160701b031681526020016105af84610e9c565b6001600160701b0390811682525f602080840182905260408085018390526001606095860181905287845283835292819020865181546001600160a01b03199081166001600160a01b03928316178355938801519482018054851695821695909517909455868201516002820180548516918616919091179055948601516003860180549093169084161790915560808501516004808601805460a08901519387166001600160e01b031991821617600160701b94881685021790915560c08801516005909701805460e08a0151610100909a0151988816921691909117979095169091029590951760ff60e01b1916600160e01b941515949094029390931790915590516323b872dd60e01b81523392810192909252306024830152604482018590528616906323b872dd906064016020604051808303815f875af11580156106fb573d5f803e3d5ffd5b505050506040513d601f19601f8201168201806040525081019061071f9190611040565b61073b5760405162461bcd60e51b81526004016102d990611066565b604080516001600160a01b0387811682528616602082015290810184905260608101839052339082907f0a369ed6c60e8874ec811770d811145786706c5dd029e4654527e48656bb6eaa9060800160405180910390a350506002805460ff19169055505050565b60025460ff16156107c55760405162461bcd60e51b81526004016102d990610fa9565b6002805460ff191660011790555f8281526020819052604090206005810154600160e01b900460ff1661080a5760405162461bcd60e51b81526004016102d990610fe0565b5f82116108595760405162461bcd60e51b815260206004820152601960248201527f496e76616c696420736574746c656d656e7420616d6f756e740000000000000060448201526064016102d9565b60048101545f9061087a90600160701b90046001600160701b0316846110ba565b600483015460058401549192506001600160701b039081169161089f918691166110d1565b11156108ed5760405162461bcd60e51b815260206004820152601860248201527f4578636565647320617661696c61626c6520616d6f756e74000000000000000060448201526064016102d9565b6003820154825460048401546001600160a01b03928316926323b872dd923392911690610923906001600160701b0316866110e4565b6040516001600160e01b031960e086901b1681526001600160a01b03938416600482015292909116602483015260448201526064016020604051808303815f875af1158015610974573d5f803e3d5ffd5b505050506040513d601f19601f820116820180604052508101906109989190611040565b6109da5760405162461bcd60e51b8152602060048201526013602482015272109d5e481d1c985b9cd9995c8819985a5b1959606a1b60448201526064016102d9565b600282015460405163a9059cbb60e01b8152336004820152602481018590526001600160a01b039091169063a9059cbb906044016020604051808303815f875af1158015610a2a573d5f803e3d5ffd5b505050506040513d601f19601f82011682018060405250810190610a4e9190611040565b610a915760405162461bcd60e51b815260206004820152601460248201527314d95b1b081d1c985b9cd9995c8819985a5b195960621b60448201526064016102d9565b610a9a83610e9c565b6005830180545f90610ab69084906001600160701b0316611103565b82546101009290920a6001600160701b038181021990931691831602179091556004840154610aeb92506105939116836110e4565b600583018054600e90610b0f908490600160701b90046001600160701b0316611103565b82546101009290920a6001600160701b0381810219909316918316021790915560048401546005850154908216911611159050610b565760058201805460ff60e01b191690555b604051838152339085907f7ba9dcb84cc0b86760452eaa40853e8e94c0c380aca77fcde50b16f44cb61b169060200160405180910390a350506002805460ff191690555050565b60025460ff1615610bc05760405162461bcd60e51b81526004016102d990610fa9565b6002805460ff191660011790555f82815260208190526040902054336001600160a01b0390911614610c2b5760405162461bcd60e51b81526020600482015260146024820152734f6e6c79206d616b65722063616e207363616c6560601b60448201526064016102d9565b5f8281526020819052604090206005810154600160e01b900460ff16610c635760405162461bcd60e51b81526004016102d990610fe0565b5f8211610ca25760405162461bcd60e51b815260206004820152600d60248201526c496e76616c6964207363616c6560981b60448201526064016102d9565b6005810154600160701b90046001600160701b031615610d045760405162461bcd60e51b815260206004820152601760248201527f547261646520697320616c72656164792066696c6c656400000000000000000060448201526064016102d9565b60048101546001600160701b0316610d2d610d1f8285610ec5565b6001600160701b0316610e9c565b6004830180546dffffffffffffffffffffffffffff19166001600160701b039283161790819055610d6a91610d1f91600160701b90041685610ec5565b82600401600e6101000a8154816001600160701b0302191690836001600160701b031602179055505f610db6600354610da38487610ec5565b6001600160701b031661059391906110d1565b6001600160701b0316905080826001600160701b03161015610e8b5760028301546001600160a01b03166323b872dd3330610dfa6001600160701b038716866110a7565b6040516001600160e01b031960e086901b1681526001600160a01b03938416600482015292909116602483015260448201526064016020604051808303815f875af1158015610e4b573d5f803e3d5ffd5b505050506040513d601f19601f82011682018060405250810190610e6f9190611040565b610e8b5760405162461bcd60e51b81526004016102d990611066565b50506002805460ff19169055505050565b5f600160701b821115610ec15760405162461bcd60e51b81526004016102d990611122565b5090565b5f600160701b610ede836001600160701b0386166110ba565b1115610efc5760405162461bcd60e51b81526004016102d990611122565b610f0f826001600160701b0385166110ba565b90505b92915050565b5f60208284031215610f28575f80fd5b5035919050565b80356001600160a01b0381168114610f45575f80fd5b919050565b5f805f8060808587031215610f5d575f80fd5b610f6685610f2f565b9350610f7460208601610f2f565b93969395505050506040820135916060013590565b5f8060408385031215610f9a575f80fd5b50508035926020909101359150565b6020808252601f908201527f5265656e7472616e637947756172643a207265656e7472616e742063616c6c00604082015260600190565b6020808252601390820152725472616465206973206e6f742061637469766560681b604082015260600190565b634e487b7160e01b5f52601160045260245ffd5b6001600160701b038281168282160390811115610f1257610f1261100d565b5f60208284031215611050575f80fd5b8151801515811461105f575f80fd5b9392505050565b6020808252600f908201526e151c985b9cd9995c8819985a5b1959608a1b604082015260600190565b5f600182016110a0576110a061100d565b5060010190565b81810381811115610f1257610f1261100d565b8082028115828204841417610f1257610f1261100d565b80820180821115610f1257610f1261100d565b5f826110fe57634e487b7160e01b5f52601260045260245ffd5b500490565b6001600160701b038181168382160190811115610f1257610f1261100d565b60208082526026908201527f5361666555696e743131323a2076616c756520657863656564732075696e74316040820152650626440dac2f60d31b60608201526080019056fea2646970667358221220223e23b2a9b277be2c4a2a58bec27aff9eb3cde98eaf56285727286fbc1f2e4a64736f6c634300081a0033","linkReferences":{}},"methodIdentifiers":{"cancelTrade(uint256)":"09ec6cc7","createTrade(address,address,uint256,uint256)":"1906fb4d","fee()":"ddca3f43","getTrade(uint256)":"2db25e05","nextTradeId()":"813ad083","scaleTrade(uint256,uint256)":"f9452142","settleTrade(uint256,uint256)":"976cc826","trades(uint256)":"1e6c598e"},"id":19}