{"abi":[{"type":"constructor","inputs":[{"name":"player","type":"address","internalType":"address"}],"stateMutability":"nonpayable"},{"type":"function","name":"PLAYER","inputs":[],"outputs":[{"name":"","type":"address","internalType":"address"}],"stateMutability":"view"},{"type":"function","name":"isSolved","inputs":[],"outputs":[{"name":"","type":"bool","internalType":"bool"}],"stateMutability":"view"},{"type":"function","name":"token","inputs":[],"outputs":[{"name":"","type":"address","internalType":"contract PendleIntern"}],"stateMutability":"view"}],"bytecode":{"object":"0x60c060405234801561001057600080fd5b50604051610b95380380610b9583398101604081905261002f91610104565b6001600160a01b038116608052604051610048906100f7565b604051809103906000f080158015610064573d6000803e3d6000fd5b506001600160a01b031660a081905260405163a9059cbb60e01b81526e5bbb0ef59571e58418f9a4357b68a0600482015268487a9a304539440000602482015263a9059cbb906044016020604051808303816000875af11580156100cc573d6000803e3d6000fd5b505050506040513d601f19601f820116820180604052508101906100f09190610134565b5050610156565b6108388061035d83390190565b60006020828403121561011657600080fd5b81516001600160a01b038116811461012d57600080fd5b9392505050565b60006020828403121561014657600080fd5b8151801515811461012d57600080fd5b60805160a0516101d76101866000396000818160a70152610116015260008181604b015260e001526101d76000f3fe608060405234801561001057600080fd5b50600436106100415760003560e01c80630236ca741461004657806364d98f6e1461008a578063fc0c546a146100a2575b600080fd5b61006d7f000000000000000000000000000000000000000000000000000000000000000081565b6040516001600160a01b0390911681526020015b60405180910390f35b6100926100c9565b6040519015158152602001610081565b61006d7f000000000000000000000000000000000000000000000000000000000000000081565b6040516370a0823160e01b81526001600160a01b037f000000000000000000000000000000000000000000000000000000000000000081166004830152600091681244d0827f5aa40000917f000000000000000000000000000000000000000000000000000000000000000016906370a0823190602401602060405180830381865afa15801561015d573d6000803e3d6000fd5b505050506040513d601f19601f820116820180604052508101906101819190610188565b1015905090565b60006020828403121561019a57600080fd5b505191905056fea26469706673582212202dd297340862b00df585a7f7e9aca0a69d1b16c2b1465bd6708a940f3d93342364736f6c634300081a00336080604052348015600f57600080fd5b5060213368487a9a3045394400006025565b60a3565b6805345cdf77eb68f44c548181018181101560485763e5cfe9576000526004601cfd5b806805345cdf77eb68f44c5550506387a211a2600c52816000526020600c208181540181555080602052600c5160601c60007fddf252ad1be2c89b69c2b068fc378daa952ba7f163c4a11628f55a4df523b3ef602080a35050565b610786806100b26000396000f3fe608060405234801561001057600080fd5b50600436106100b45760003560e01c806370a082311161007157806370a082311461013e5780637ecebe001461016457806395d89b411461018a578063a9059cbb146101ad578063d505accf146101c0578063dd62ed3e146101d557600080fd5b806306fdde03146100b9578063095ea7b3146100d757806318160ddd146100fa57806323b872dd14610114578063313ce567146101275780633644e51514610136575b600080fd5b6100c16101fe565b6040516100ce91906105b7565b60405180910390f35b6100ea6100e5366004610621565b610225565b60405190151581526020016100ce565b6805345cdf77eb68f44c545b6040519081526020016100ce565b6100ea61012236600461064b565b610278565b604051601281526020016100ce565b610106610336565b61010661014c366004610688565b6387a211a2600c908152600091909152602090205490565b610106610172366004610688565b6338377508600c908152600091909152602090205490565b604080518082019091526007815266414d415a494e4760c81b60208201526100c1565b6100ea6101bb366004610621565b6103b3565b6101d36101ce3660046106aa565b61042e565b005b6101066101e336600461071d565b602052637f5e9f20600c908152600091909152603490205490565b60408051808201909152600d81526c2832b73236329024b73a32b93760991b602082015290565b600082602052637f5e9f20600c5233600052816034600c205581600052602c5160601c337f8c5be1e5ebec7d5bd14f71427d1e84f3dd0314c0f7b2291e5b200ac8c7c3b92560206000a350600192915050565b60008360601b33602052637f5e9f208117600c526034600c20805460018101156102b857808511156102b2576313be252b6000526004601cfd5b84810382555b50506387a211a28117600c526020600c208054808511156102e15763f4d678b86000526004601cfd5b84810382555050836000526020600c208381540181555082602052600c5160601c8160601c7fddf252ad1be2c89b69c2b068fc378daa952ba7f163c4a11628f55a4df523b3ef602080a3505060019392505050565b6000806103416101fe565b8051906020012090506040517f8b73c3c69bb8fe3d512ecc4cf759cc79239f7b179b0ffacaa9a75d522b39400f81528160208201527fc89efdaa54c0f20c7adf612882df0950f5a951637e0307cdcb4c672f298b8bc6604082015246606082015230608082015260a081209250505090565b60006387a211a2600c52336000526020600c208054808411156103de5763f4d678b86000526004601cfd5b83810382555050826000526020600c208281540181555081602052600c5160601c337fddf252ad1be2c89b69c2b068fc378daa952ba7f163c4a11628f55a4df523b3ef602080a350600192915050565b60006104386101fe565b8051906020012090508442111561045757631a15a3cc6000526004601cfd5b6040518860601b60601c98508760601b60601c975065383775081901600e52886000526020600c2080547f8b73c3c69bb8fe3d512ecc4cf759cc79239f7b179b0ffacaa9a75d522b39400f83528360208401527fc89efdaa54c0f20c7adf612882df0950f5a951637e0307cdcb4c672f298b8bc6604084015246606084015230608084015260a08320602e527f6e71edae12b1b97f4d1f60370fef10105fa2faae0126114a169c64845d6126c983528a60208401528960408401528860608401528060808401528760a084015260c08320604e526042602c206000528660ff1660205285604052846060526020806080600060015afa8b3d51146105635763ddafbaef6000526004601cfd5b0190556303faf4f960a51b88176040526034602c2087905587897f8c5be1e5ebec7d5bd14f71427d1e84f3dd0314c0f7b2291e5b200ac8c7c3b925602060608501a360405250506000606052505050505050565b602081526000825180602084015260005b818110156105e557602081860181015160408684010152016105c8565b506000604082850101526040601f19601f83011684010191505092915050565b80356001600160a01b038116811461061c57600080fd5b919050565b6000806040838503121561063457600080fd5b61063d83610605565b946020939093013593505050565b60008060006060848603121561066057600080fd5b61066984610605565b925061067760208501610605565b929592945050506040919091013590565b60006020828403121561069a57600080fd5b6106a382610605565b9392505050565b600080600080600080600060e0888a0312156106c557600080fd5b6106ce88610605565b96506106dc60208901610605565b95506040880135945060608801359350608088013560ff8116811461070057600080fd5b9699959850939692959460a0840135945060c09093013592915050565b6000806040838503121561073057600080fd5b61073983610605565b915061074760208401610605565b9050925092905056fea2646970667358221220d8f3391278c46810a486cc690a8735d00be6abc439d4cc9e3cfeb0ab40ab846d64736f6c634300081a0033","linkReferences":{}},"methodIdentifiers":{"PLAYER()":"0236ca74","isSolved()":"64d98f6e","token()":"fc0c546a"},"id":15}