{"abi":[{"type":"constructor","inputs":[{"name":"_player","type":"address","internalType":"address"},{"name":"_manager","type":"address","internalType":"contract PoolManager"}],"stateMutability":"payable"},{"type":"receive","stateMutability":"payable"},{"type":"function","name":"arbitrary","inputs":[{"name":"a","type":"address","internalType":"address"},{"name":"data","type":"bytes","internalType":"bytes"}],"outputs":[],"stateMutability":"payable"},{"type":"function","name":"isSolved","inputs":[],"outputs":[{"name":"","type":"bool","internalType":"bool"}],"stateMutability":"view"}],"bytecode":{"object":"0x61010060405260405161289a38038061289a833981016040819052610023916103f9565b6001600160a01b03821660a05260405161003c906103c8565b6040808252600590820152642a37b5b2b760d91b6060820152608060208201819052600290820152612a1960f11b60a082015260c001604051809103905ff08015801561008b573d5f803e3d5ffd5b506001600160a01b03908116608052811660e05260405160c0905f9081906100f990309085906100bd602082016103d5565b601f1982820381018352601f90910116604081815260e0516001600160a01b031660208301520160408051601f19818403018152919052610292565b915091508060e05160405161010d906103d5565b6001600160a01b0390911681526020018190604051809103905ff590508015801561013a573d5f803e3d5ffd5b506001600160a01b0390811660c08190529083161461015b5761015b610431565b6040805160a080820183525f808352608080516001600160a01b039081166020860152948401829052600a606085015260c0519094169383019390935281206c01000000000000000000000000929060c0516040516304b8e8f760e31b8152600481018390529192506001600160a01b0316906325c747b8906024015f604051808303815f87803b1580156101ee575f80fd5b505af1158015610200573d5f803e3d5ffd5b505060e051604080515f8152602081019182905263695c5bf560e01b9091526001600160a01b03909116925063695c5bf59150610244908590879060248101610473565b6020604051808303815f875af1158015610260573d5f803e3d5ffd5b505050506040513d601f19601f8201168201806040525081019061028491906104db565b505050505050505050610535565b5f805f8085856040516020016102a9929190610519565b60405160208183030381529060405290505f5b620186a0811015610373578151602080840191909120604080517fff00000000000000000000000000000000000000000000000000000000000000818501526001600160601b031960608e901b1660218201526035810185905260558082019390935281518082039093018352607501905280519101209250613fff83166001600160a01b03891614801561035957506001600160a01b0383163b155b1561036b579193509091506103bf9050565b6001016102bc565b60405162461bcd60e51b815260206004820152601e60248201527f486f6f6b4d696e65723a20636f756c64206e6f742066696e642073616c740000604482015260640160405180910390fd5b94509492505050565b610b2f8061095883390190565b6114138061148783390190565b6001600160a01b03811681146103f6575f80fd5b50565b5f806040838503121561040a575f80fd5b8251610415816103e2565b6020840151909250610426816103e2565b809150509250929050565b634e487b7160e01b5f52600160045260245ffd5b5f81518084528060208401602086015e5f602082860101526020601f19601f83011685010191505092915050565b83516001600160a01b03908116825260208086015182169083015260408086015162ffffff169083015260608086015160020b90830152608080860151821690830152831660a082015260e060c08201525f6104d260e0830184610445565b95945050505050565b5f602082840312156104eb575f80fd5b81518060020b81146104fb575f80fd5b9392505050565b5f81518060208401855e5f93019283525090919050565b5f61052d6105278386610502565b84610502565b949350505050565b60805160a05160c05160e0516103f46105645f395f61020f01525f61012201525f605901525f50506103f45ff3fe60806040526004361061002b575f3560e01c806364d98f6e1461003657806399d3c8701461008a575f80fd5b3661003257005b5f80fd5b348015610041575f80fd5b5060408051671a5e27eef13e00006001600160a01b037f000000000000000000000000000000000000000000000000000000000000000016311015815290519081900360200190f35b61009d6100983660046102cb565b61009f565b005b5f541561010b575f546100b2904361036a565b6100c490670c7d713b49da0000610383565b34101561010b5760405162461bcd60e51b815260206004820152601060248201526f696e73756666696369656e742066656560801b60448201526064015b60405180910390fd5b435f556001600160a01b03831630148061015657507f00000000000000000000000000000000000000000000000000000000000000006001600160a01b0316836001600160a01b0316145b156101fb575f836001600160a01b031647848460405161017792919061039a565b5f6040518083038185875af1925050503d805f81146101b1576040519150601f19603f3d011682016040523d82523d5f602084013e6101b6565b606091505b50509050806101f55760405162461bcd60e51b815260206004820152600b60248201526a18d85b1b0819985a5b195960aa1b6044820152606401610102565b50505050565b6001600160a01b03831633148061024357507f00000000000000000000000000000000000000000000000000000000000000006001600160a01b0316836001600160a01b0316145b15610264575f836001600160a01b031634848460405161017792919061039a565b5f80549080610272836103a9565b91905055505f836001600160a01b0316838360405161029292919061039a565b5f604051808303815f865af19150503d805f81146101b1576040519150601f19603f3d011682016040523d82523d5f602084013e6101b6565b5f805f604084860312156102dd575f80fd5b83356001600160a01b03811681146102f3575f80fd5b9250602084013567ffffffffffffffff81111561030e575f80fd5b8401601f8101861361031e575f80fd5b803567ffffffffffffffff811115610334575f80fd5b866020828401011115610345575f80fd5b939660209190910195509293505050565b634e487b7160e01b5f52601160045260245ffd5b8181038181111561037d5761037d610356565b92915050565b808202811582820484141761037d5761037d610356565b818382375f9101908152919050565b5f816103b7576103b7610356565b505f19019056fea2646970667358221220f7ef55cc469b76badf992b9f9b5e7472063a6ff59a898e7575bc72a4032fb63b64736f6c634300081a0033608060405234801561000f575f80fd5b50604051610b2f380380610b2f83398101604081905261002e91610277565b600361003a8382610360565b5060046100478282610360565b50600580546001600160a01b0319163390811790915561007090683635c9adc5dea00000610077565b505061043f565b6001600160a01b0382166100a55760405163ec442f0560e01b81525f60048201526024015b60405180910390fd5b6100b05f83836100b4565b5050565b6001600160a01b0383166100de578060025f8282546100d3919061041a565b9091555061014e9050565b6001600160a01b0383165f90815260208190526040902054818110156101305760405163391434e360e21b81526001600160a01b0385166004820152602481018290526044810183905260640161009c565b6001600160a01b0384165f9081526020819052604090209082900390555b6001600160a01b03821661016a57600280548290039055610188565b6001600160a01b0382165f9081526020819052604090208054820190555b816001600160a01b0316836001600160a01b03167fddf252ad1be2c89b69c2b068fc378daa952ba7f163c4a11628f55a4df523b3ef836040516101cd91815260200190565b60405180910390a3505050565b634e487b7160e01b5f52604160045260245ffd5b5f82601f8301126101fd575f80fd5b81516001600160401b03811115610216576102166101da565b604051601f8201601f19908116603f011681016001600160401b0381118282101715610244576102446101da565b60405281815283820160200185101561025b575f80fd5b8160208501602083015e5f918101602001919091529392505050565b5f8060408385031215610288575f80fd5b82516001600160401b0381111561029d575f80fd5b6102a9858286016101ee565b602085015190935090506001600160401b038111156102c6575f80fd5b6102d2858286016101ee565b9150509250929050565b600181811c908216806102f057607f821691505b60208210810361030e57634e487b7160e01b5f52602260045260245ffd5b50919050565b601f82111561035b57805f5260205f20601f840160051c810160208510156103395750805b601f840160051c820191505b81811015610358575f8155600101610345565b50505b505050565b81516001600160401b03811115610379576103796101da565b61038d8161038784546102dc565b84610314565b6020601f8211600181146103bf575f83156103a85750848201515b5f19600385901b1c1916600184901b178455610358565b5f84815260208120601f198516915b828110156103ee57878501518255602094850194600190920191016103ce565b508482101561040b57868401515f19600387901b60f8161c191681555b50505050600190811b01905550565b8082018082111561043957634e487b7160e01b5f52601160045260245ffd5b92915050565b6106e38061044c5f395ff3fe608060405234801561000f575f80fd5b5060043610610090575f3560e01c8063313ce56711610063578063313ce567146100fa57806370a082311461010957806395d89b4114610131578063a9059cbb14610139578063dd62ed3e1461014c575f80fd5b806306fdde0314610094578063095ea7b3146100b257806318160ddd146100d557806323b872dd146100e7575b5f80fd5b61009c610184565b6040516100a99190610553565b60405180910390f35b6100c56100c03660046105a3565b610214565b60405190151581526020016100a9565b6002545b6040519081526020016100a9565b6100c56100f53660046105cb565b61022d565b604051601281526020016100a9565b6100d9610117366004610605565b6001600160a01b03165f9081526020819052604090205490565b61009c610250565b6100c56101473660046105a3565b61025f565b6100d961015a366004610625565b6001600160a01b039182165f90815260016020908152604080832093909416825291909152205490565b60606003805461019390610656565b80601f01602080910402602001604051908101604052809291908181526020018280546101bf90610656565b801561020a5780601f106101e15761010080835404028352916020019161020a565b820191905f5260205f20905b8154815290600101906020018083116101ed57829003601f168201915b5050505050905090565b5f3361022181858561026c565b60019150505b92915050565b5f3361023a85828561027e565b6102458585856102fe565b506001949350505050565b60606004805461019390610656565b5f336102218185856102fe565b610279838383600161035b565b505050565b6001600160a01b038381165f908152600160209081526040808320938616835292905220545f1981146102f857818110156102ea57604051637dc7a0d960e11b81526001600160a01b038416600482015260248101829052604481018390526064015b60405180910390fd5b6102f884848484035f61035b565b50505050565b6001600160a01b03831661032757604051634b637e8f60e11b81525f60048201526024016102e1565b6001600160a01b0382166103505760405163ec442f0560e01b81525f60048201526024016102e1565b61027983838361042d565b6001600160a01b0384166103845760405163e602df0560e01b81525f60048201526024016102e1565b6001600160a01b0383166103ad57604051634a1406b160e11b81525f60048201526024016102e1565b6001600160a01b038085165f90815260016020908152604080832093871683529290522082905580156102f857826001600160a01b0316846001600160a01b03167f8c5be1e5ebec7d5bd14f71427d1e84f3dd0314c0f7b2291e5b200ac8c7c3b9258460405161041f91815260200190565b60405180910390a350505050565b6001600160a01b038316610457578060025f82825461044c919061068e565b909155506104c79050565b6001600160a01b0383165f90815260208190526040902054818110156104a95760405163391434e360e21b81526001600160a01b038516600482015260248101829052604481018390526064016102e1565b6001600160a01b0384165f9081526020819052604090209082900390555b6001600160a01b0382166104e357600280548290039055610501565b6001600160a01b0382165f9081526020819052604090208054820190555b816001600160a01b0316836001600160a01b03167fddf252ad1be2c89b69c2b068fc378daa952ba7f163c4a11628f55a4df523b3ef8360405161054691815260200190565b60405180910390a3505050565b602081525f82518060208401528060208501604085015e5f604082850101526040601f19601f83011684010191505092915050565b80356001600160a01b038116811461059e575f80fd5b919050565b5f80604083850312156105b4575f80fd5b6105bd83610588565b946020939093013593505050565b5f805f606084860312156105dd575f80fd5b6105e684610588565b92506105f460208501610588565b929592945050506040919091013590565b5f60208284031215610615575f80fd5b61061e82610588565b9392505050565b5f8060408385031215610636575f80fd5b61063f83610588565b915061064d60208401610588565b90509250929050565b600181811c9082168061066a57607f821691505b60208210810361068857634e487b7160e01b5f52602260045260245ffd5b50919050565b8082018082111561022757634e487b7160e01b5f52601160045260245ffdfea264697066735822122058d4df576eaf94e3bc87f41e3b1462f5b130ac9c36ecf1dc2b2bf0cd4a35b6fb64736f6c634300081a003360a060405234801561000f575f80fd5b5060405161141338038061141383398101604081905261002e916102a4565b6001600160a01b038116608052806100453061004c565b50506102d1565b61013c81610137604080516101c0810182525f80825260208201819052918101829052606081018290526080810182905260a0810182905260c0810182905260e08101829052610100810182905261012081018290526101408101829052610160810182905261018081018290526101a081019190915250604080516101c0810182525f80825260208201819052918101829052606081018290526080810182905260a08101829052600160c0820181905260e0820152610100810182905261012081018290526101408101829052610160810182905261018081018290526101a081019190915290565b61013f565b50565b80511515612000831615151415806101635750602081015115156110008316151514155b8061017a5750604081015115156108008316151514155b806101915750606081015115156104008316151514155b806101a85750608081015115156102008316151514155b806101bf575060a081015115156101008316151514155b806101d5575060c0810151151560808316151514155b806101eb575060e0810151151560408316151514155b806102025750610100810151151560208316151514155b806102195750610120810151151560108316151514155b806102305750610140810151151560088316151514155b806102475750610160810151151560048316151514155b8061025e5750610180810151151560028316151514155b8061027557506101a0810151151560018316151514155b1561028b5761028b630732d7b560e51b8361028f565b5050565b815f526001600160a01b03811660045260245ffd5b5f602082840312156102b4575f80fd5b81516001600160a01b03811681146102ca575f80fd5b9392505050565b6080516111156102fe5f395f8181610417015281816106d001528181610821015261087f01526111155ff3fe6080604052600436106100fa575f3560e01c80636c2bbe7e11610092578063b47b2fb111610062578063b47b2fb1146102aa578063b6a8b0fa146102ec578063c4e833ce14610306578063dc4c90d314610406578063e1b4af69146102ec575f80fd5b80636c2bbe7e1461022557806391dd7346146102645780639f063efc14610225578063a910f80f14610290575f80fd5b8063259982e5116100cd578063259982e51461016a57806325c747b8146101a25780633440d820146101c1578063575e24b4146101db575f80fd5b806309ead22d146100fe57806310b1a3dd1461010857806321b62c2f1461014b57806321d0ee701461016a575b5f80fd5b610106610451565b005b348015610113575f80fd5b50610136610122366004610998565b60026020525f908152604090205460ff1681565b60405190151581526020015b60405180910390f35b348015610156575f80fd5b50610106610165366004610a0a565b61047c565b348015610175575f80fd5b50610189610184366004610aa1565b610655565b6040516001600160e01b03199091168152602001610142565b3480156101ad575f80fd5b506101066101bc366004610998565b61066f565b3480156101cc575f80fd5b50610189610184366004610b18565b3480156101e6575f80fd5b506101fa6101f5366004610b72565b6106c2565b604080516001600160e01b03199094168452602084019290925262ffffff1690820152606001610142565b348015610230575f80fd5b5061024461023f366004610bcc565b6107f9565b604080516001600160e01b03199093168352602083019190915201610142565b34801561026f575f80fd5b5061028361027e366004610c57565b610814565b6040516101429190610c96565b34801561029b575f80fd5b50610189610184366004610cdc565b3480156102b5575f80fd5b506102c96102c4366004610d64565b610872565b604080516001600160e01b03199093168352600f9190910b602083015201610142565b3480156102f7575f80fd5b50610189610184366004610dc7565b348015610311575f80fd5b506103f9604080516101c0810182525f80825260208201819052918101829052606081018290526080810182905260a0810182905260c0810182905260e08101829052610100810182905261012081018290526101408101829052610160810182905261018081018290526101a081019190915250604080516101c0810182525f80825260208201819052918101829052606081018290526080810182905260a08101829052600160c0820181905260e0820152610100810182905261012081018290526101408101829052610160810182905261018081018290526101a081019190915290565b6040516101429190610e21565b348015610411575f80fd5b506104397f000000000000000000000000000000000000000000000000000000000000000081565b6040516001600160a01b039091168152602001610142565b670de0b6b3a7640000341061047a575f80548152600260205260409020805460ff191660011790555b565b60015460ff166104c15760405162461bcd60e51b815260206004820152600b60248201526a737761705f756e6c6f636b60a81b60448201526064015b60405180910390fd5b6020819003610650575f6104d782840184610f42565b90505f6103e8670de0b6b3a76400006104f36020880135610f78565b6104fd9190610f92565b6105079190610fc5565b90505f6001600160a01b038316320361057757826001600160a01b03164783106105315747610533565b825b6040515f81818185875af1925050503d805f811461056c576040519150601f19603f3d011682016040523d82523d5f602084013e610571565b606091505b50909150505b6001600160a01b03831631156105e9575f610593600b32610fd8565b9050806001600160a01b0316476040515f6040518083038185875af1925050503d805f81146105dd576040519150601f19603f3d011682016040523d82523d5f602084013e6105e2565b606091505b5090925050505b5f4783106105f757476105f9565b825b9050836001600160a01b0316816040515f6040518083038185875af1925050503d805f8114610643576040519150601f19603f3d011682016040523d82523d5f602084013e610648565b606091505b505050505050505b505050565b5f604051630a85dc2960e01b815260040160405180910390fd5b5f54156106be5760405162461bcd60e51b815260206004820152601660248201527f6c75636b795f706f6f6c5f616c72656164795f7365740000000000000000000060448201526064016104b8565b5f55565b5f8080336001600160a01b037f000000000000000000000000000000000000000000000000000000000000000016146107305760405162461bcd60e51b815260206004820152601060248201526f3737ba2fb837b7b62fb6b0b730b3b2b960811b60448201526064016104b8565b6001805460ff1916811790555f61075661074f368a90038a018a611017565b60a0902090565b5f8181526002602052604090205490915060ff16801561077e575061077e60208801886110b1565b80156107a257506107a261079560208a018a610f42565b6001600160a01b03161590565b80156107ba5750670de0b6b3a763ffff198760200135125b156107e0576107ca87878761047c565b5f818152600260205260409020805460ff191690555b506315d7892d60e21b985f985088975095505050505050565b5f80604051630a85dc2960e01b815260040160405180910390fd5b6060336001600160a01b037f0000000000000000000000000000000000000000000000000000000000000000161461085f5760405163570c108560e11b815260040160405180910390fd5b61086983836108ff565b90505b92915050565b5f80336001600160a01b037f000000000000000000000000000000000000000000000000000000000000000016146108df5760405162461bcd60e51b815260206004820152601060248201526f3737ba2fb837b7b62fb6b0b730b3b2b960811b60448201526064016104b8565b50506001805460ff1916905563b47b2fb160e01b5f965096945050505050565b60605f80306001600160a01b0316858560405161091d9291906110d0565b5f604051808303815f865af19150503d805f8114610956576040519150601f19603f3d011682016040523d82523d5f602084013e61095b565b606091505b5091509150811561096f57915061086c9050565b80515f03610990576040516314815f4760e31b815260040160405180910390fd5b805160208201fd5b5f602082840312156109a8575f80fd5b5035919050565b5f606082840312156109bf575f80fd5b50919050565b5f8083601f8401126109d5575f80fd5b50813567ffffffffffffffff8111156109ec575f80fd5b602083019150836020828501011115610a03575f80fd5b9250929050565b5f805f60808486031215610a1c575f80fd5b610a2685856109af565b9250606084013567ffffffffffffffff811115610a41575f80fd5b610a4d868287016109c5565b9497909650939450505050565b6001600160a01b0381168114610a6e575f80fd5b50565b8035610a7c81610a5a565b919050565b5f60a082840312156109bf575f80fd5b5f608082840312156109bf575f80fd5b5f805f805f6101608688031215610ab6575f80fd5b8535610ac181610a5a565b9450610ad08760208801610a81565b9350610adf8760c08801610a91565b925061014086013567ffffffffffffffff811115610afb575f80fd5b610b07888289016109c5565b969995985093965092949392505050565b5f805f805f6101008688031215610b2d575f80fd5b8535610b3881610a5a565b9450610b478760208801610a81565b935060c0860135610b5781610a5a565b925060e086013567ffffffffffffffff811115610afb575f80fd5b5f805f805f6101408688031215610b87575f80fd5b8535610b9281610a5a565b9450610ba18760208801610a81565b9350610bb08760c088016109af565b925061012086013567ffffffffffffffff811115610afb575f80fd5b5f805f805f805f6101a0888a031215610be3575f80fd5b8735610bee81610a5a565b9650610bfd8960208a01610a81565b9550610c0c8960c08a01610a91565b94506101408801359350610160880135925061018088013567ffffffffffffffff811115610c38575f80fd5b610c448a828b016109c5565b989b979a50959850939692959293505050565b5f8060208385031215610c68575f80fd5b823567ffffffffffffffff811115610c7e575f80fd5b610c8a858286016109c5565b90969095509350505050565b602081525f82518060208401528060208501604085015e5f604082850101526040601f19601f83011684010191505092915050565b8035600281900b8114610a7c575f80fd5b5f805f805f806101208789031215610cf2575f80fd5b8635610cfd81610a5a565b9550610d0c8860208901610a81565b945060c0870135610d1c81610a5a565b9350610d2a60e08801610ccb565b925061010087013567ffffffffffffffff811115610d46575f80fd5b610d5289828a016109c5565b979a9699509497509295939492505050565b5f805f805f806101608789031215610d7a575f80fd5b8635610d8581610a5a565b9550610d948860208901610a81565b9450610da38860c089016109af565b9350610120870135925061014087013567ffffffffffffffff811115610d46575f80fd5b5f805f805f806101208789031215610ddd575f80fd5b8635610de881610a5a565b9550610df78860208901610a81565b945060c0870135935060e0870135925061010087013567ffffffffffffffff811115610d46575f80fd5b8151151581526101c081016020830151610e3f602084018215159052565b506040830151610e53604084018215159052565b506060830151610e67606084018215159052565b506080830151610e7b608084018215159052565b5060a0830151610e8f60a084018215159052565b5060c0830151610ea360c084018215159052565b5060e0830151610eb760e084018215159052565b50610100830151610ecd61010084018215159052565b50610120830151610ee361012084018215159052565b50610140830151610ef961014084018215159052565b50610160830151610f0f61016084018215159052565b50610180830151610f2561018084018215159052565b506101a0830151610f3b6101a084018215159052565b5092915050565b5f60208284031215610f52575f80fd5b8135610f5d81610a5a565b9392505050565b634e487b7160e01b5f52601160045260245ffd5b5f600160ff1b8201610f8c57610f8c610f64565b505f0390565b8181035f831280158383131683831282161715610f3b57610f3b610f64565b634e487b7160e01b5f52601260045260245ffd5b5f82610fd357610fd3610fb1565b500490565b5f6001600160a01b03831680610ff057610ff0610fb1565b806001600160a01b0384160491505092915050565b803562ffffff81168114610a7c575f80fd5b5f60a0828403128015611028575f80fd5b5060405160a0810167ffffffffffffffff8111828210171561105857634e487b7160e01b5f52604160045260245ffd5b60405261106483610a71565b815261107260208401610a71565b602082015261108360408401611005565b604082015261109460608401610ccb565b60608201526110a560808401610a71565b60808201529392505050565b5f602082840312156110c1575f80fd5b81358015158114610f5d575f80fd5b818382375f910190815291905056fea2646970667358221220b8ee62f831d651bf9c6f00311a50235d9ebf408a3c35c845c979d83095dde37064736f6c634300081a0033","linkReferences":{}},"methodIdentifiers":{"arbitrary(address,bytes)":"99d3c870","isSolved()":"64d98f6e"},"id":72}