{"abi":[{"type":"constructor","inputs":[],"stateMutability":"nonpayable"},{"type":"function","name":"isSolved","inputs":[],"outputs":[{"name":"","type":"bool","internalType":"bool"}],"stateMutability":"view"},{"type":"function","name":"tradeSettlement","inputs":[],"outputs":[{"name":"","type":"address","internalType":"contract TradeSettlement"}],"stateMutability":"view"},{"type":"function","name":"weth","inputs":[],"outputs":[{"name":"","type":"address","internalType":"contract SimpleERC20"}],"stateMutability":"view"},{"type":"function","name":"wojak","inputs":[],"outputs":[{"name":"","type":"address","internalType":"contract SimpleERC20"}],"stateMutability":"view"}],"bytecode":{"object":"0x608060405234801561000f575f80fd5b5060405161001c9061028e565b604051809103905ff080158015610035573d5f803e3d5ffd5b505f806101000a8154816001600160a01b0302191690836001600160a01b031602179055506012678ac7230489e800006040516100719061029b565b6080808252600d908201526c2bb930b83832b21022ba3432b960991b60a082015260c060208201819052600490820152630ae8aa8960e31b60e082015260ff9092166040830152606082015261010001604051809103905ff0801580156100da573d5f803e3d5ffd5b5060025f6101000a8154816001600160a01b0302191690836001600160a01b031602179055506012678ac7230489e800006040516101179061029b565b6080808252600590820181905264576f6a616b60d81b60a083015260c06020830181905282015264574f4a414b60d81b60e082015260ff9092166040830152606082015261010001604051809103905ff080158015610178573d5f803e3d5ffd5b50600180546001600160a01b0319166001600160a01b039283169081179091555f5460405163095ea7b360e01b815292166004830152678ac7230489e8000060248301529063095ea7b3906044016020604051808303815f875af11580156101e2573d5f803e3d5ffd5b505050506040513d601f19601f8201168201806040525081019061020691906102a8565b505f54600154600254604051631906fb4d60e01b81526001600160a01b0392831660048201529082166024820152678ac7230489e800006044820152670de0b6b3a76400006064820152911690631906fb4d906084015f604051808303815f87803b158015610273575f80fd5b505af1158015610285573d5f803e3d5ffd5b505050506102ce565b6111bf8061046383390190565b610a3d8061162283390190565b5f602082840312156102b8575f80fd5b815180151581146102c7575f80fd5b9392505050565b610188806102db5f395ff3fe608060405234801561000f575f80fd5b506004361061004a575f3560e01c80633fc8cef31461004e5780634c4235381461007e57806364d98f6e14610091578063d6a8ace0146100a9575b5f80fd5b600254610061906001600160a01b031681565b6040516001600160a01b0390911681526020015b60405180910390f35b600154610061906001600160a01b031681565b6100996100bb565b6040519015158152602001610075565b5f54610061906001600160a01b031681565b6001546040516370a0823160e01b815262c0ffee60048201525f91678ac7230489e80000916001600160a01b03909116906370a0823190602401602060405180830381865afa158015610110573d5f803e3d5ffd5b505050506040513d601f19601f82011682018060405250810190610134919061013b565b1015905090565b5f6020828403121561014b575f80fd5b505191905056fea2646970667358221220e033650f6da14dabdd44efe67ca3bbfd361787d9806d543a86a960d5b2bdc91364736f6c634300081a00336080604052601e6003553480156013575f80fd5b5061119e806100215f395ff3fe608060405234801561000f575f80fd5b5060043610610085575f3560e01c8063813ad08311610058578063813ad08314610270578063976cc82614610287578063ddca3f431461029a578063f9452142146102a3575f80fd5b806309ec6cc7146100895780631906fb4d1461009e5780631e6c598e146100b15780632db25e0514610199575b5f80fd5b61009c610097366004610f18565b6102b6565b005b61009c6100ac366004610f4a565b610488565b61012f6100bf366004610f18565b5f602081905290815260409020805460018201546002830154600384015460048501546005909501546001600160a01b0394851695938516949283169392909116916001600160701b0380821692600160701b92839004821692828216929082041690600160e01b900460ff1689565b604080516001600160a01b039a8b168152988a1660208a0152968916968801969096529690931660608601526001600160701b039182166080860152811660a085015290811660c084015290921660e0820152901515610100820152610120015b60405180910390f35b6102186101a7366004610f18565b5f908152602081905260409020805460018201546002830154600384015460048501546005909501546001600160a01b03948516969385169592851694909116926001600160701b0380841693600160701b908190048216938281169391810490921691600160e01b900460ff1690565b604080516001600160a01b039a8b168152988a1660208a015296891696880196909652969093166060860152608085019190915260a084015260c083015260e082019290925290151561010082015261012001610190565b61027960015481565b604051908152602001610190565b61009c610295366004610f89565b6107a2565b61027960035481565b61009c6102b1366004610f89565b610b9d565b60025460ff16156102e25760405162461bcd60e51b81526004016102d990610fa9565b60405180910390fd5b6002805460ff191660011790555f8181526020819052604090208054336001600160a01b039091161461034f5760405162461bcd60e51b815260206004820152601560248201527413db9b1e481b585ad95c8818d85b8818d85b98d95b605a1b60448201526064016102d9565b6005810154600160e01b900460ff1661037a5760405162461bcd60e51b81526004016102d990610fe0565b600581015460048201545f9161039c916001600160701b039182169116611021565b6001600160701b031690508015610440576002820154825460405163a9059cbb60e01b81526001600160a01b0391821660048201526024810184905291169063a9059cbb906044016020604051808303815f875af1158015610400573d5f803e3d5ffd5b505050506040513d601f19601f820116820180604052508101906104249190611040565b6104405760405162461bcd60e51b81526004016102d990611066565b60058201805460ff60e01b1916905560405183907f4e02dcf02d8510f6c8a6878a3c54ae6e2bfbf552df29221d7a1eed173a6b1ae7905f90a250506002805460ff1916905550565b60025460ff16156104ab5760405162461bcd60e51b81526004016102d990610fa9565b6002805460ff191660011790556001600160a01b038416158015906104d857506001600160a01b03831615155b6105245760405162461bcd60e51b815260206004820152601760248201527f496e76616c696420746f6b656e2061646472657373657300000000000000000060448201526064016102d9565b600180545f91826105348361108f565b919050559050604051806101200160405280336001600160a01b031681526020015f6001600160a01b03168152602001866001600160a01b03168152602001856001600160a01b031681526020016105986003548661059391906110a7565b610e9c565b6001600160701b031681526020016105af84610e9c565b6001600160701b0390811682525f602080840182905260408085018390526001606095860181905287845283835292819020865181546001600160a01b03199081166001600160a01b03928316178355938801519482018054851695821695909517909455868201516002820180548516918616919091179055948601516003860180549093169084161790915560808501516004808601805460a08901519387166001600160e01b031991821617600160701b94881685021790915560c08801516005909701805460e08a0151610100909a0151988816921691909117979095169091029590951760ff60e01b1916600160e01b941515949094029390931790915590516323b872dd60e01b81523392810192909252306024830152604482018590528616906323b872dd906064016020604051808303815f875af11580156106fb573d5f803e3d5ffd5b505050506040513d601f19601f8201168201806040525081019061071f9190611040565b61073b5760405162461bcd60e51b81526004016102d990611066565b604080516001600160a01b0387811682528616602082015290810184905260608101839052339082907f0a369ed6c60e8874ec811770d811145786706c5dd029e4654527e48656bb6eaa9060800160405180910390a350506002805460ff19169055505050565b60025460ff16156107c55760405162461bcd60e51b81526004016102d990610fa9565b6002805460ff191660011790555f8281526020819052604090206005810154600160e01b900460ff1661080a5760405162461bcd60e51b81526004016102d990610fe0565b5f82116108595760405162461bcd60e51b815260206004820152601960248201527f496e76616c696420736574746c656d656e7420616d6f756e740000000000000060448201526064016102d9565b60048101545f9061087a90600160701b90046001600160701b0316846110ba565b600483015460058401549192506001600160701b039081169161089f918691166110d1565b11156108ed5760405162461bcd60e51b815260206004820152601860248201527f4578636565647320617661696c61626c6520616d6f756e74000000000000000060448201526064016102d9565b6003820154825460048401546001600160a01b03928316926323b872dd923392911690610923906001600160701b0316866110e4565b6040516001600160e01b031960e086901b1681526001600160a01b03938416600482015292909116602483015260448201526064016020604051808303815f875af1158015610974573d5f803e3d5ffd5b505050506040513d601f19601f820116820180604052508101906109989190611040565b6109da5760405162461bcd60e51b8152602060048201526013602482015272109d5e481d1c985b9cd9995c8819985a5b1959606a1b60448201526064016102d9565b600282015460405163a9059cbb60e01b8152336004820152602481018590526001600160a01b039091169063a9059cbb906044016020604051808303815f875af1158015610a2a573d5f803e3d5ffd5b505050506040513d601f19601f82011682018060405250810190610a4e9190611040565b610a915760405162461bcd60e51b815260206004820152601460248201527314d95b1b081d1c985b9cd9995c8819985a5b195960621b60448201526064016102d9565b610a9a83610e9c565b6005830180545f90610ab69084906001600160701b0316611103565b82546101009290920a6001600160701b038181021990931691831602179091556004840154610aeb92506105939116836110e4565b600583018054600e90610b0f908490600160701b90046001600160701b0316611103565b82546101009290920a6001600160701b0381810219909316918316021790915560048401546005850154908216911611159050610b565760058201805460ff60e01b191690555b604051838152339085907f7ba9dcb84cc0b86760452eaa40853e8e94c0c380aca77fcde50b16f44cb61b169060200160405180910390a350506002805460ff191690555050565b60025460ff1615610bc05760405162461bcd60e51b81526004016102d990610fa9565b6002805460ff191660011790555f82815260208190526040902054336001600160a01b0390911614610c2b5760405162461bcd60e51b81526020600482015260146024820152734f6e6c79206d616b65722063616e207363616c6560601b60448201526064016102d9565b5f8281526020819052604090206005810154600160e01b900460ff16610c635760405162461bcd60e51b81526004016102d990610fe0565b5f8211610ca25760405162461bcd60e51b815260206004820152600d60248201526c496e76616c6964207363616c6560981b60448201526064016102d9565b6005810154600160701b90046001600160701b031615610d045760405162461bcd60e51b815260206004820152601760248201527f547261646520697320616c72656164792066696c6c656400000000000000000060448201526064016102d9565b60048101546001600160701b0316610d2d610d1f8285610ec5565b6001600160701b0316610e9c565b6004830180546dffffffffffffffffffffffffffff19166001600160701b039283161790819055610d6a91610d1f91600160701b90041685610ec5565b82600401600e6101000a8154816001600160701b0302191690836001600160701b031602179055505f610db6600354610da38487610ec5565b6001600160701b031661059391906110d1565b6001600160701b0316905080826001600160701b03161015610e8b5760028301546001600160a01b03166323b872dd3330610dfa6001600160701b038716866110a7565b6040516001600160e01b031960e086901b1681526001600160a01b03938416600482015292909116602483015260448201526064016020604051808303815f875af1158015610e4b573d5f803e3d5ffd5b505050506040513d601f19601f82011682018060405250810190610e6f9190611040565b610e8b5760405162461bcd60e51b81526004016102d990611066565b50506002805460ff19169055505050565b5f600160701b821115610ec15760405162461bcd60e51b81526004016102d990611122565b5090565b5f600160701b610ede836001600160701b0386166110ba565b1115610efc5760405162461bcd60e51b81526004016102d990611122565b610f0f826001600160701b0385166110ba565b90505b92915050565b5f60208284031215610f28575f80fd5b5035919050565b80356001600160a01b0381168114610f45575f80fd5b919050565b5f805f8060808587031215610f5d575f80fd5b610f6685610f2f565b9350610f7460208601610f2f565b93969395505050506040820135916060013590565b5f8060408385031215610f9a575f80fd5b50508035926020909101359150565b6020808252601f908201527f5265656e7472616e637947756172643a207265656e7472616e742063616c6c00604082015260600190565b6020808252601390820152725472616465206973206e6f742061637469766560681b604082015260600190565b634e487b7160e01b5f52601160045260245ffd5b6001600160701b038281168282160390811115610f1257610f1261100d565b5f60208284031215611050575f80fd5b8151801515811461105f575f80fd5b9392505050565b6020808252600f908201526e151c985b9cd9995c8819985a5b1959608a1b604082015260600190565b5f600182016110a0576110a061100d565b5060010190565b81810381811115610f1257610f1261100d565b8082028115828204841417610f1257610f1261100d565b80820180821115610f1257610f1261100d565b5f826110fe57634e487b7160e01b5f52601260045260245ffd5b500490565b6001600160701b038181168382160190811115610f1257610f1261100d565b60208082526026908201527f5361666555696e743131323a2076616c756520657863656564732075696e74316040820152650626440dac2f60d31b60608201526080019056fea26469706673582212205233dea0974229a7289e1322da5bae1de9ada0adc80015f3f00344fb71d141eb64736f6c634300081a0033608060405234801561000f575f80fd5b50604051610a3d380380610a3d83398101604081905261002e91610115565b5f610039858261021c565b506001610046848261021c565b506002805460ff191660ff93909316929092179091556003819055335f90815260046020526040902055506102d69050565b634e487b7160e01b5f52604160045260245ffd5b5f82601f83011261009b575f80fd5b81516001600160401b038111156100b4576100b4610078565b604051601f8201601f19908116603f011681016001600160401b03811182821017156100e2576100e2610078565b6040528181528382016020018510156100f9575f80fd5b8160208501602083015e5f918101602001919091529392505050565b5f805f8060808587031215610128575f80fd5b84516001600160401b0381111561013d575f80fd5b6101498782880161008c565b602087015190955090506001600160401b03811115610166575f80fd5b6101728782880161008c565b935050604085015160ff81168114610188575f80fd5b6060959095015193969295505050565b600181811c908216806101ac57607f821691505b6020821081036101ca57634e487b7160e01b5f52602260045260245ffd5b50919050565b601f82111561021757805f5260205f20601f840160051c810160208510156101f55750805b601f840160051c820191505b81811015610214575f8155600101610201565b50505b505050565b81516001600160401b0381111561023557610235610078565b610249816102438454610198565b846101d0565b6020601f82116001811461027b575f83156102645750848201515b5f19600385901b1c1916600184901b178455610214565b5f84815260208120601f198516915b828110156102aa578785015182556020948501946001909201910161028a565b50848210156102c757868401515f19600387901b60f8161c191681555b50505050600190811b01905550565b61075a806102e35f395ff3fe608060405234801561000f575f80fd5b5060043610610090575f3560e01c8063313ce56711610063578063313ce567146100ff57806370a082311461011e57806395d89b411461013d578063a9059cbb14610145578063dd62ed3e14610158575f80fd5b806306fdde0314610094578063095ea7b3146100b257806318160ddd146100d557806323b872dd146100ec575b5f80fd5b61009c610182565b6040516100a991906105af565b60405180910390f35b6100c56100c03660046105ff565b61020d565b60405190151581526020016100a9565b6100de60035481565b6040519081526020016100a9565b6100c56100fa366004610627565b610279565b60025461010c9060ff1681565b60405160ff90911681526020016100a9565b6100de61012c366004610661565b60046020525f908152604090205481565b61009c610478565b6100c56101533660046105ff565b610485565b6100de610166366004610681565b600560209081525f928352604080842090915290825290205481565b5f805461018e906106b2565b80601f01602080910402602001604051908101604052809291908181526020018280546101ba906106b2565b80156102055780601f106101dc57610100808354040283529160200191610205565b820191905f5260205f20905b8154815290600101906020018083116101e857829003601f168201915b505050505081565b335f8181526005602090815260408083206001600160a01b038716808552925280832085905551919290917f8c5be1e5ebec7d5bd14f71427d1e84f3dd0314c0f7b2291e5b200ac8c7c3b925906102679086815260200190565b60405180910390a35060015b92915050565b5f6001600160a01b0383166102c75760405162461bcd60e51b815260206004820152600f60248201526e496e76616c6964206164647265737360881b60448201526064015b60405180910390fd5b6001600160a01b0384165f908152600460205260409020548211156103255760405162461bcd60e51b8152602060048201526014602482015273496e73756666696369656e742062616c616e636560601b60448201526064016102be565b6001600160a01b0384165f9081526005602090815260408083203384529091529020548211156103905760405162461bcd60e51b8152602060048201526016602482015275496e73756666696369656e7420616c6c6f77616e636560501b60448201526064016102be565b6001600160a01b0384165f90815260046020526040812080548492906103b79084906106fe565b90915550506001600160a01b0383165f90815260046020526040812080548492906103e3908490610711565b90915550506001600160a01b0384165f9081526005602090815260408083203384529091528120805484929061041a9084906106fe565b92505081905550826001600160a01b0316846001600160a01b03167fddf252ad1be2c89b69c2b068fc378daa952ba7f163c4a11628f55a4df523b3ef8460405161046691815260200190565b60405180910390a35060019392505050565b6001805461018e906106b2565b5f6001600160a01b0383166104ce5760405162461bcd60e51b815260206004820152600f60248201526e496e76616c6964206164647265737360881b60448201526064016102be565b335f908152600460205260409020548211156105235760405162461bcd60e51b8152602060048201526014602482015273496e73756666696369656e742062616c616e636560601b60448201526064016102be565b335f90815260046020526040812080548492906105419084906106fe565b90915550506001600160a01b0383165f908152600460205260408120805484929061056d908490610711565b90915550506040518281526001600160a01b0384169033907fddf252ad1be2c89b69c2b068fc378daa952ba7f163c4a11628f55a4df523b3ef90602001610267565b602081525f82518060208401528060208501604085015e5f604082850101526040601f19601f83011684010191505092915050565b80356001600160a01b03811681146105fa575f80fd5b919050565b5f8060408385031215610610575f80fd5b610619836105e4565b946020939093013593505050565b5f805f60608486031215610639575f80fd5b610642846105e4565b9250610650602085016105e4565b929592945050506040919091013590565b5f60208284031215610671575f80fd5b61067a826105e4565b9392505050565b5f8060408385031215610692575f80fd5b61069b836105e4565b91506106a9602084016105e4565b90509250929050565b600181811c908216806106c657607f821691505b6020821081036106e457634e487b7160e01b5f52602260045260245ffd5b50919050565b634e487b7160e01b5f52601160045260245ffd5b81810381811115610273576102736106ea565b80820180821115610273576102736106ea56fea2646970667358221220937a86bfbbdd22e70578ab1fe89ff5d8a9221ce778bd018af6e24677028f2c1364736f6c634300081a0033","linkReferences":{}},"methodIdentifiers":{"isSolved()":"64d98f6e","tradeSettlement()":"d6a8ace0","weth()":"3fc8cef3","wojak()":"4c423538"},"id":18}